:100000000C94CD000C94EC000C94EC000C94EC00DF
:100010000C94EC000C94A9060C94EC000C94A00534
:100020000C94EC000C94EC000C94EC000C94EC00A0
:100030000C9413040C94EC000C94EC000C94EC0065
:100040000C94EC000C9468030C94EC000C94EC0001
:100050000C94EC000C94EC000C94EC000C94EC0070
:100060000C94EC000C9414020C94DB010C94EC0046
:100070000C94EC000C94EC000C94EC000C94EC0050
:100080000C9482030C94EC000C94EC000C94EC00A7
:100090000C948E020C94EC006E616E00696E66002A
:1000A00000407A10F35A00A0724E18090010A5D42F
:1000B000E80000E87648170000E40B54020000CA8C
:1000C0009A3B000000E1F5050000809698000000D2
:1000D00040420F000000A086010000001027000031
:1000E0000000E803000000006400000000000A00B7
:1000F000000000000100000000002C76D888DC67BA
:100100004F0823DFC1DFAE59E1B1B796E5E3E45311
:10011000C63AE651997696E8E6C28426EB898C9B2E
:1001200062ED407C6FFCEFBC9C9F40F2BAA56FA5CE
:10013000F490055A2AF75C936B6CF9676DC11BFC50
:10014000E0E40D47FEF520E6B500D0ED902E03006B
:10015000943577050080841E080000204E0A0000B8
:1001600000C80C333333330F986E12831141EF8D77
:100170002114893BE65516CFFEE6DB18D1844B38B7
:100180001BF77C1D901DA4BBE424203284725E22E8
:100190008100C9F124ECA1E53D2711241FBECFEF5A
:1001A000D0E2DEBFCDBF13E0A0E0B1E0E2E2F2E8D2
:1001B00000E00BBF02C007900D92A83FB107D9F72E
:1001C00016E0A8EFB3E001C01D92A73FB107E1F729
:1001D0000E9469370C940F410C940000ECE7F0E0AA
:1001E000908190649083EAE7F0E09081982B90836F
:1001F000808180688083089590917C00907E9093A8
:100200007C0090917C00982B90937C0080917A00E8
:1002100086FDFCCF6623B1F480917C0080628093E0
:100220007C0080917A00806480937A0080917A00CB
:1002300086FDFCCF662361F0209178003091790033
:10024000C901089580917C008F7D80937C00E9CF67
:1002500080917900282F30E0C901089590917C00A9
:10026000982B90937C0080917A00806280937A0032
:10027000662331F480917A008F7D80937A0008950F
:1002800080917A00806480937A0008959B01AC018C
:10029000F894109213048091130480931204109226
:1002A000170480911704809316048AE194E09093D8
:1002B0001504809314048AE594E0909319048093C4
:1002C0001804220F331F441F551F220F331F441FD2
:1002D000551F60E074E284EF90E00E94813E21505F
:1002E000304040405040569547953795279530937C
:1002F000CD002093CC0082E08093C800E9ECF0E0D0
:1003000080E8808380818861808386E08093CA0052
:1003100078940895282F809113048F5F809313049D
:1003200080911304803410F0109213049091120401
:10033000809113049817D1F3E0911404F0911504FF
:1003400080911304E80FF11D20838091C900806221
:100350008093C9000895909117048091160498170E
:10036000D1F3809116048F5F809316048091160458
:10037000883210F010921604E0911804F0911904DC
:1003800080911604E80FF11D808108959091170463
:1003900080911604981740F49091170480911604E8
:1003A000985D981B892F08959091170480911604E9
:1003B000981B892F08951F920F920FB60F920BB6BC
:1003C0000F9211248F939F93EF93FF9390911304B7
:1003D00080911204981711F1809112048F5F80931D
:1003E0001204809112048034B0F4E0911404F0916E
:1003F000150480911204E80FF11D80818093CE00D6
:10040000FF91EF919F918F910F900BBE0F900FBEB8
:100410000F901F90189510921204E7CF8091C90099
:100420008F7D8093C900ECCF1F920F920FB60F9271
:100430000BB60F9211248F939F93EF93FF9390919C
:1004400017049F5F983208F090E080911604891796
:1004500059F0E0911804F0911904E90FF11D809111
:10046000CE00808390931704FF91EF919F918F911D
:100470000F900BBE0F900FBE0F901F901895229AF1
:100480002398219A9CB59F7D90618295880F807EEC
:10049000982B660F660F962B9CBD8CB580648CBD27
:1004A00008959CB5262F23709C7F292B2CBD9DB5CC
:1004B000669566959E7F962B9DBD8EBD0DB407FEFD
:1004C000FDCF8EB508951092B9008093B800ECEB83
:1004D000F0E080818560808378940895282F809152
:1004E0000D0490910E04892B09F0FFCF220F21609B
:1004F00020930B0410920C04423018F081E080939A
:100500000C044093100470930E0460930D0485EA6C
:100510008093BC00672B09F40895FFCF1F920F92C0
:100520000FB60F920BB60F9211248F939F93EF93F8
:10053000FF938091B90090E0887F90708832910598
:1005400009F472C08932910594F088349105D9F08C
:1005500089349105E4F48033910509F487C080342F
:10056000910509F444C085E88093BC0035C0803112
:100570009105E9F0813191050CF44BC0883191056A
:10058000D1F0809781F785EA8093BC0025C0803543
:10059000910509F45DC08835910529F710920E0484
:1005A00010920D0410920F0485E98093BC00809195
:1005B0000B0480FD1CC090910F04E0910D04F0919C
:1005C0000E04E90FF11D80818093BB009F5F909323
:1005D0000F0485E88093BC00FF91EF919F918F916C
:1005E0000F900BBE0F900FBE0F901F90189580912B
:1005F0000F049091BB00E0910D04F0910E04E80F00
:10060000F11D90838F5F80930F0485EC8093BC0075
:10061000E3CF089709F0A7CF80910B048093BB002C
:1006200085E88093BC00D8CF80910C04882331F0FA
:1006300090910F04809110049817A0F010920E046E
:1006400010920D0410920F0485E98093BC008BCFAB
:1006500080910C048823A1F090910F0480911004E4
:10066000981770F485EA8093BC007DCF10920E0439
:1006700010920D0410920F0485E98093BC00ACCF5A
:1006800085E88093BC006FCF109280008CE080934F
:100690008100109285001092840082E19AE7909385
:1006A00089008093880022E020936F0010929000D0
:1006B00089E080939100109295001092940080EC54
:1006C00093E090939900809398002093710008958F
:1006D0001F920F920FB60F9211248F938091FE03F9
:1006E0008F5F8093FE038091FE03823029F481E0C6
:1006F0008093FD031092FE038F910F900FBE0F9019
:100700001F9018951F920F920FB60F9211248F937E
:100710009F93AF93BF938091F9039091FA03A091B7
:10072000FB03B091FC030196A11DB11D8093F90359
:100730009093FA03A093FB03B093FC03BF91AF9196
:100740009F918F910F900FBE0F901F90189580B3BF
:10075000817F80BB8AEC96E2ABE9B2E4809392049D
:1007600090939304A0939404B09395040895BC01CE
:100770008091B9008E7F8093B9008091B9008D7F00
:100780008093B90080EA9FE00E946D3E603130F0B6
:10079000862F90E0409795958795682F6093B800D5
:1007A00008953C9A84EA8093BC00089584E980937C
:1007B000BC000895E0EAFFE03197F1F73C9A80939E
:1007C000BB0084E88093BC000895882339F48091AD
:1007D000BC008F7080688093BC0008958091BC003D
:1007E0008F70806C8093BC0008958091BB00089549
:1007F0008091B90008950895F894A895E0E6F0E096
:1008000088E1808388E6808378940895F894A89599
:1008100084B7877F84BFE0E6F0E0808188618083D1
:100820001082789408951F920F920FB60F921124A0
:100830002F933F934F935F936F938F939F9364E0B6
:1008400040E951E05C9A20E030E0CA010197F1F7FD
:100850002F5F3F4F283C3105C1F75C9820E030E026
:10086000CA010197F1F72F5F3F4F83E0203238072D
:10087000B9F7615039F79F918F916F915F914F91C7
:100880003F912F910F900FBE0F901F9018956E986B
:100890007698EAE6F0E0808180618083EE9A0895A0
:1008A000E1E7F0E080818260808381E0809303044F
:1008B0006E9A76981092F9031092FA031092FB0345
:1008C0001092FC03E1E9F0E080818160808308956B
:1008D000DF92EF92FF920F931F9380910304813078
:1008E00009F4AEC08130C0F4809191008E7F809376
:1008F00091001092F9031092FA031092FB031092E8
:10090000FC0310929500109294008EEF1F910F91AE
:10091000FF90EF90DF900895873039F080E01F91CD
:100920000F91FF90EF90DF900895109197048091C0
:1009300098048091990480919A0480919B048091FD
:100940009C0480919D0480919E0480919704309135
:1009500098048091990480919A0480919B048091DD
:100960009C0480919D0480919E0420E040E050E032
:1009700060E070E080E090E008E00E94B137D22EA5
:1009800080919704809198044091990480919A04F1
:1009900080919B0480919C0480919D0480919E0491
:1009A00020E030E050E060E070E080E090E000E1C6
:1009B0000E94B137E22E8091970480919804809133
:1009C000990450919A0480919B0480919C04809199
:1009D0009D0480919E0420E030E040E060E070E003
:1009E00080E090E008E10E94B137F22E80919704F8
:1009F000809198048091990480919A0460919B045D
:100A000080919C0480919D0480919E0420E030E0C0
:100A100040E050E070E080E090E000E20E94B137FA
:100A2000022F109203048E2D8D0D8F0D800F8117D4
:100A300091F181E01F910F91FF90EF90DF90089569
:100A40008091F9039091FA03A091FB03B091FC030C
:100A50004197A105B10508F461CF10929704109257
:100A600098041092990410929A0410929B04109288
:100A70009C0410929D0410929E04109204046E989F
:100A8000769882E08093030480E01F910F91FF909D
:100A9000EF90DF9008957E2D60E02D2D30E0622BE9
:100AA000732B882777FD8095982F0E945F3D20E06B
:100AB00030E040E251E40E94C43C60939F04709394
:100AC000A0048093A1049093A204702F60E02F2DC6
:100AD00030E0622B732B882777FD8095982F0E943A
:100AE0005F3D20E030E040E251E40E94C43C60936E
:100AF000A3047093A4048093A5049093A60481E0BA
:100B000099CFFC0180919F049091A004A091A10431
:100B1000B091A20480839183A283B3838091A304C4
:100B20009091A404A091A504B091A604FB01808338
:100B30009183A283B3830895EE9A0895EE98089561
:100B40001F920F920FB60F920BB60F9211240F93B4
:100B50002F933F934F935F936F937F938F939F93C5
:100B6000AF93BF93EF93FF9380910304843009F414
:100B7000B6C08530C8F0853009F484C0863041F1B4
:100B8000FF91EF91BF91AF919F918F917F916F9165
:100B90005F914F913F912F910F910F900BBE0F904E
:100BA0000FBE0F901F901895823009F488C08330D3
:100BB00039F78CB1829586958695817080939604DD
:100BC000809196048823E1F284E080930304D8CFD7
:100BD0008CB18295869586958170809396048091DC
:100BE0009604882369F68091F9039091FA03A09105
:100BF000FB03B091FC030097A105B10509F07FC08C
:100C000020919704309198044091990450919A044E
:100C100060919B0470919C0480919D0490919E042E
:100C200001E00E9430382093970430939804409359
:100C3000990450939A0460939B0470939C0480934E
:100C40009D0490939E04809104048F5F809304041C
:100C500080910404883208F467C087E0809303041D
:100C6000809191008E7F809391001092F9031092F1
:100C7000FA031092FB031092FC031092950010925D
:100C800094007ECF8CB182958695869581708093F5
:100C9000960480919604882309F472CF8091910084
:100CA0008160809391001092F9031092FA031092E0
:100CB000FB031092FC0386E08093030461CF8CB1A8
:100CC000829586958695817080939604809196048E
:100CD000882309F055CF83E08093030451CF8CB172
:100CE000829586958695817080939604809196046E
:100CF000882309F045CF85E08093030441CF2091FC
:100D00009704309198044091990450919A0460910D
:100D10009B0470919C0480919D0490919E0401E03D
:100D20000E94303821607FCF85E08093030498CF04
:100D3000EAE6F0E0808182608083EC9A78940895FE
:100D40008091FF0390910004109200041092FF0321
:100D500008951F920F920FB60F9211248F939F93B5
:100D60008091FF039091000401969093000480937A
:100D7000FF039F918F910F900FBE0F901F901895BA
:100D80002F923F924F925F926F927F928F929F929B
:100D9000AF92BF92CF92DF92EF92FF920F931F9389
:100DA000DF93CF93CDB7DEB728970FB6F894DEBFA9
:100DB0000FBECDBF3C012B01DA01B90190E0F30178
:100DC000E90FF11D80819F5F8C32C9F7F301E90FB4
:100DD000F11D808154E68502C00111242281280F73
:100DE00081814AE08402C0011124280F2C932381C1
:100DF00025029001112484818402C0011124280F4E
:100E0000391F8581992787FD9095280F391FDB01B0
:100E10002D933C9320E090E004C0930F2F5F92301D
:100E200060F430E0F301E20FF11D80818C32A9F70C
:100E300031E0930F2F5F9230A0F36301C20ED11CFB
:100E4000F6016081772767FD7095605370408827B1
:100E500077FD8095982F0E945F3D20E030E040E2D2
:100E600051E40E94EB3D7B018C01D60111966C91FF
:100E7000772767FD709560537040882777FD8095D0
:100E8000982F0E945F3D9B01AC01C801B7010E94F1
:100E9000603C4B015C01F201608371838283938328
:100EA000D60112966C91772767FD7095605370405C
:100EB000882777FD8095982F0E945F3D20E030E0E5
:100EC00040E251E40E94EB3D7B018C01F60163811D
:100ED000772767FD709560537040882777FD809570
:100EE000982F0E945F3D9B01AC01C801B7010E9491
:100EF000603C7B018C01D60115966C91772767FDCC
:100F0000709560537040882777FD8095982F0E94D8
:100F10005F3D2DEC3CEC4CEC5DE30E94EB3D9B0116
:100F2000AC01C801B7010E94603C7B018C01F60155
:100F30006681772767FD709560537040882777FD3D
:100F40008095982F0E945F3D2AE037ED43E25CE3F5
:100F50000E94EB3D9B01AC01C801B7010E94603CBF
:100F60007B018C01D60117966C91772767FD7095F0
:100F700060537040882777FD8095982F0E945F3DD1
:100F80002FE632E143E85AE30E94EB3D9B01AC01BE
:100F9000C801B7010E94603C7B018C01F6016085AD
:100FA000772767FD709560537040882777FD80959F
:100FB000982F0E945F3D27E137EB41ED58E30E94F7
:100FC000EB3D9B01AC01C801B7010E94603C20E0F1
:100FD00030E040E752E40E94C43C9B01AC01C501F3
:100FE000B4010E94603C9B01AC01D2016D937D93E2
:100FF0008D939C931397F6018285833509F464C21F
:1010000020E090E004C0930F2F5F943060F430E054
:10101000F301E20FF11D80818C32A9F731E0930FCB
:101020002F5F9430A0F36301C20ED11CD6016C91E6
:10103000772767FD709560537040882777FD80950E
:10104000982F0E945F3D20E030E048EC52E40E947F
:10105000EB3D7B018C01F6016181772767FD70957F
:1010600060537040882777FD8095982F0E945F3DE0
:1010700020E030E040E251E40E94EB3D9B01AC01F6
:10108000C801B7010E94603C7B018C01D601129619
:101090006C91772767FD709560537040882777FDC6
:1010A0008095982F0E945F3D9B01AC01C801B7015C
:1010B0000E94603C4B015C01F2016483758386836E
:1010C0009783D60114966C91772767FD70956053CE
:1010D0007040882777FD8095982F0E945F3D20E023
:1010E00030E040E251E40E94EB3D7B018C01F601CF
:1010F0006581772767FD709560537040882777FD7D
:101100008095982F0E945F3D9B01AC01C801B701FB
:101110000E94603C7B018C01D60117966C91772769
:1011200067FD709560537040882777FD8095982FF4
:101130000E945F3D2DEC3CEC4CEC5DE30E94EB3DEE
:101140009B01AC01C801B7010E94603C7B018C018E
:10115000F6016085772767FD70956053704088279A
:1011600077FD8095982F0E945F3D2AE037ED43E29E
:101170005CE30E94EB3D9B01AC01C801B7010E94FA
:10118000603C7B018C01D60119966C91772767FD35
:10119000709560537040882777FD8095982F0E9446
:1011A0005F3D2FE632E143E85AE30E94EB3D9B01AD
:1011B000AC01C801B7010E94603C7B018C01F601C3
:1011C0006285772767FD709560537040882777FDAB
:1011D0008095982F0E945F3D27E137EB41ED58E362
:1011E0000E94EB3D9B01AC01C801B7010E94603C2D
:1011F00020E030E040E752E40E94C43C9B01AC0197
:10120000C501B4010E94603C9B01AC01D20114965F
:101210006D937D938D939C931797F6018385873506
:1012200009F444C190E020E004C0230F9F5F2A30FE
:1012300060F430E0F301E90FF11D80818C32A9F7F1
:1012400031E0230F9F5F2A30A0F39250F301E90FA2
:10125000F11D6081329730802290B291B8878291DF
:101260008F8335968C3209F416C10F2EF0E0AF2E25
:10127000F0E0BF2EF0E8CF2EFFE3DF2EF02D369703
:1012800090819E8336969C3209F4FAC00F2EF0E0CE
:101290006F2EF0E07F2EF0E88F2EFFE39F2EF02DD3
:1012A0003797A081AD83AC3209F4E1C080E090E0D3
:1012B000A0E8BFE389839A83AB83BC83772767FD6C
:1012C000709560537040882777FD8095982F0E9415
:1012D0005F3D2DEC3CEC4CEC5DE30E94EB3D7B0173
:1012E0008C01632D772767FD7095605370408827C8
:1012F00077FD8095982F0E945F3D9B01AC01C8014E
:10130000B7010E94603C7B018C01622D772767FD4D
:10131000709560537040882777FD8095982F0E94C4
:101320005F3D20E030E040E251E40E94EB3D9B0154
:10133000AC01C801B7010E94603C7B018C0198851B
:10134000692F772767FD709560537040882777FD78
:101350008095982F0E945F3D20E030E048EC52E4F9
:101360000E94EB3D9B01AC01C801B7010E94603CAB
:101370007B018C01AF816A2F772767FD70956053E1
:101380007040882777FD8095982F0E945F3D20E070
:1013900030E04AE754E40E94EB3DA60195010E942B
:1013A000EB3D9B01AC01C801B7010E94603C7B0191
:1013B0008C01BE816B2F772767FD7095605370405D
:1013C000882777FD8095982F0E945F3D20E030E4CC
:1013D0004CE156E40E94EB3DA40193010E94EB3DD9
:1013E0009B01AC01C801B7010E94603C7B018C01EC
:1013F000ED816E2F772767FD7095605370408827C9
:1014000077FD8095982F0E945F3D20E030E543EC0A
:1014100057E40E94EB3D29813A814B815C810E9417
:10142000EB3D9B01AC01C801B7010E94603CD201B9
:1014300018966D937D938D939C931B9728960FB66A
:10144000F894DEBF0FBECDBFCF91DF911F910F91FA
:10145000FF90EF90DF90CF90BF90AF909F908F90D4
:101460007F906F905F904F903F902F90089580E015
:1014700090E0A0E0B0E089839A83AB83BC831ECF69
:101480000F2EF0E06F2EF0E07F2EF0E08F2EF0E0D8
:101490009F2EF02D05CF0F2EF0E0AF2EF0E0BF2EE7
:1014A000F0E0CF2EF0E0DF2EF02DE9CE60E070E02E
:1014B00084EB93E40E945F3CD20114966D937D937C
:1014C0008D939C931797AECEDA01C901B058F20103
:1014D00080839183A283B38393CD0F931F93082FAF
:1014E000142F80910D0490910E04892B09F0FFCFE9
:1014F000413120F08FEF1F910F91089522E834E0E1
:1015000030930E0420930D0480E180931004C901F0
:1015100050E00E94A13F000F00930B0410920C04B6
:10152000123038F485EA8093BC0080E01F910F915F
:10153000089581E080930C0485EA8093BC0080E0EC
:10154000F5CFAB01BC0189E090E00E94E240089534
:10155000AB01BC0181E090E00E94E240089585E08B
:1015600090E00E94CE40089585E090E00E94CE4039
:10157000AB01BC014F5F5F4F6F4F7F4F85E090E045
:101580000E94E240089581E090E00E94CE400895DC
:1015900080E090E00E94C6400895682F80E090E0CF
:1015A0000E94D44008958091BC0087FD0FC020E0C8
:1015B00030E003C02A35310551F02F5F3F4F809155
:1015C000BC0087FFF7CF293531050CF4089580E082
:1015D00091E00E9402400895AF92BF92CF92DF92B5
:1015E000EF92FF920F931F93DF93CF93CDB7DEB7A8
:1015F000C055D0400FB6F894DEBF0FBECDBF8C01F2
:101600007B016A018FEF03C0815009F488C04499BF
:10161000FBCFBE016F5F7F4F80E5FB0111928A9582
:10162000E9F732E0A32EB12CAC0EBD1E9E012F5A5D
:101630003F4F4499FECF909117048091160498175C
:10164000D1F3809116048F5F809316048091160465
:10165000883210F010921604E0911804F0911904E9
:1016600080911604E80FF11D80818983843209F787
:10167000D50190911704809116049817D1F38091A9
:1016800016048F5F8093160480911604883210F040
:1016900010921604E0911804F09119048091160438
:1016A000E80FF11D80818C938A3021F01196A217EA
:1016B000B307F9F640E090E004C0950F4F5F963015
:1016C00060F450E0FB01E40FF11D80818C32A9F73A
:1016D00051E0950F4F5F9630A0F3FB01E40FF11D31
:1016E0008081803309F4A5CF4499A3CFCB01B80101
:1016F000A70196010E94C00680E0C05BDF4F0FB6D5
:10170000F894DEBF0FBECDBFCF91DF911F910F9137
:10171000FF90EF90DF90CF90BF90AF9008958FEF44
:10172000ECCF90911704809116049817D1F3809113
:1017300016048F5F8093160480911604883210F08F
:1017400010921604E0911804F09119048091160487
:10175000E80FF11D8081089598B1660F660F660F3E
:10176000977F962B98B940989CB59C7F91609CBDC3
:101770009DB591609DBD8EBD0DB407FEFDCF8EB5AC
:10178000409A08958CB58C7F82608CBD8DB58E7F1C
:101790008DBD8FEF8EBD0DB407FEFDCF8EB50895C4
:1017A000EF92FF920F931F93282F4115510509F4D3
:1017B0004AC0EE24FF248701E0E0F0E080917C0045
:1017C000807E80937C0080917C00822B80937C00C3
:1017D00080917A0086FDFCCF662359F580917C00CC
:1017E000806280937C0080917A00806480937A008C
:1017F00080917A0086FDFCCF662309F18091780004
:1018000090917900A0E0B0E0E80EF91E0A1F1B1FBE
:101810003196E417F50790F29A0140E050E0C801D4
:10182000B7010E94813EC9011F910F91FF90EF9077
:10183000089580917C008F7D80937C00D4CF80912F
:10184000790090E0DFCFEE24FF248701E5CFEF920F
:10185000FF920F931F9379018A0190917C00907EF3
:1018600090937C0090917C00982B90937C008091C9
:101870007A0086FDFCCF662331F580917C00806282
:1018800080937C0080917A00806480937A008091BC
:101890007A0086FDFCCF6623E1F02091780030913C
:1018A000790040E050E0C801B7010E944E3E2FEFA2
:1018B00033E040E050E00E94813EC9011F910F914A
:1018C000FF90EF90089580917C008F7D80937C0045
:1018D000D9CF2091790030E040E050E0C801B70155
:1018E0000E944E3E2FEF30E040E050E00E94813EEB
:1018F000C9011F910F91FF90EF900895DC012C9189
:10190000809113048F5F80931304809113048034BB
:1019100010F0109213049091120480911304981700
:10192000D1F3E0911404F091150480911304E80FB1
:10193000F11D20838091C90080628093C9008C9141
:10194000882311F01196DBCF0895DC012C91809152
:1019500013048F5F8093130480911304803410F07C
:101960001092130490911204809113049817D1F3EC
:10197000E0911404F091150480911304E80FF11D17
:1019800020838091C90080628093C900662311F092
:101990006150DCCF0895DC016115710551F120E043
:1019A00030E0FD01E20FF31F4081809113048F5F4F
:1019B0008093130480911304803410F01092130468
:1019C00090911204809113049817D1F3E0911404BC
:1019D000F091150480911304E80FF11D408380916C
:1019E000C90080628093C9002F5F3F4F26173707D9
:1019F000C0F20895EF92FF920F931F93CF93DF935E
:101A0000EC018B017A0120E030E040E050E060E042
:101A100070E080917C00807E80937C0080917C00CF
:101A2000816080937C0080917A0086FDFCCF80915C
:101A30007C008F7D80937C0080917A00806480930D
:101A40007A0080917A0086FDFCCF80917800909199
:101A50007900A0E0B0E0280F391F4A1F5B1F6F5FBD
:101A60007F4F65307105A9F6CA01B90125E030E064
:101A700040E050E00E94813E3983288320E030E03E
:101A800040E050E060E070E080917C00807E8093D8
:101A90007C0080917C00826080937C0080917A0041
:101AA00086FDFCCF80917C008F7D80937C008091AF
:101AB0007A00806480937A0080917A0086FDFCCF62
:101AC0008091780090917900A0E0B0E0280F391F54
:101AD0004A1F5B1F6F5F7F4F65307105A9F6CA0112
:101AE000B90125E030E040E050E00E94813EF8017D
:101AF0003183208320E030E040E050E060E070E09F
:101B000080917C00807E80937C0080917C0083604B
:101B100080937C0080917A0086FDFCCF80917C00D0
:101B20008F7D80937C0080917A00806480937A001E
:101B300080917A0086FDFCCF8091780090917900A9
:101B4000A0E0B0E0280F391F4A1F5B1F6F5F7F4F77
:101B500065307105A9F6CA01B90125E030E040E021
:101B600050E00E94813EF70131832083DF91CF91C5
:101B70001F910F91FF90EF900895282F80911304EB
:101B80008F5F8093130480911304803410F01092BF
:101B9000130490911204809113049817D1F3E091EB
:101BA0001404F091150480911304E80FF11D2083B3
:101BB0008091C90080628093C900089580917C0063
:101BC000807E80937C0080917C0080937C0080915B
:101BD0007A0086FDFCCF80917C008F7D80937C0015
:101BE00080917A00806480937A0080917A0086FDEB
:101BF000FCCF609178007091790080E090E028E857
:101C000033E140E050E00E944E3E2FEF33E040E0F1
:101C100050E00E94813EB901660F771FC901880F0D
:101C2000991F880F991F880F991F680F791F620FDE
:101C3000731FCB010895E9EBF0E080818E7F8083F4
:101C400080818D7F80838CE08093B800ECEBF0E0A6
:101C5000808184608083089520E030E0439A40983A
:101C60008CB58C7F81608CBD8DB581608DBD1EBCB7
:101C70000DB407FEFDCF8EB5409A2F5F3F4F82E037
:101C8000203A380759F7089587B18B6087B988B132
:101C9000836088B94198419A229A2398219A8CB5F9
:101CA0008F7D80618CBD8CB580648CBD43984098DD
:101CB0008CB58C7F81608CBD8DB581608DBD81E2DE
:101CC0008EBD0DB407FEFDCF8EB5409A4398409867
:101CD0008CB58C7F81608CBD8DB581608DBD8FECA6
:101CE0008EBD0DB407FEFDCF8EB5409A4398409847
:101CF0008CB58C7F81608CBD8DB581608DBD80E29F
:101D00008EBD0DB407FEFDCF8EB5409A4398409826
:101D10008CB58C7F81608CBD8DB581608DBD8CE074
:101D20008EBD0DB407FEFDCF8EB5409A4398409806
:101D30008CB58C7F81608CBD8DB581608DBD80E858
:101D40008EBD0DB407FEFDCF8EB5409A43984098E6
:101D50008CB58C7F81608CBD8DB581608DBD80E43C
:101D60008EBD0DB407FEFDCF8EB5409A0895982F15
:101D7000439A40988CB58C7F81608CBD8DB5816015
:101D80008DBD1EBC0DB407FEFDCF8EB5409A892FC8
:101D900090E08097FC01EE0FFF1FEE0FFF1FE80F92
:101DA000F91FE95EFD4F20E030E08081439A4098C2
:101DB0009CB59C7F91609CBD9DB591609DBD8EBD85
:101DC0000DB407FEFDCF8EB5409A2F5F3F4F319681
:101DD0002530310551F7439A40988CB58C7F81604E
:101DE0008CBD8DB581608DBD1EBC0DB407FEFDCFD1
:101DF0008EB5409A08950F931F93182F3C9A84EA4A
:101E00008093BC008091BC0087FD11C020E030E0D1
:101E100004C02A35310509F4E0C02F5F3F4F80919F
:101E2000BC0087FFF6CF293531050CF0D6C080EA1B
:101E30009FE00197F1F73C9A8EEE8093BB0084E817
:101E40008093BC008091BC0087FD11C020E030E091
:101E500004C02A35310509F4E3C02F5F3F4F80915C
:101E6000BC0087FFF6CF293531050CF0D9C080EAD8
:101E70009FE00197F1F73C9A1093BB0084E88093B0
:101E8000BC008091BC0087FD11C020E030E004C0A0
:101E90002A35310509F4BFC02F5F3F4F8091BC0048
:101EA00087FFF6CF293531050CF0B5C03C9A84EA9E
:101EB0008093BC0080EA9FE00197F1F73C9A8FEE97
:101EC0008093BB0084E88093BC008091BC0087FDB8
:101ED00011C020E030E004C02A35310509F496C075
:101EE0002F5F3F4F8091BC0087FFF6CF293531052A
:101EF0000CF08CC08091BC008F70806C8093BC0013
:101F00008091BC0087FD11C020E030E004C02A357C
:101F1000310509F476C02F5F3F4F8091BC0087FFE9
:101F2000F6CF293531050CF06CC00091BB008091D3
:101F3000BC0087FD11C020E030E004C02A35310527
:101F400009F45AC02F5F3F4F8091BC0087FFF6CF46
:101F5000293531050CF050C08091BC008F7080682D
:101F60008093BC008091BC0087FD0FC020E030E072
:101F700003C02A353105D9F12F5F3F4F8091BC0056
:101F800087FFF7CF2935310594F51091BB0080917B
:101F9000BC0087FD0FC020E030E003C02A353105CA
:101FA00009F12F5F3F4F8091BC0087FFF7CF2935A4
:101FB0003105C4F484E98093BC00202F332727FD2A
:101FC0003095322F2227812F992787FD9095282B36
:101FD000392BC9011F910F91089580E091E00E9473
:101FE000024025CF80E091E00E940240E3CF80E0F4
:101FF00091E00E940240C9CF80E091E00E9402403F
:10200000ABCF80E091E00E9402408FCF80E091E072
:102010000E9402406FCF80E091E00E94024046CFD4
:1020200080E091E00E94024022CF3C9A84EA8093B3
:10203000BC008091BC0087FD11C020E030E004C0EE
:102040002A35310509F476C02F5F3F4F8091BC00DF
:1020500087FFF6CF293531050CF06CC080EA9FE090
:102060000197F1F73C9A8EEE8093BB0084E8809351
:10207000BC008091BC0087FD11C020E030E004C0AE
:102080002A35310509F465C02F5F3F4F8091BC00B0
:1020900087FFF6CF293531050CF05BC080EA9FE061
:1020A0000197F1F73C9A84EF8093BB0084E880931A
:1020B000BC008091BC0087FD10C020E030E004C06F
:1020C0002A35310509F440C02F5F3F4F8091BC0095
:1020D00087FFF6CF29353105BCF580EA9FE00197EF
:1020E000F1F73C9A84E38093BB0084E88093BC00C2
:1020F0008091BC0087FD0FC020E030E003C02A358E
:102100003105E9F02F5F3F4F8091BC0087FFF7CF8B
:1021100029353105A4F484E98093BC0080E49CE96E
:102120000197F1F786EF0E94FB0E40E050E0BC0102
:10213000CA01089580E091E00E9402408FCF80E0C4
:1021400091E00E940240E7CF80E091E00E940240CF
:10215000C4CF80E091E00E940240A0CF3C9A84EA84
:102160008093BC008091BC0087FD11C020E030E06E
:1021700004C02A35310509F479C02F5F3F4F8091A3
:10218000BC0087FFF6CF293531050CF06FC080EA1F
:102190009FE00197F1F73C9A8EEE8093BB0084E8B4
:1021A0008093BC008091BC0087FD11C020E030E02E
:1021B00004C02A35310509F468C02F5F3F4F809174
:1021C000BC0087FFF6CF293531050CF05EC080EAF0
:1021D0009FE00197F1F73C9A84EF8093BB0084E87D
:1021E0008093BC008091BC0087FD10C020E030E0EF
:1021F00004C02A35310509F443C02F5F3F4F809159
:10220000BC0087FFF6CF29353105D4F580EA9FE081
:102210000197F1F73C9A8EE28093BB0084E88093AB
:10222000BC008091BC0087FD0FC020E030E003C0FF
:102230002A35310501F12F5F3F4F8091BC0087FFA8
:10224000F7CF29353105BCF484E98093BC0080E4E4
:102250009CE90197F1F786EF0E94FB0E9C01442751
:1022600037FD4095542FB901CA01089580E091E0EF
:102270000E9402408CCF80E091E00E940240E4CFB7
:1022800080E091E00E940240C1CF80E091E00E9496
:1022900002409DCF8AEA0E94FB0E9093DF06809356
:1022A000DE068CEA0E94FB0E9093E7068093E6061A
:1022B0008EEA0E94FB0E9093F0068093EF0680EB6F
:1022C0000E94FB0E9093EB068093EA0682EB0E943D
:1022D000FB0E9093E5068093E40684EB0E94FB0ED0
:1022E0009093E3068093E20686EB0E94FB0E9093A8
:1022F000E1068093E00688EB0E94FB0E9093A8060F
:102300008093A7068AEB0E94FB0E9093AE06809303
:10231000AD068CEB0E94FB0E9093EE068093ED06CB
:102320008EEB0E94FB0E9093E9068093E8060895D9
:10233000982F843510F5683000F5906843984098E0
:102340008CB58C7F81608CBD8DB581608DBD9EBD4F
:102350000DB407FEFDCF8EB5409A60644398409857
:102360008CB58C7F81608CBD8DB581608DBD6EBD5F
:102370000DB407FEFDCF8EB5409A08952F923F927F
:102380004F925F926F927F928F929F92AF92BF9285
:10239000CF92DF92EF92FF920F931F93DF93CF9331
:1023A00000D000D000D0CDB7DEB74C017E836D8366
:1023B0003C9A84EA8093BC008091BC0087FD11C0E8
:1023C00020E030E004C02A35310509F48BC32F5FCB
:1023D0003F4F8091BC0087FFF6CF293531050CF0C7
:1023E00081C380EA9FE00197F1F73C9A8EEE8093DB
:1023F000BB0084E88093BC008091BC0087FD11C0C5
:1024000020E030E004C02A35310509F4B6C32F5F5F
:102410003F4F8091BC0087FFF6CF293531050CF086
:10242000ACC380EA9FE00197F1F73C9A84EF809378
:10243000BB0084E88093BC008091BC0087FD11C084
:1024400020E030E004C02A35310509F491C32F5F44
:102450003F4F8091BC0087FFF6CF293531050CF046
:1024600087C380EA9FE00197F1F73C9A8EE2809360
:10247000BB0084E88093BC008091BC0087FD11C044
:1024800020E030E004C02A35310509F46CC32F5F29
:102490003F4F8091BC0087FFF6CF293531050CF006
:1024A00062C384E98093BC0080E49CE90197F1F762
:1024B00086EF0E94FB0E3C9A84EA8093BC008091D8
:1024C000BC0087FD11C020E030E004C02A35310592
:1024D00009F444C32F5F3F4F8091BC0087FFF6CFC4
:1024E000293531050CF03AC380EA9FE00197F1F7F6
:1024F0003C9A8EEE8093BB0084E88093BC00809170
:10250000BC0087FD11C020E030E004C02A35310551
:1025100009F41FC32F5F3F4F8091BC0087FFF6CFA8
:10252000293531050CF015C380EA9FE00197F1F7DA
:102530003C9A84EF8093BB0084E88093BC00809138
:10254000BC0087FD11C020E030E004C02A35310511
:1025500009F4FAC22F5F3F4F8091BC0087FFF6CF8E
:10256000293531050CF0F0C280EA9FE00197F1F7C0
:102570003C9A8EE28093BB0084E88093BC008091FB
:10258000BC0087FD11C020E030E004C02A353105D1
:1025900009F4D5C22F5F3F4F8091BC0087FFF6CF73
:1025A000293531050CF0CBC284E98093BC0080E46E
:1025B0009CE90197F1F786EF0E94FB0E6C013C9AB3
:1025C00084EA8093BC008091BC0087FD11C020E0AC
:1025D00030E004C02A35310509F4ACC22F5F3F4F0B
:1025E0008091BC0087FFF6CF293531050CF0A2C2DF
:1025F00080EA9FE00197F1F73C9A8EEE8093BB0052
:1026000084E88093BC008091BC0087FD11C020E06D
:1026100030E004C02A35310509F487C22F5F3F4FEF
:102620008091BC0087FFF6CF293531050CF07DC2C3
:1026300080EA9FE00197F1F73C9A84EF8093BB001A
:1026400084E88093BC008091BC0087FD11C020E02D
:1026500030E004C02A35310509F462C22F5F3F4FD4
:102660008091BC0087FFF6CF293531050CF058C2A8
:1026700080EA9FE00197F1F73C9A84E38093BB00E6
:1026800084E88093BC008091BC0087FD11C020E0ED
:1026900030E004C02A35310509F43DC22F5F3F4FB9
:1026A0008091BC0087FFF6CF293531050CF033C28D
:1026B00084E98093BC0080E49CE90197F1F786EF00
:1026C0000E94FB0E3C9A84EA8093BC008091BC007F
:1026D00087FD11C020E030E004C02A35310509F43F
:1026E00015C22F5F3F4F8091BC0087FFF6CF293581
:1026F00031050CF00BC280EA9FE00197F1F73C9A9C
:102700008EEE8093BB0084E88093BC008091BC0077
:1027100087FD11C020E030E004C02A35310509F4FE
:10272000F0C12F5F3F4F8091BC0087FFF6CF293566
:1027300031050CF0E6C180EA9FE00197F1F73C9A81
:1027400084EF8093BB0084E88093BC008091BC0040
:1027500087FD11C020E030E004C02A35310509F4BE
:10276000CBC12F5F3F4F8091BC0087FFF6CF29354B
:1027700031050CF0C1C180EA9FE00197F1F73C9A66
:1027800084E38093BB0084E88093BC008091BC000C
:1027900087FD11C020E030E004C02A35310509F47E
:1027A000A6C12F5F3F4F8091BC0087FFF6CF293530
:1027B00031050CF09CC184E98093BC0080E49CE965
:1027C0000197F1F786EF0E94FB0E1C01B6018827E6
:1027D00077FD8095982F2091E2063091E30640E046
:1027E00050E0621B730B840B950B2091E406309133
:1027F000E50640E050E00E944E3E7B018C013FE048
:1028000015950795F794E7943A95D1F76091ED0601
:102810007091EE06882777FD8095982F2BE0660F44
:10282000771F881F991F2A95D1F72091E8063091CC
:10283000E906442737FD4095542F2E0D3F1D401FBC
:10284000511F0E94A33E59016A01AE0CBF1CC01E5D
:10285000D11E88E090E0A0E0B0E0A80EB91ECA1E2C
:10286000DB1ED601C50114E0B595A7959795879510
:102870001A95D1F7F40180839183A283B38388E50D
:1028800090EFAFEFBFEFA80EB91ECA1EDB1EC60148
:10289000B501A60195010E944E3E3B014C01ACE002
:1028A0009594879477946794AA95D1F72091EF0631
:1028B0003091F006442737FD4095542FC601B501ED
:1028C0000E944E3E7B018C01FDE015950795F79423
:1028D000E794FA95D1F782E090E0A0E0B0E0E80E4E
:1028E000F91E0A1F1B1F2091E0063091E1064427C4
:1028F00037FD4095542FC401B3010E944E3EBC01E8
:10290000992777FD9095892FE60EF71E081F191F4E
:1029100015950795F794E79415950795F794E7941F
:1029200080E090E8A0E0B0E0E80EF91E0A1F1B1F4F
:102930002091EA063091EB0640E050E0C801B70173
:102940000E944E3EDC01CB015FE0B695A7959795BE
:1029500087955A95D1F789839A83AB83BC834424A6
:102960005524E090DE06F090DF060027F7FC009586
:10297000102FEE0CFF1C001F111FEE0CFF1C001F80
:10298000111F82E090E0A0E0B0E0E80EF91E0A1FFF
:102990001B1F2091E6063091E706442737FD40953E
:1029A000542FC601B5010E944E3E3BE09595879598
:1029B000779567953A95D1F7E60EF71E081F191F10
:1029C0002091A7063091A806442737FD4095542F43
:1029D000C401B3010E944E3E2BE0959587957795F3
:1029E00067952A95D1F7E60EF71E081F191FC80133
:1029F000B70124E030E040E050E00E94A33E221AFC
:102A0000330A440A550AC201B10120E533EC40E023
:102A100050E00E944E3E97FDB5C0660F771F881F9D
:102A2000991F29813A814B815C810E94813EC901B5
:102A3000DA015C016D015527D7FC5A954D2D3C2DCF
:102A40002B2DCA01B9010E944E3E2EED3BE040E025
:102A500050E00E944E3E7B018C01C601B50123E48B
:102A600033EE4FEF5FEF0E944E3EBC01992777FD9A
:102A70009095892F6153714F8F4F9F4F7801112788
:102A8000F7FC1095012F6E0D7F1D801F911FE4E054
:102A90009595879577956795EA95D1F76A0D7B1D92
:102AA0008C1D9D1DAD81BE816D937D938D939C93F7
:102AB000139726960FB6F894DEBF0FBECDBFCF9109
:102AC000DF911F910F91FF90EF90DF90CF90BF901B
:102AD000AF909F908F907F906F905F904F903F90BE
:102AE0002F90089580E091E00E9402407ACC80E02F
:102AF00091E00E9402405FCE80E091E00E9402409F
:102B00003ACE80E091E00E94024015CE80E091E054
:102B10000E940240F0CD80E091E00E940240C8CDCA
:102B200080E091E00E940240A3CD80E091E00E940D
:102B300002407ECD80E091E00E94024059CD80E0CD
:102B400091E00E94024030CD80E091E00E9402407E
:102B50000BCD80E091E00E940240E6CC80E091E065
:102B60000E940240C1CC80E091E00E94024099CCDA
:102B700080E091E00E94024074CC80E091E00E94ED
:102B800002404FCC29813A814B815C810E94813E79
:102B900059016A01AA0CBB1CCC1CDD1C4CCF9C014A
:102BA000CB01B9010E94BE110895DF93CF93CDB739
:102BB000DEB7C754D0400FB6F894DEBF0FBECDBF0E
:102BC000F8941092130480911304809312041092CD
:102BD000170480911704809316048AE194E090937F
:102BE0001504809314048AE594E09093190480936B
:102BF00018048FEC90E09093CD008093CC0082E09D
:102C00008093C80080E88093C9008091C9008861E2
:102C10008093C90086E08093CA007894DE01119603
:102C2000E3E1F1E083E101900D928150E1F7298128
:102C3000222321F1DE011296809113048F5F80938D
:102C4000130480911304803410F0109213049091B7
:102C50001204809113049817D1F3E0911404F091B9
:102C6000150480911304E80FF11D20838091C900A1
:102C700080628093C9002D912223F1F6DE015496E3
:102C8000E6E2F1E084E301900D928150E1F72C89B6
:102C9000222321F1DE015596809113048F5F8093EA
:102CA000130480911304803410F010921304909157
:102CB0001204809113049817D1F3E0911404F09159
:102CC000150480911304E80FF11D20838091C90041
:102CD00080628093C9002D912223F1F6C95BDF4FFA
:102CE0000FB6F894DEBF0FBECDBFCF91DF91089530
:102CF0004F925F926F927F928F929F92AF92BF920C
:102D0000CF92DF92EF92FF920F931F93CF93DF93B7
:102D1000FF240AE511E081E35AE1C52E54E0D52EE7
:102D20004AE5A42E44E0B42E30EB832E34E0932EFB
:102D3000612C2BE4722E92E0E92EB0E85B2EA6E027
:102D40004A2EC0E9D1E081340CF075C1682F605380
:102D50006C3008F075C1862F90E001979401082E21
:102D600002C0220F331F0A94E2F70697F30102C054
:102D7000EE0FFF1F8A95E2F740E050E0673010F059
:102D800041E050E0E49FC001E59F900DF49F900D5D
:102D90001124281B390B442737FD4095542F220F4F
:102DA000331F441F551F220F331F441F551F60E060
:102DB00074E284EF90E00E94813EC901DA0101973C
:102DC000A109B109B695A795979587959C01F894A7
:102DD000109213048091130480931204109217042C
:102DE0008091170480931604D0921504C0921404A5
:102DF000B0921904A09218043093CD002093CC0017
:102E0000E092C8005092C9008091C9008861809307
:102E1000C9004092CA00789430E021E48091130404
:102E20008F5F8093130480911304803410F010920C
:102E3000130490911204809113049817D1F3E09138
:102E40001404F091150480911304E80FF11D208300
:102E50008091C90080628093C9003F5FE32FF0E05A
:102E6000E959FE4F20812223C9F620E030E0CE014F
:102E70000197F1F72F5F3F4F87E0203D3807B9F703
:102E8000F80180818093110445E0909117048091AE
:102E900016049817D0F09091170480911604981B8F
:102EA000D9F44423B9F120E030E0CE010197F1F7E5
:102EB0002F5F3F4FF3E0283E3F07B9F74150909115
:102EC000170480911604981730F790911704809199
:102ED0001604985D981B29F34423E1F090911704A0
:102EE000809116049817D1F3809116048F5F809318
:102EF000160480911604883210F010921604E091A6
:102F00001804F091190480911604E80FF11D8081D6
:102F10008F3451F0F3940F2D10E0065A1E4FF80134
:102F20008081882309F00FCF8091110481340CF047
:102F300093C0282F20532C3008F085C0822F90E0BA
:102F4000019760EB74E0082E02C0660F771F0A94A9
:102F5000E2F7069740E05BE402C0440F551F8A95F4
:102F6000E2F780E090E0273010F081E090E0489FA9
:102F70009001499F300D589F300D1124CB01821BC9
:102F8000930B7C010027F7FC0095102FA8019701F7
:102F9000220F331F441F551F220F331F441F551F7D
:102FA00060E074E284EF90E00E94813EC901DA01A2
:102FB0000197A109B109B695A795979587959C01A9
:102FC000F8941092130480911304809312041092C9
:102FD00017048091170480931604D0921504C092B0
:102FE0001404B0921904A09218043093CD002093D9
:102FF000CC0082E08093C80080E88093C900809173
:10300000C90088618093C90086E08093CA007894E3
:10301000B701C801DF91CF911F910F91FF90EF9001
:10302000DF90CF90BF90AF909F908F907F906F90E8
:103030005F904F900895682F67536C3008F48BCEE3
:1030400020E030E0C4CEE12C78E1F72E75E1072FC7
:10305000112D20E030E0B4CF282F27536CCFCF9331
:10306000DF93DC01EB0184B1806384B92C9A2D9A43
:1030700020E030E060E971E0CB010197F1F72F5FCC
:103080003F4F83E0283E3807B9F72C9820E030E026
:1030900060E971E0CB010197F1F72F5F3F4F8DE1C0
:1030A0002C343807B9F730E021E4809113048F5FA6
:1030B0008093130480911304803410F01092130451
:1030C00090911204809113049817D1F3E0911404A5
:1030D000F091150480911304E80FF11D2083809175
:1030E000C90080628093C9003F5FE32FF0E0E6599A
:1030F000FE4F20812223C9F62C91222339F130E0A2
:10310000809113048F5F80931304809113048034A3
:1031100010F01092130490911204809113049817E8
:10312000D1F3E0911404F091150480911304E80F99
:10313000F11D20838091C90080628093C9003F5FA8
:10314000FD01E30FF11D20812223D1F620E030E0C4
:1031500060E971E0CB010197F1F72F5F3F4F8DE1FF
:103160002C343807B9F730E021E4809113048F5FE5
:103170008093130480911304803410F01092130490
:1031800090911204809113049817D1F3E0911404E4
:10319000F091150480911304E80FF11D20838091B4
:1031A000C90080628093C9003F5FE32FF0E0EE58D2
:1031B000FE4F20812223C9F62881222339F130E0F5
:1031C000809113048F5F80931304809113048034E3
:1031D00010F0109213049091120480911304981728
:1031E000D1F3E0911404F091150480911304E80FD9
:1031F000F11D20838091C90080628093C9003F5FE8
:10320000FE01E30FF11D20812223D1F620E030E002
:1032100060E971E0CB010197F1F72F5F3F4F8DE13E
:103220002C343807B9F730E021E4809113048F5F24
:103230008093130480911304803410F010921304CF
:1032400090911204809113049817D1F3E091140423
:10325000F091150480911304E80FF11D20838091F3
:10326000C90080628093C9003F5FE32FF0E0E75818
:10327000FE4F20812223C9F6809113048F5F809333
:10328000130480911304803410F010921304909171
:103290001204809113049817D1F3E0911404F09173
:1032A000150480911304E80FF11D40838091C9003B
:1032B00080628093C90020E030E060E971E0CB01DA
:1032C0000197F1F72F5F3F4F8DE12C343807B9F7A5
:1032D0002D982C9A20E030E060E971E0CB01019755
:1032E000F1F72F5F3F4F83E0283E3807B9F72C985E
:1032F000409311048091110481340CF071C0E82FC7
:10330000E053EC3008F071C08E2F90E0019720EB75
:1033100034E0082E02C0220F331F0A94E2F706970A
:1033200040E05BE402C0440F551F8A95E2F760E07D
:1033300070E0E73008F05CC0469FC001479F900DE9
:10334000569F900D1124281B390B442737FD4095BB
:10335000542F220F331F441F551F220F331F441FAA
:10336000551F60E074E284EF90E00E94813EC90145
:10337000DA010197A109B109B695A79597958795A7
:103380009C01F8941092130480911304809312040A
:103390001092170480911704809316048AE194E038
:1033A00090931504809314048AE594E09093190493
:1033B000809318043093CD002093CC0082E080935A
:1033C000C80080E88093C9008091C900886180931B
:1033D000C90086E08093CA007894DF91CF91089568
:1033E000E82FE753EC3008F48FCF20E030E0C9CF6E
:1033F00061E070E0A1CFDC019C91992309F447C002
:103400001196439A40988CB58C7F81608CBD8DB5A8
:1034100081608DBD1EBC0DB407FEFDCF8EB5409AF8
:10342000892F90E08097FC01EE0FFF1FEE0FFF1F2A
:10343000E80FF91FE95EFD4F20E030E08081439AFC
:1034400040989CB59C7F91609CBD9DB591609DBD51
:103450008EBD0DB407FEFDCF8EB5409A2F5F3F4F56
:1034600031962530310551F7439A40988CB58C7FC1
:1034700081608CBD8DB581608DBD1EBC0DB407FE15
:10348000FDCF8EB5409A9C91992309F0B9CF08954C
:103490002F923F924F925F926F927F928F929F9264
:1034A000AF92BF92CF92DF92EF92FF920F931F9352
:1034B000CF93DF93EC012B011A0140E050E060E074
:1034C00070E020E030E080917C00807E80937C0082
:1034D00080917C00816080937C0080917A0086FDE1
:1034E000FCCF80917C008F7D80937C0080917A005E
:1034F000806480937A0080917A0086FDFCCF809171
:10350000780090917900A0E0B0E0480F591F6A1F41
:103510007B1F2F5F3F4F25303105A9F6AA24BB241E
:10352000650120E030E080917C00807E80937C000B
:1035300080917C00826080937C0080917A0086FD7F
:10354000FCCF80917C008F7D80937C0080917A00FD
:10355000806480937A0080917A0086FDFCCF809110
:10356000780090917900A0E0B0E0A80EB91ECA1EC4
:10357000DB1E2F5F3F4F25303105A9F6EE24FF24D7
:10358000870120E030E080917C00807E80937C0089
:1035900080917C00836080937C0080917A0086FD1E
:1035A000FCCF80917C008F7D80937C0080917A009D
:1035B000806480937A0080917A0086FDFCCF8091B0
:1035C000780090917900A0E0B0E0E80EF91E0A1FA3
:1035D0001B1F2F5F3F4F25303105A9F6CB01BA01E4
:1035E00025E030E040E050E00E94813E442737FD76
:1035F0004095542FCA01B9010E945F3D23E333E394
:1036000043E550E40E94EB3D20E030E040E85AE31F
:103610000E94EB3D26EF38E24CE95FE30E945F3CFD
:1036200020E030E040E850E40E94EB3D3B014C01DB
:10363000C601B50125E030E040E050E00E94813E47
:10364000442737FD4095542FCA01B9010E945F3DC0
:1036500023E333E343E550E40E94EB3D20E030E018
:1036600040E85AE30E94EB3D26EF38E24CE95FE385
:103670000E945F3C20E030E040E850E40E94EB3DD7
:103680005B016C01C801B70125E030E040E050E08B
:103690000E94813E442737FD4095542FCA01B9014D
:1036A0000E945F3D23E333E343E550E40E94EB3D9A
:1036B00020E030E040E85AE30E94EB3D20E030E0BB
:1036C00040EA5FE30E945F3C20E030E040E850E4E5
:1036D0000E94EB3D7B018C01C401B30127E339E873
:1036E00049E650E40E94603C20E030E04AE754E4C0
:1036F0000E94EB3D0E942C3D209105043091060470
:10370000620F731F79836883C601B50127E339E827
:1037100049E650E40E94603C20E030E04AE754E48F
:103720000E94EB3D0E942C3D20910704309108043B
:10373000620F731FF20171836083C801B7012CE42B
:1037400037E341E750E40E94603C20E030E04AE784
:1037500054E40E94EB3D0E942C3D209109043091DD
:103760000A04620F731FF10171836083DF91CF91AF
:103770001F910F91FF90EF90DF90CF90BF90AF908F
:103780009F908F907F906F905F904F903F902F9081
:1037900008956F927F928F929F92AF92BF92CF9235
:1037A000DF92EF92FF920F931F93CF93DF93EC0181
:1037B0004B013A0140E050E060E070E020E030E092
:1037C00080917C00807E80937C0080917C00816071
:1037D00080937C0080917A0086FDFCCF80917C00F4
:1037E0008F7D80937C0080917A00806480937A0042
:1037F00080917A0086FDFCCF8091780090917900CD
:10380000A0E0B0E0480F591F6A1F7B1F2F5F3F4F9A
:1038100025303105A9F6EE24FF24870120E030E0B1
:1038200080917C00807E80937C0080917C0082600F
:1038300080937C0080917A0086FDFCCF80917C0093
:103840008F7D80937C0080917A00806480937A00E1
:1038500080917A0086FDFCCF80917800909179006C
:10386000A0E0B0E0E80EF91E0A1F1B1F2F5F3F4FBC
:1038700025303105A9F6AA24BB24650120E030E0FB
:1038800080917C00807E80937C0080917C008360AE
:1038900080937C0080917A0086FDFCCF80917C0033
:1038A0008F7D80937C0080917A00806480937A0081
:1038B00080917A0086FDFCCF80917800909179000C
:1038C000A0E0B0E0A80EB91ECA1EDB1E2F5F3F4F5E
:1038D00025303105A9F6CB01BA0125E030E040E002
:1038E00050E00E94813E442737FD4095542FCA0185
:1038F000B9010E945F3D23E333E343E550E40E94B6
:10390000EB3D20E030E040E85AE30E94EB3D26EF3B
:1039100038E24CE95FE30E945F3C20E030E040E8A1
:1039200050E40E94EB3D688379838A839B83C801BE
:10393000B70125E030E040E050E00E94813E44279E
:1039400037FD4095542FCA01B9010E945F3D23E322
:1039500033E343E550E40E94EB3D20E030E040E8F3
:103960005AE30E94EB3D26EF38E24CE95FE30E9408
:103970005F3C20E030E040E850E40E94EB3DF40181
:103980006083718382839383C601B50125E030E0B3
:1039900040E050E00E94813E442737FD4095542F7F
:1039A000CA01B9010E945F3D23E333E343E550E4DC
:1039B0000E94EB3D20E030E040E85AE30E94EB3DFE
:1039C00020E030E040EA5FE30E945F3C20E030E02E
:1039D00040E850E40E94EB3DF301608371838283F1
:1039E0009383688179818A819B8127E339E849E65D
:1039F00050E40E94603C688379838A839B83F4014E
:103A0000608171818281938127E339E849E650E43E
:103A10000E94603CF4016083718382839383F3018D
:103A200060817181828193812CE437E341E750E426
:103A30000E94603CF3016083718382839383DF91F2
:103A4000CF911F910F91FF90EF90DF90CF90BF909B
:103A5000AF909F908F907F906F9008958AEA0E9418
:103A6000FB0E9093DF068093DE068CEA0E94FB0E2D
:103A70009093E7068093E6068EEA0E94FB0E9093F1
:103A8000F0068093EF0680EB0E94FB0E9093EB060E
:103A90008093EA0682EB0E94FB0E9093E5068093EA
:103AA000E40684EB0E94FB0E9093E3068093E2060B
:103AB00086EB0E94FB0E9093E1068093E00688EB74
:103AC0000E94FB0E9093A8068093A7068AEB0E94A3
:103AD000FB0E9093AE068093AD068CEB0E94FB0E1E
:103AE0009093EE068093ED068EEB0E94FB0E909372
:103AF000E9068093E80608950F931F93DF93CF9311
:103B000000D000D00F92CDB7DEB78091FF03909127
:103B10000004109200041092FF038E010F5F1F4FEC
:103B2000B8014AE050E00E94B53F439840988CB5F8
:103B30008C7F81608CBD8DB581608DBD80E88EBD30
:103B40000DB407FEFDCF8EB5409A439840988CB5D2
:103B50008C7F81608CBD8DB581608DBD82E48EBD12
:103B60000DB407FEFDCF8EB5409AA1E8B1E090916B
:103B70008101992309F447C01196439A40988CB566
:103B80008C7F81608CBD8DB581608DBD1EBC0DB4F8
:103B900007FEFDCF8EB5409A892F90E08097FC01FB
:103BA000EE0FFF1FEE0FFF1FE80FF91FE95EFD4F3D
:103BB00020E030E08081439A40989CB59C7F9160E2
:103BC0009CBD9DB591609DBD8EBD0DB407FEFDCF22
:103BD0008EB5409A2F5F3F4F31962530310551F712
:103BE000439A40988CB58C7F81608CBD8DB5816087
:103BF0008DBD1EBC0DB407FEFDCF8EB5409A9C91C5
:103C0000992309F0B9CF439840988CB58C7F816097
:103C10008CBD8DB581608DBD83EA8EBD0DB407FE70
:103C2000FDCF8EB5409A439840988CB58C7F8160CB
:103C30008CBD8DB581608DBD82E48EBD0DB407FE57
:103C4000FDCF8EB5409A9981992309F448C0D801D7
:103C50001196439A40988CB58C7F81608CBD8DB550
:103C600081608DBD1EBC0DB407FEFDCF8EB5409AA0
:103C7000892F90E08097FC01EE0FFF1FEE0FFF1FD2
:103C8000E80FF91FE95EFD4F20E030E08081439AA4
:103C900040989CB59C7F91609CBD9DB591609DBDF9
:103CA0008EBD0DB407FEFDCF8EB5409A2F5F3F4FFE
:103CB00031962530310551F7439A40988CB58C7F69
:103CC00081608CBD8DB581608DBD1EBC0DB407FEBD
:103CD000FDCF8EB5409A9C91992309F0B9CFABE8FE
:103CE000B1E090918B01992309F447C01196439A52
:103CF00040988CB58C7F81608CBD8DB581608DBD09
:103D00001EBC0DB407FEFDCF8EB5409A892F90E002
:103D10008097FC01EE0FFF1FEE0FFF1FE80FF91F4A
:103D2000E95EFD4F20E030E08081439A40989CB5E9
:103D30009C7F91609CBD9DB591609DBD8EBD0DB475
:103D400007FEFDCF8EB5409A2F5F3F4F319625304D
:103D5000310551F7439A40988CB58C7F81608CBDBA
:103D60008DB581608DBD1EBC0DB407FEFDCF8EB537
:103D7000409A9C91992309F0B9CF0F900F900F9022
:103D80000F900F90CF91DF911F910F9108950F9396
:103D90001F93DF93CF9300D000D000D0CDB7DEB714
:103DA0008B019C01BA0140988091F80380FDEDC021
:103DB000A901980189E0220F331F441F551F8A95DE
:103DC000D1F788E58983852F9927AA27BB278A837E
:103DD000CA01AA27BB278B83BB27A52F942F832F2C
:103DE0008C832D831E82DE011196FD0180E0AE01E1
:103DF0004A5F5F4F19E02081982F990F892F822702
:103E000087FD9127220F990F892F822787FD912700
:103E1000220F990F892F822787FD9127220F990F53
:103E2000892F822787FD9127220F990F892F8227BB
:103E300087FD9127322F330F292F220F822F8327BF
:103E400087FD2127932F990F220F822F892787FD26
:103E50002127822F880F990F982797FD8127319668
:103E6000E417F50709F0C7CF880F81608E83FD0145
:103E70009E01295F3F4F80819CB59C7F92609CBDD5
:103E80009DB59E7F9DBD8EBD0DB407FEFDCF8EB549
:103E90003196E217F30779F791E22FEF8CB58C7F1B
:103EA00082608CBD8DB58E7F8DBD2EBD0DB407FE9D
:103EB000FDCF8EB5913019F091508F3F79F3882363
:103EC00009F049C08CB58C7F82608CBD8DB58E7F2A
:103ED0008DBD8EEF8EBD0DB407FEFDCF8EB520E0FB
:103EE00030E0FB01E20FF31F90818CB58C7F826084
:103EF0008CBD8DB58E7F8DBD9EBD0DB407FEFDCFF3
:103F00008EB52F5F3F4F82E02030380751F78CB5D8
:103F10008C7F82608CBD8DB58E7F8DBD8FEF8EBD09
:103F20000DB407FEFDCF8EB590E22FEF8CB58C7FE0
:103F300082608CBD8DB58E7F8DBD2EBD0DB407FE0C
:103F4000FDCF8EB5992319F091508F3F79F38F7182
:103F5000853009F486C08CB58C7F82608CBD8DB5B0
:103F60008E7F8DBD8FEF8EBD0DB407FEFDCF8EB55C
:103F7000409A8FEF26960FB6F894DEBF0FBECDBFE6
:103F8000CF91DF911F910F91089588E58983832F49
:103F90009927AA27BB278A83C901AA27BB278B8316
:103FA000BB27A32F922F812F8C830D831E82DE01CE
:103FB0001196FD0180E0AE014A5F5F4F19E020815C
:103FC000982F990F892F822787FD9127220F990F0C
:103FD000892F822787FD9127220F990F892F82270A
:103FE00087FD9127220F990F892F822787FD91271F
:103FF000220F990F892F822787FD9127322F330FA8
:10400000292F220F822F832787FD2127932F990F96
:10401000220F822F892787FD2127822F880F990F52
:10402000982797FD81273196E417F50709F0C7CF48
:10403000880F81608E83FD019E01295F3F4F808143
:104040009CB59C7F92609CBD9DB59E7F9DBD8EBDA5
:104050000DB407FEFDCF8EB53196E217F30779F761
:104060001BCF8CB58C7F82608CBD8DB58E7F8DBD56
:104070008FEF8EBD0DB407FEFDCF8EB5409A80E068
:1040800079CFCF93DF932091010430910204F9019D
:10409000E955FB4F8091D6069091D706A091D8069E
:1040A000B091D90680839183A283B3832C5F3F4F65
:1040B0003093020420930104F901E955FB4F8091EC
:1040C000D2069091D306A091D406B091D5068083F4
:1040D0009183A283B383F9013496F0930204E093B1
:1040E0000104AF0149555B4F8091AF069091B00636
:1040F000A091B106B091B206EA0188839983AA83A0
:10410000BB833496F0930204E0930104AF01495558
:104110005B4F8091B3069091B406A091B506B09123
:10412000B606EA0188839983AA83BB833496F09309
:104130000204E0930104E955FB4F8091B70690918A
:10414000B80691838083F9013E96F0930204E093D0
:104150000104E955FB4F8091B9069091BA0691830D
:104160008083F9017096F0930204E0930104E9550D
:10417000FB4F8091BB069091BC0691838083F9012F
:104180007296F0930204E0930104E955FB4F80918D
:10419000BD069091BE06A091BF06B091C006808377
:1041A0009183A283B383F9017696F0930204E0939E
:1041B0000104E955FB4F8091C1069091C20691839D
:1041C0008083F9017896F0930204E0930104E955A5
:1041D000FB4F8091C3069091C406A091C506B09193
:1041E000C60680839183A283B383F9017C96F09302
:1041F0000204E0930104E955FB4F8091C7069091BA
:10420000C806A091C906B091CA0680839183A28393
:10421000B383F901B096F0930204E0930104E955E9
:10422000FB4F8091CB069091CC06A091CD06B0912A
:10423000CE0680839183A283B383F901B496F09371
:104240000204E0930104E955FB4F8091CF0680837F
:10425000F901B596F0930204E0930104E955FB4F90
:104260008091D0069091D10691838083F901E25329
:10427000FB4F8AE08083285D3F4F309302042093F8
:1042800001048091D6069091D706A091D806B091EE
:10429000D9060196A11DB11D8093D6069093D7062D
:1042A000A093D806B093D906265C314018F16091EE
:1042B000DA067091DB068091DC069091DD0647EA14
:1042C00054E00E94C71E10920204109201048091D3
:1042D000DA069091DB06A091DC06B091DD0601962E
:1042E000A11DB11D8093DA069093DB06A093DC0636
:1042F000B093DD06DF91CF9108954F925F926F9258
:104300007F928F929F92AF92BF92CF92DF92EF9265
:10431000FF920F931F9320E030E0439A40988CB5B2
:104320008C7F81608CBD8DB581608DBD1EBC0DB450
:1043300007FEFDCF8EB5409A2F5F3F4F82E0203AB7
:10434000380759F7439840988CB58C7F81608CBDB5
:104350008DB581608DBD8FE88EBD0DB407FEFDCF9C
:104360008EB5409A439840988CB58C7F81608CBD07
:104370008DB581608DBD81E48EBD0DB407FEFDCF8E
:104380008EB5409AAFE8B1E090918F01992309F47E
:1043900047C01196439A40988CB58C7F81608CBD44
:1043A0008DB581608DBD1EBC0DB407FEFDCF8EB5F1
:1043B000409A892F90E08097FC01EE0FFF1FEE0FCF
:1043C000FF1FE80FF91FE95EFD4F20E030E080811C
:1043D000439A40989CB59C7F91609CBD9DB591602F
:1043E0009DBD8EBD0DB407FEFDCF8EB5409A2F5FEB
:1043F0003F4F31962530310551F7439A40988CB59F
:104400008C7F81608CBD8DB581608DBD1EBC0DB46F
:1044100007FEFDCF8EB5409A9C91992309F0B9CF44
:10442000439840988CB58C7F81608CBD8DB5816040
:104430008DBD85E88EBD0DB407FEFDCF8EB5409ACB
:10444000439840988CB58C7F81608CBD8DB5816020
:104450008DBD83E48EBD0DB407FEFDCF8EB5409AB1
:10446000A8E9B1E090919801992309F447C0119609
:10447000439A40988CB58C7F81608CBD8DB58160EE
:104480008DBD1EBC0DB407FEFDCF8EB5409A892FA1
:1044900090E08097FC01EE0FFF1FEE0FFF1FE80F6B
:1044A000F91FE95EFD4F20E030E08081439A40989B
:1044B0009CB59C7F91609CBD9DB591609DBD8EBD5E
:1044C0000DB407FEFDCF8EB5409A2F5F3F4F31965A
:1044D0002530310551F7439A40988CB58C7F816027
:1044E0008CBD8DB581608DBD1EBC0DB407FEFDCFAA
:1044F0008EB5409A9C91992309F0B9CF4398409882
:104500008CB58C7F81608CBD8DB581608DBD80E860
:104510008EBD0DB407FEFDCF8EB5409A43984098EE
:104520008CB58C7F81608CBD8DB581608DBD84E440
:104530008EBD0DB407FEFDCF8EB5409AA4EAB1E062
:104540009091A401992309F447C01196439A409889
:104550008CB58C7F81608CBD8DB581608DBD1EBC9E
:104560000DB407FEFDCF8EB5409A892F90E080975D
:10457000FC01EE0FFF1FEE0FFF1FE80FF91FE95EB2
:10458000FD4F20E030E08081439A40989CB59C7FAD
:1045900091609CBD9DB591609DBD8EBD0DB407FE23
:1045A000FDCF8EB5409A2F5F3F4F319625303105B4
:1045B00051F7439A40988CB58C7F81608CBD8DB546
:1045C00081608DBD1EBC0DB407FEFDCF8EB5409A37
:1045D0009C91992309F0B9CF20E030E040E951E007
:1045E000CA010197F1F72F5F3F4F83E12838380761
:1045F000B9F740E050E060E070E020E030E080910A
:104600007C00807E80937C0080917C008160809320
:104610007C0080917A0086FDFCCF80917C008F7DAC
:1046200080937C0080917A00806480937A008091EE
:104630007A0086FDFCCF8091780090917900A0E00F
:10464000B0E0480F591F6A1F7B1F2F5F3F4F253077
:104650003105A9F6AA24BB24650120E030E0809151
:104660007C00807E80937C0080917C0082608093BF
:104670007C0080917A0086FDFCCF80917C008F7D4C
:1046800080937C0080917A00806480937A0080918E
:104690007A0086FDFCCF8091780090917900A0E0AF
:1046A000B0E0A80EB91ECA1EDB1E2F5F3F4F25309B
:1046B0003105A9F6EE24FF24870120E030E0809147
:1046C0007C00807E80937C0080917C00836080935E
:1046D0007C0080917A0086FDFCCF80917C008F7DEC
:1046E00080937C0080917A00806480937A0080912E
:1046F0007A0086FDFCCF8091780090917900A0E04F
:10470000B0E0E80EF91E0A1F1B1F2F5F3F4F253038
:104710003105A9F6CB01BA0125E030E040E050E0D8
:104720000E94813E442737FD4095542FCA01B901AC
:104730000E945F3D23E333E343E550E40E94EB3DF9
:1047400020E030E040E85AE30E94EB3D26EF38E2FB
:104750004CE95FE30E945F3C20E030E040E850E439
:104760000E94EB3D2B013C01C601B50125E030E084
:1047700040E050E00E94813E442737FD4095542F91
:10478000CA01B9010E945F3D23E333E343E550E4EE
:104790000E94EB3D20E030E040E85AE30E94EB3D10
:1047A00026EF38E24CE95FE30E945F3C20E030E016
:1047B00040E850E40E94EB3D5B016C01C801B70189
:1047C00025E030E040E050E00E94813E442737FD84
:1047D0004095542FCA01B9010E945F3D23E333E3A2
:1047E00043E550E40E94EB3D20E030E040E85AE32E
:1047F0000E94EB3D20E030E040EA5FE30E945F3C36
:1048000020E030E040E850E40E94EB3D7B018C0169
:10481000C601B50127E339E849E650E40E94603C4F
:1048200020E030E04AE754E40E94EB3D0E942C3D3A
:104830005B016C018091070490910804A80EB91ED9
:10484000C801B7012CE437E341E750E40E94603C23
:1048500020E030E04AE754E40E94EB3D0E942C3D0A
:104860007B018C018091090490910A04E80EF91EE5
:104870009EE4892E912C8091050490910604881A5B
:10488000990AC301B20127E339E849E650E40E94DE
:10489000603C20E030E04AE754E40E94EB3D0E9497
:1048A0002C3D861A970A9092060480920504B094D3
:1048B000A194B108B394B0920804A0920704F094B4
:1048C000E194F108F394F0920A04E092090420E0E4
:1048D00030E0439A40988CB58C7F81608CBD8DB55B
:1048E00081608DBD1EBC0DB407FEFDCF8EB5409A14
:1048F0002F5F3F4F82E0203A380759F71F910F9101
:10490000FF90EF90DF90CF90BF90AF909F908F90EF
:104910007F906F905F904F9008956F927F928F92EB
:104920009F92AF92BF92CF92DF92EF92FF920F933E
:104930001F93DF93CF9300D000D000D0CDB7DEB768
:104940005B016C014A013901409820E030E04FEFF3
:104950008CB58C7F82608CBD8DB58E7F8DBD4EBD3C
:104960000DB407FEFDCF8EB584E02030380709F482
:10497000B9C090E28CB58C7F82608CBD8DB58E7F86
:104980008DBD4EBD0DB407FEFDCF8EB5992319F038
:1049900091508F3F79F32F5F3F4F8823C9F2809169
:1049A000F80380FDB6C0A6019501B9E0220F331FC0
:1049B000441F551FBA95D1F781E58983852F992723
:1049C000AA27BB278A83CA01AA27BB278B83BB27B9
:1049D000A52F942F832F8C832D831E82DE011196A9
:1049E000FD0180E0BE016A5F7F4F49E02081982F82
:1049F000990F892F822787FD9427220F990F892FDE
:104A0000822787FD9427220F990F892F822787FD00
:104A10009427220F990F892F822787FD9427220F31
:104A2000990F892F822787FD9427322F330F292F43
:104A3000220F822F832787FD2427932F990F220F80
:104A4000822F892787FD2427822F880F990F982787
:104A500097FD84273196E617F70709F0C7CF880F2F
:104A600081608E83FD019E01295F3F4F80819CB54F
:104A70009C7F92609CBD9DB59E7F9DBD8EBD0DB4FB
:104A800007FEFDCF8EB53196E217F30779F790E276
:104A90002FEF8CB58C7F82608CBD8DB58E7F8DBDE8
:104AA0002EBD0DB407FEFDCF8EB5992319F09150A0
:104AB0008F3F79F38823B1F491E22FEF8CB58C7F8F
:104AC00082608CBD8DB58E7F8DBD2EBD0DB407FE71
:104AD000FDCF8EB5913019F091508F3F79F38E3F15
:104AE00009F483C0409A8FEF26960FB6F894DEBF84
:104AF0000FBECDBFCF91DF911F910F91FF90EF902F
:104B0000DF90CF90BF90AF909F908F907F906F90ED
:104B1000089581E589838D2D9927AA27BB278A834C
:104B2000C601AA27BB278B83BB27AD2D9C2D8B2DC0
:104B30008C83AD821E82DE011196FD0180E0BE01F4
:104B40006A5F7F4F49E02081982F990F892F822734
:104B500087FD9427220F990F892F822787FD94279D
:104B6000220F990F892F822787FD9427220F990FF3
:104B7000892F822787FD9427220F990F892F82275B
:104B800087FD9427322F330F292F220F822F83275F
:104B900087FD2427932F990F220F822F892787FDC6
:104BA0002427822F880F990F982797FD8427319605
:104BB000E617F70709F0C7CF880F81608E83FD01E4
:104BC0009E01295F3F4F80819CB59C7F92609CBD78
:104BD0009DB59E7F9DBD8EBD0DB407FEFDCF8EB5EC
:104BE0003196E217F30779F752CF81149104A1F0BF
:104BF00020E030E09FEF8CB58C7F82608CBD8DB55E
:104C00008E7F8DBD9EBD0DB407FEFDCF8EB52F5F8F
:104C10003F4F2815390578F3E114F104010511051A
:104C200009F44DC040E050E02FEF8CB58C7F8260DE
:104C30008CBD8DB58E7F8DBD2EBD0DB407FEFDCF15
:104C40008EB5F301E40FF51F80834F5F5F4FCA01FC
:104C5000A0E0B0E08E159F05A007B10730F3480D26
:104C6000591D82E04030580798F49FEF8CB58C7F37
:104C700082608CBD8DB58E7F8DBD9EBD0DB407FE4F
:104C8000FDCF8EB54F5F5F4F82E04030580770F325
:104C900020E030E09FEF8CB58C7F82608CBD8DB5BD
:104CA0008E7F8DBD9EBD0DB407FEFDCF8EB52F5FEF
:104CB0003F4F2330310579F7409A80E015CF40E02F
:104CC00050E0CDCF8F929F92AF92BF92CF92DF9262
:104CD000EF92FF920F931F93DF93CF93CDB7DEB781
:104CE0002B970FB6F894DEBF0FBECDBF389A409811
:104CF000229A2398219A8CB58F7D80618CBD8CB5CA
:104D000080648CBD20E030E09FEF8CB58C7F8260AA
:104D10008CBD8DB58E7F8DBD9EBD0DB407FEFDCFC4
:104D20008EB52F5F3F4F2A30310579F780E48E83AF
:104D30001F82188619861A861B8646E0C42ED12C3F
:104D4000CC0EDD1EF60180E03BE0E32EF12CEC0EF4
:104D5000FD1E49E02081982F990F892F822787FD1A
:104D60009427220F990F892F822787FD9427220FDE
:104D7000990F892F822787FD9427220F990F892F5A
:104D8000822787FD9427220F990F892F822787FD7D
:104D90009427322F330F292F220F822F832787FD4D
:104DA0002427932F990F220F822F892787FD2427ED
:104DB000822F880F990F982797FD84273196EE153B
:104DC000FF0509F0C7CF880F81608B87F6018E0140
:104DD000045F1F4F80819CB59C7F92609CBD9DB5F8
:104DE0009E7F9DBD8EBD0DB407FEFDCF8EB5319665
:104DF000E017F10779F791E22FEF8CB58C7F826095
:104E00008CBD8DB58E7F8DBD2EBD0DB407FEFDCF43
:104E10008EB5913019F091508F3F79F3813009F0C0
:104E2000B0C08CB58C7F82608CBD8DB58E7F8DBD02
:104E30008FEF8EBD0DB407FEFDCF8EB588E48E8357
:104E40001F82188681E0898785E58A871B86F6019F
:104E500080E049E02081982F990F892F822787FDD4
:104E60009427220F990F892F822787FD9427220FDD
:104E7000990F892F822787FD9427220F990F892F59
:104E8000822787FD9427220F990F892F822787FD7C
:104E90009427322F330F292F220F822F832787FD4C
:104EA0002427932F990F220F822F892787FD2427EC
:104EB000822F880F990F982797FD84273196EE153A
:104EC000FF0509F0C7CF880F81608B87F6018081CD
:104ED0009CB59C7F92609CBD9DB59E7F9DBD8EBD07
:104EE0000DB407FEFDCF8EB53196E017F10779F7C7
:104EF00029E03FEF90E28CB58C7F82608CBD8DB550
:104F00008E7F8DBD3EBD0DB407FEFDCF8EB59923BE
:104F100019F091508F3F79F3213099F121508F3F53
:104F200049F3898322E0A22EB12CAC0EBD1EF501FF
:104F30002FEF91E28CB58C7F82608CBD8DB58E7F1A
:104F40008DBD2EBD0DB407FEFDCF8EB5913019F08D
:104F500091508F3F79F38193EC15FD0551F78CB596
:104F60008C7F82608CBD8DB58E7F8DBD8FEF8EBDA9
:104F70000DB407FEFDCF8EB58981813021F18530DA
:104F800079F18CB58C7F82608CBD8DB58E7F8DBDA7
:104F90008FEF8EBD0DB407FEFDCF8EB5409A8FEF1B
:104FA0002B960FB6F894DEBF0FBECDBFCF91DF9129
:104FB0001F910F91FF90EF90DF90CF90BF90AF9037
:104FC0009F908F9008958C818130D9F68D818535A1
:104FD000C1F6A091F803A97FA460A093F80306C0CE
:104FE000A091F803A97FA260A093F80360E070E0AD
:104FF0005FEFB7E749E099E6992E80E4882E8CB5FB
:105000008C7F82608CBD8DB58E7F8DBD5EBD0DB4F5
:1050100007FEFDCF8EB5BE831F82188619861A86BD
:105020001B86F60180E02081982F990F892F822717
:1050300087FD9427220F990F892F822787FD9427B8
:10504000220F990F892F822787FD9427220F990F0E
:10505000892F822787FD9427220F990F892F822776
:1050600087FD9427322F330F292F220F822F83277A
:1050700087FD2427932F990F220F822F892787FDE1
:105080002427822F880F990F982797FD8427319620
:10509000EE15FF0509F0C7CF880F81608B87F601F9
:1050A00080819CB59C7F92609CBD9DB59E7F9DBD7F
:1050B0008EBD0DB407FEFDCF8EB53196E017F1071A
:1050C00079F790E28CB58C7F82608CBD8DB58E7F38
:1050D0008DBD5EBD0DB407FEFDCF8EB5992319F0D1
:1050E00091508F3F79F38CB58C7F82608CBD8DB5EC
:1050F0008E7F8DBD5EBD0DB407FEFDCF8EB59E8249
:105100008F82188619861A861B86F60180E0208118
:10511000982F990F892F822787FD9427220F990FA7
:10512000892F822787FD9427220F990F892F8227A5
:1051300087FD9427220F990F892F822787FD9427B7
:10514000220F990F892F822787FD9427322F330F43
:10515000292F220F822F832787FD2427932F990F32
:10516000220F822F892787FD2427822F880F990FEE
:10517000982797FD84273196EE15FF0509F0C7CFD4
:10518000880F81608B87F60180819CB59C7F92603F
:105190009CBD9DB59E7F9DBD8EBD0DB407FEFDCF10
:1051A0008EB53196E017F10779F784E06030780723
:1051B00009F4E7CE91E28CB58C7F82608CBD8DB511
:1051C0008E7F8DBD5EBD0DB407FEFDCF8EB59130D7
:1051D00019F091508F3F79F36F5F7F4F80FD0FCFB4
:1051E0008CB58C7F82608CBD8DB58E7F8DBD8FEF31
:1051F0008EBD0DB407FEFDCF8EB5A670A23009F4AA
:1052000097C08AE78E831F82188619861A861B86A6
:10521000F60180E049E02081982F990F892F82279D
:1052200087FD9427220F990F892F822787FD9427C6
:10523000220F990F892F822787FD9427220F990F1C
:10524000892F822787FD9427220F990F892F822784
:1052500087FD9427322F330F292F220F822F832788
:1052600087FD2427932F990F220F822F892787FDEF
:105270002427822F880F990F982797FD842731962E
:10528000EE15FF0509F0C7CF880F81608B87F60107
:1052900080819CB59C7F92609CBD9DB59E7F9DBD8D
:1052A0008EBD0DB407FEFDCF8EB53196E017F10728
:1052B00079F721E23FEF90E28CB58C7F82608CBD64
:1052C0008DB58E7F8DBD3EBD0DB407FEFDCF8EB575
:1052D000992319F091508F3F79F3213009F4A7C039
:1052E00021508F3F41F38983AE014B5F5F4F2FEF1A
:1052F00090E28CB58C7F82608CBD8DB58E7F8DBD2C
:105300002EBD0DB407FEFDCF8EB5992319F0915037
:105310008F3F79F3F50181935F01E417F50741F7BA
:105320000E94C20B8981882319F49A8197FD74C069
:1053300080E58E831F82188682E089871A861B8605
:10534000F60180E049E02081982F990F892F82276C
:1053500087FD9427220F990F892F822787FD942795
:10536000220F990F892F822787FD9427220F990FEB
:10537000892F822787FD9427220F990F892F822753
:1053800087FD9427322F330F292F220F822F832757
:1053900087FD2427932F990F220F822F892787FDBE
:1053A0002427822F880F990F982797FD84273196FD
:1053B000EE15FF0509F0C7CF880F81608B87F601D6
:1053C00080819CB59C7F92609CBD9DB59E7F9DBD5C
:1053D0008EBD0DB407FEFDCF8EB53196E017F107F7
:1053E00079F790E22FEF8CB58C7F82608CBD8DB504
:1053F0008E7F8DBD2EBD0DB407FEFDCF8EB59923DA
:1054000019F091508F3F79F3882309F0BACD0E94AB
:10541000C20B409A80E0C4CD929596959695917076
:105420008091F8038E7F982B9093F80381CF898326
:1054300079CF0E9462268F3F11F080E008958FEFB0
:1054400008951F93DF93CF93CDB7DEB7C754D040F5
:105450000FB6F894DEBF0FBECDBF10E81093610009
:1054600010926100549A3A9A5C9A809880917C00DC
:10547000806480937C0080917A0080937A00809190
:105480007A00806880937A00209A289A0E94440EBD
:10549000439840988CB58C7F81608CBD8DB58160C0
:1054A0008DBD1EBD0DB407FEFDCF8EB5409A43984D
:1054B00040988CB58C7F81608CBD8DB581608DBD31
:1054C00080E48EBD0DB407FEFDCF8EB5409A20E07E
:1054D00030E0439A40988CB58C7F81608CBD8DB54F
:1054E00081608DBD1EBC0DB407FEFDCF8EB5409A08
:1054F0002F5F3F4F82E0203A380759F780B3817F12
:1055000080BB8AEC96E2ABE9B2E48093920490937C
:105510009304A0939404B0939504109280008CE0BF
:1055200080938100109285001092840082E19AE7B6
:10553000909389008093880022E020936F0010925E
:10554000900089E080939100109295001092940051
:1055500080EC93E0909399008093980020937100E1
:1055600020E030E040E951E0CA010197F1F72F5FF8
:105570003F4F83E0283E3807B9F78AEA0E94FB0EC6
:105580009093DF068093DE068CEA0E94FB0E9093D8
:10559000E7068093E6068EEA0E94FB0E9093F006E3
:1055A0008093EF0680EB0E94FB0E9093EB068093B6
:1055B000EA0682EB0E94FB0E9093E5068093E406D8
:1055C00084EB0E94FB0E9093E3068093E20686EB49
:1055D0000E94FB0E9093E1068093E00688EB0E9408
:1055E000FB0E9093A8068093A7068AEB0E94FB0E01
:1055F0009093AE068093AD068CEB0E94FB0E9093C9
:10560000EE068093ED068EEB0E94FB0E9093E9066A
:105610008093E80680916A00826080936A00EC9A29
:1056200078946E98769880916A00806180936A0081
:10563000EE9A0E946226F89410921304809113044B
:10564000809312041092170480911704809316041B
:105650008AE194E090931504809314048AE594E021
:1056600090931904809318048FEC90E09093CD00F0
:105670008093CC0082E08093C80080E88093C900CA
:105680008091C90088618093C90086E08093CA0038
:105690007894DE011196E3E1F1E083E101900D924F
:1056A0008150E1F72981222321F1DE0112968091B8
:1056B00013048F5F8093130480911304803410F0DF
:1056C0001092130490911204809113049817D1F34F
:1056D000E0911404F091150480911304E80FF11D7A
:1056E00020838091C90080628093C9002D9122237C
:1056F000F1F6DE015496E6E2F1E084E301900D92CA
:105700008150E1F72C89222321F1DE015596809109
:1057100013048F5F8093130480911304803410F07E
:105720001092130490911204809113049817D1F3EE
:10573000E0911404F091150480911304E80FF11D19
:1057400020838091C90080628093C9002D9122231B
:10575000F1F624982C9A5C98C95BDF4F0FB6F89449
:10576000DEBF0FBECDBFCF91DF911F910895CF92C5
:10577000DF92EF92FF920F931F93DF93CF93CDB7FA
:10578000DEB72A970FB6F894DEBF0FBECDBF8DB738
:105790009EB708970FB6F8949EBF0FBE8DBFEDB7AA
:1057A000FEB731967E010894E11CF11CADB7BEB77F
:1057B0001296FC92EE92119702EB11E01383028392
:1057C00080919F049091A004A091A104B091A204A3
:1057D00084839583A683B7830E943740EDB7FEB7D5
:1057E000319636E0C32ED12CCC0EDD1EADB7BEB740
:1057F0001296DC92CE921197138302838091A304B8
:105800009091A404A091A504B091A60484839583EB
:10581000A683B7830E943740439840988CB58C7F0D
:1058200081608CBD8DB581608DBD80E88EBD8DB7EA
:105830009EB708960FB6F8949EBF0FBE8DBF0DB4ED
:1058400007FEFDCF8EB5409A439840988CB58C7F6B
:1058500081608CBD8DB581608DBD80E48EBD0DB441
:1058600007FEFDCF8EB5409AA8EBB1E09091B8014C
:10587000992309F447C01196439A40988CB58C7FC0
:1058800081608CBD8DB581608DBD1EBC0DB407FEE1
:10589000FDCF8EB5409A892F90E08097FC01EE0FE6
:1058A000FF1FEE0FFF1FE80FF91FE95EFD4F20E01D
:1058B00030E08081439A40989CB59C7F91609CBD6C
:1058C0009DB591609DBD8EBD0DB407FEFDCF8EB51B
:1058D000409A2F5F3F4F31962530310551F7439A5B
:1058E00040988CB58C7F81608CBD8DB581608DBDFD
:1058F0001EBC0DB407FEFDCF8EB5409A9C91992336
:1059000009F0B9CF439840988CB58C7F81608CBDED
:105910008DB581608DBD8AEA8EBD0DB407FEFDCFC9
:105920008EB5409A439840988CB58C7F81608CBD31
:105930008DB581608DBD80E48EBD0DB407FEFDCFB9
:105940008EB5409A9981992309F448C0D7011196E0
:10595000439A40988CB58C7F81608CBD8DB58160F9
:105960008DBD1EBC0DB407FEFDCF8EB5409A892FAC
:1059700090E08097FC01EE0FFF1FEE0FFF1FE80F76
:10598000F91FE95EFD4F20E030E08081439A4098A6
:105990009CB59C7F91609CBD9DB591609DBD8EBD69
:1059A0000DB407FEFDCF8EB5409A2F5F3F4F319665
:1059B0002530310551F7439A40988CB58C7F816032
:1059C0008CBD8DB581608DBD1EBC0DB407FEFDCFB5
:1059D0008EB5409A9C91992309F0B9CFA3ECB1E020
:1059E0009091C301992309F447C01196439A4098B6
:1059F0008CB58C7F81608CBD8DB581608DBD1EBCEA
:105A00000DB407FEFDCF8EB5409A892F90E08097A8
:105A1000FC01EE0FFF1FEE0FFF1FE80FF91FE95EFD
:105A2000FD4F20E030E08081439A40989CB59C7FF8
:105A300091609CBD9DB591609DBD8EBD0DB407FE6E
:105A4000FDCF8EB5409A2F5F3F4F319625303105FF
:105A500051F7439A40988CB58C7F81608CBD8DB591
:105A600081608DBD1EBC0DB407FEFDCF8EB5409A82
:105A70009C91992309F0B9CF439840988CB58C7FBD
:105A800081608CBD8DB581608DBD80E88EBD0DB40B
:105A900007FEFDCF8EB5409A439840988CB58C7F19
:105AA00081608CBD8DB581608DBD81E48EBD0DB4EE
:105AB00007FEFDCF8EB5409AA5ECB1E09091C501EF
:105AC000992309F447C01196439A40988CB58C7F6E
:105AD00081608CBD8DB581608DBD1EBC0DB407FE8F
