:100000000C94CD000C94EC000C94EC000C94EC00DF
:100010000C94EC000C94EC000C94EC000C947B051C
:100020000C94EC000C94EC000C94EC000C94EC00A0
:100030000C948A060C94EC000C94EC000C94EC00EC
:100040000C94EC000C9478030C94EC000C94EC00F1
:100050000C94EC000C94EC000C94EC000C94EC0070
:100060000C94EC000C9414020C94DB010C94EC0046
:100070000C94EC000C94EC000C94EC000C94EC0050
:100080000C9492030C94EC000C94EC000C94EC0097
:100090000C949E020C94EC006E616E00696E66001A
:1000A00000407A10F35A00A0724E18090010A5D42F
:1000B000E80000E87648170000E40B54020000CA8C
:1000C0009A3B000000E1F5050000809698000000D2
:1000D00040420F000000A086010000001027000031
:1000E0000000E803000000006400000000000A00B7
:1000F000000000000100000000002C76D888DC67BA
:100100004F0823DFC1DFAE59E1B1B796E5E3E45311
:10011000C63AE651997696E8E6C28426EB898C9B2E
:1001200062ED407C6FFCEFBC9C9F40F2BAA56FA5CE
:10013000F490055A2AF75C936B6CF9676DC11BFC50
:10014000E0E40D47FEF520E6B500D0ED902E03006B
:10015000943577050080841E080000204E0A0000B8
:1001600000C80C333333330F986E12831141EF8D77
:100170002114893BE65516CFFEE6DB18D1844B38B7
:100180001BF77C1D901DA4BBE424203284725E22E8
:100190008100C9F124ECA1E53D2711241FBECFEF5A
:1001A000D0E2DEBFCDBF13E0A0E0B1E0EAE4F7E6C5
:1001B00000E00BBF02C007900D92A23AB107D9F739
:1001C00014E0A2EAB3E001C01D92AE37B107E1F737
:1001D0000E94D1250C94A3330C940000ECE7F0E0CE
:1001E000908190649083EAE7F0E09081982B90836F
:1001F000808180688083089590917C00907E9093A8
:100200007C0090917C00982B90937C0080917A00E8
:1002100086FDFCCF6623B1F480917C0080628093E0
:100220007C0080917A00806480937A0080917A00CB
:1002300086FDFCCF662361F0209178003091790033
:10024000C901089580917C008F7D80937C00E9CF67
:1002500080917900282F30E0C901089590917C00A9
:10026000982B90937C0080917A00806280937A0032
:10027000662331F480917A008F7D80937A0008950F
:1002800080917A00806480937A0008959B01AC018C
:10029000F8941092B8038091B8038093B70310923A
:1002A000BC038091BC038093BB038FEB93E09093DE
:1002B000BA038093B9038FEF93E09093BE038093CA
:1002C000BD03220F331F441F551F220F331F441F2E
:1002D000551F60E074E284EF90E00E9415312150D8
:1002E000304040405040569547953795279530937C
:1002F000CD002093CC0082E08093C800E9ECF0E0D0
:1003000080E8808380818861808386E08093CA0052
:1003100078940895282F8091B8038F5F8093B80355
:100320008091B803803410F01092B8039091B70315
:100330008091B8039817D1F3E091B903F091BA0313
:100340008091B803E80FF11D20838091C90080627D
:100350008093C90008959091BC038091BB039817C6
:10036000D1F38091BB038F5F8093BB038091BB036C
:10037000883210F01092BB03E091BD03F091BE03F0
:100380008091BB03E80FF11D808108959091BC031B
:100390008091BB03981740F49091BC038091BB03FC
:1003A000985D981B892F08959091BC038091BB03A1
:1003B000981B892F08951F920F920FB60F920BB6BC
:1003C0000F9211248F939F93EF93FF939091B80313
:1003D0008091B703981711F18091B7038F5F8093D5
:1003E000B7038091B7038034B0F4E091B903F09182
:1003F000BA038091B703E80FF11D80818093CE008E
:10040000FF91EF919F918F910F900BBE0F900FBEB8
:100410000F901F9018951092B703E7CF8091C900F5
:100420008F7D8093C900ECCF1F920F920FB60F9271
:100430000BB60F9211248F939F93EF93FF9390919C
:10044000BC039F5F983208F090E08091BB0389174E
:1004500059F0E091BD03F091BE03E90FF11D8091C9
:10046000CE0080839093BC03FF91EF919F918F9179
:100470000F900BBE0F900FBE0F901F901895229AF1
:100480002398219A9CB59F7D90618295880F807EEC
:10049000982B660F660F962B9CBD8CB580648CBD27
:1004A0000895FA019CB5362F33709C7F392B3CBDE3
:1004B0009DB5669566959E7F962B9DBD308141E0EA
:1004C00050E002C0440F551F2A95E2F7942F9095F3
:1004D000932390838EBD0DB407FEFDCF8081482B02
:1004E00040838EB508951092B9008093B800ECEB6C
:1004F000F0E080818560808378940895282F809132
:10050000B2039091B303892B09F0FFCF220F216032
:100510002093B0031092B103423018F081E0809331
:10052000B1034093B5037093B3036093B20385EABC
:100530008093BC00672B09F40895FFCF1F920F92A0
:100540000FB60F920BB60F9211248F939F93EF93D8
:10055000FF938091B90090E0887F90708832910578
:1005600009F472C08932910594F088349105D9F06C
:1005700089349105E4F48033910509F487C080340F
:10058000910509F444C085E88093BC0035C08031F2
:100590009105E9F0813191050CF44BC0883191054A
:1005A000D1F0809781F785EA8093BC0025C0803523
:1005B000910509F45DC08835910529F71092B303C0
:1005C0001092B2031092B40385E98093BC0080912D
:1005D000B00380FD1CC09091B403E091B203F09190
:1005E000B303E90FF11D80818093BB009F5F90935F
:1005F000B40385E88093BC00FF91EF919F918F91A8
:100600000F900BBE0F900FBE0F901F90189580910A
:10061000B4039091BB00E091B203F091B303E80FF3
:10062000F11D90838F5F8093B40385EC8093BC00B1
:10063000E3CF089709F0A7CF8091B0038093BB0068
:1006400085E88093BC00D8CF8091B103882331F036
:100650009091B4038091B5039817A0F01092B30362
:100660001092B2031092B40385E98093BC008BCF43
:100670008091B1038823A1F09091B4038091B503D8
:10068000981770F485EA8093BC007DCF1092B30375
:100690001092B2031092B40385E98093BC00ACCFF2
:1006A00085E88093BC006FCF109280008CE080932F
:1006B0008100109285001092840082E19AE7909365
:1006C00089008093880022E020936F0010929000B0
:1006D00089E080939100109295001092940080EC34
:1006E00093E090939900809398002093710008956F
:1006F0001F920F920FB60F9211248F938091A70330
:100700008F5F8093A7038091A703823029F481E053
:100710008093A6031092A7038F910F900FBE0F90A6
:100720001F9018951F920F920FB60F9211248F935E
:100730009F93AF93BF938091A2039091A303A09145
:10074000A403B091A5030196A11DB11D8093A2033E
:100750009093A303A093A403B093A503BF91AF917B
:100760009F918F910F900FBE0F901F90189580B39F
:10077000817F80BB8AEC96E2ABE9B2E480933704D8
:1007800090933804A0933904B0933A040895BC01BF
:100790008091B9008E7F8093B9008091B9008D7FE0
:1007A0008093B90080EA9FE00E940131603130F00F
:1007B000862F90E0409795958795682F6093B800B5
:1007C00008953C9A84EA8093BC00089584E980935C
:1007D000BC000895E0EAFFE03197F1F73C9A80937E
:1007E000BB0084E88093BC000895882339F480918D
:1007F000BC008F7080688093BC0008958091BC001D
:100800008F70806C8093BC0008958091BB00089528
:100810008091B9000895F894A895E0E6F0E088E1A9
:10082000808388E6808378940895F894A89584B7A7
:10083000877F84BFE0E6F0E080818861808310825A
:10084000789408956E987698EAE6F0E08081806169
:100850008083EE9A0895E1E7F0E0808182608083F2
:1008600081E08093A8036E9A76981092A20310926A
:10087000A3031092A4031092A503E1E9F0E08081A4
:10088000816080830895DF92EF92FF920F931F9310
:100890008091A803813009F4AEC08130C0F480910A
:1008A00091008E7F809391001092A2031092A30377
:1008B0001092A4031092A503109295001092940038
:1008C0008EEF1F910F91FF90EF90DF90089587308A
:1008D00039F080E01F910F91FF90EF90DF90089525
:1008E00010913C0480913D0480913E0480913F042E
:1008F000809140048091410480914204809143049E
:1009000080913C0430913D0480913E0480913F04ED
:10091000809140048091410480914204809143047D
:1009200020E040E050E060E070E080E090E008E02F
:100930000E94452AD22E80913C0480913D04409132
:100940003E0480913F048091400480914104809155
:1009500042048091430420E030E050E060E070E029
:1009600080E090E000E10E94452AE22E80913C0464
:1009700080913D0480913E0450913F048091400459
:1009800080914104809142048091430420E030E052
:1009900040E060E070E080E090E008E10E94452ADD
:1009A000F22E80913C0480913D0480913E04809120
:1009B0003F04609140048091410480914204809101
:1009C000430420E030E040E050E070E080E090E060
:1009D00000E20E94452A022F1092A8038E2D8D0D51
:1009E0008F0D800F811791F181E01F910F91FF9082
:1009F000EF90DF9008958091A2039091A303A091BE
:100A0000A403B091A5034197A105B10508F461CFF6
:100A100010923C0410923D0410923E0410923F0448
:100A20001092400410924104109242041092430428
:100A30001092A9036E98769882E08093A80380E0D4
:100A40001F910F91FF90EF90DF9008957E2D60E051
:100A50002D2D30E0622B732B882777FD8095982F02
:100A60000E94F32F20E030E040E251E40E94582F32
:100A70006093440470934504809346049093470424
:100A8000702F60E02F2D30E0622B732B882777FDCD
:100A90008095982F0E94F32F20E030E040E251E44F
:100AA0000E94582F609348047093490480934A042D
:100AB00090934B0481E099CFFC0180914404909184
:100AC0004504A0914604B091470480839183A2839A
:100AD000B3838091480490914904A0914A04B09155
:100AE0004B04FB0180839183A283B3830895EE9A24
:100AF0000895EE9808951F920F920FB60F920BB6BD
:100B00000F9211240F932F933F934F935F936F9303
:100B10007F938F939F93AF93BF93EF93FF938091B6
:100B2000A803843009F4B6C08530C8F0853009F4D4
:100B300084C0863041F1FF91EF91BF91AF919F91B9
:100B40008F917F916F915F914F913F912F910F9175
:100B50000F900BBE0F900FBE0F901F901895823014
:100B600009F488C0833039F78CB1829586958695D3
:100B7000817080933B0480913B048823E1F284E000
:100B80008093A803D8CF8CB1829586958695817085
:100B900080933B0480913B04882369F68091A203F3
:100BA0009091A303A091A403B091A5030097A10580
:100BB000B10509F07FC020913C0430913D04409183
:100BC0003E0450913F046091400470914104809133
:100BD00042049091430401E00E94C42A20933C0403
:100BE00030933D0440933E0450933F04609340048F
:100BF0007093410480934204909343048091A9032D
:100C00008F5F8093A9038091A903883208F467C09D
:100C100087E08093A803809191008E7F809391005C
:100C20001092A2031092A3031092A4031092A503A2
:100C300010929500109294007ECF8CB1829586958B
:100C40008695817080933B0480913B04882309F44E
:100C500072CF809191008160809391001092A203E5
:100C60001092A3031092A4031092A50386E0809330
:100C7000A80361CF8CB1829586958695817080930B
:100C80003B0480913B04882309F055CF83E0809397
:100C9000A80351CF8CB182958695869581708093FB
:100CA0003B0480913B04882309F045CF85E0809385
:100CB000A80341CF20913C0430913D0440913E0473
:100CC00050913F046091400470914104809142042E
:100CD0009091430401E00E94C42A21607FCF85E007
:100CE0008093A80398CF80E090E00E945A33089543
:100CF000682F80E090E00E946833089581E090E0E2
:100D00000E9462330895AB01BC0181E090E00E9433
:100D1000763308951F920F920FB60F920BB60F9273
:100D200011242F933F934F935F936F937F938F93F0
:100D30009F93AF93BF93EF93FF9364E040E951E03B
:100D40005C9A20E030E0CA010197F1F72F5F3F4F36
:100D5000283C3105C1F75C9820E030E0CA010197DA
:100D6000F1F72F5F3F4F83E020323807B9F761502A
:100D700039F780E090E061E00E94683340916004C0
:100D800050916104609162047091630481E090E08D
:100D90000E947633FF91EF91BF91AF919F918F9118
:100DA0007F916F915F914F913F912F910F900BBE6B
:100DB0000F900FBE0F901F9018958091BC0087FD7B
:100DC0000FC020E030E003C02A35310551F02F5F1D
:100DD0003F4F8091BC0087FFF7CF293531050CF4D8
:100DE000089580E091E00E94963208950F931F933A
:100DF000082F142F8091B2039091B303892B09F02F
:100E0000FFCF413120F08FEF1F910F91089527E21E
:100E100034E03093B3032093B20380E18093B503B1
:100E2000C90150E00E943532000F0093B0031092C8
:100E3000B103123038F485EA8093BC0080E01F9142
:100E40000F91089581E08093B10385EA8093BC00FF
:100E500080E0F5CF9091BC038091BB039817D1F34C
:100E60008091BB038F5F8093BB038091BB0388326B
:100E700010F01092BB03E091BD03F091BE0380918E
:100E8000BB03E80FF11D8081089598B1660F660FCE
:100E9000660F977F962B98B99CB59C7F91609CBDFF
:100EA0009DB591609DBD40988EBD0DB407FEFDCFF0
:100EB000409A8EB50895EF92FF920F931F93282FBB
:100EC0004115510509F44AC0EE24FF248701E0E0F2
:100ED000F0E080917C00807E80937C0080917C009B
:100EE000822B80937C0080917A0086FDFCCF662364
:100EF00059F580917C00806280937C0080917A001B
:100F0000806480937A0080917A0086FDFCCF66230E
:100F100009F18091780090917900A0E0B0E0E80EAE
:100F2000F91E0A1F1B1F3196E417F50790F29A016C
:100F300040E050E0C801B7010E941531C9011F917E
:100F40000F91FF90EF90089580917C008F7D8093AA
:100F50007C00D4CF8091790090E0DFCFEE24FF2495
:100F60008701E5CFDC012C918091B8038F5F8093DE
:100F7000B8038091B803803410F01092B8039091B8
:100F8000B7038091B8039817D1F3E091B903F091BA
:100F9000BA038091B803E80FF11D20838091C90046
:100FA00080628093C9008C91882311F01196DBCF69
:100FB0000895DC012C918091B8038F5F8093B80372
:100FC0008091B803803410F01092B8039091B70369
:100FD0008091B8039817D1F3E091B903F091BA0367
:100FE0008091B803E80FF11D20838091C9008062D1
:100FF0008093C900662311F06150DCCF0895DC01B5
:101000006115710551F120E030E0FD01E20FF31FA1
:1010100040818091B8038F5F8093B8038091B803BB
:10102000803410F01092B8039091B7038091B80308
:101030009817D1F3E091B903F091BA038091B80306
:10104000E80FF11D40838091C90080628093C90040
:101050002F5F3F4F26173707C0F20895EF92FF9298
:101060000F931F9379018A0190917C00907E909359
:101070007C0090917C00982B90937C0080917A006A
:1010800086FDFCCF662331F580917C0080628093E1
:101090007C0080917A00806480937A0080917A004D
:1010A00086FDFCCF6623E1F0209178003091790035
:1010B00040E050E0C801B7010E94E2302FEF33E07A
:1010C00040E050E00E941531C9011F910F91FF903F
:1010D000EF90089580917C008F7D80937C00D9CF24
:1010E0002091790030E040E050E0C801B7010E9453
:1010F000E2302FEF30E040E050E00E941531C901AE
:101100001F910F91FF90EF900895282F8091B803C1
:101110008F5F8093B8038091B803803410F01092F1
:10112000B8039091B7038091B8039817D1F3E09179
:10113000B903F091BA038091B803E80FF11D208341
:101140008091C90080628093C9000895EF92FF9258
:101150000F931F93CF93DF93EC018B017A0120E073
:1011600030E040E050E060E070E080917C00807E04
:1011700080937C0080917C00816080937C008091D2
:101180007A0086FDFCCF80917C008F7D80937C006F
:1011900080917A00806480937A0080917A0086FD45
:1011A000FCCF8091780090917900A0E0B0E0280F0A
:1011B000391F4A1F5B1F6F5F7F4F65307105A9F6AE
:1011C000CA01B90125E030E040E050E00E9415314D
:1011D0003983288320E030E040E050E060E070E0B8
:1011E00080917C00807E80937C0080917C00826076
:1011F00080937C0080917A0086FDFCCF80917C00FA
:101200008F7D80937C0080917A00806480937A0047
:1012100080917A0086FDFCCF8091780090917900D2
:10122000A0E0B0E0280F391F4A1F5B1F6F5F7F4FA0
:1012300065307105A9F6CA01B90125E030E040E04A
:1012400050E00E941531F8013183208320E030E026
:1012500040E050E060E070E080917C00807E809310
:101260007C0080917C00836080937C0080917A0078
:1012700086FDFCCF80917C008F7D80937C008091E7
:101280007A00806480937A0080917A0086FDFCCF9A
:101290008091780090917900A0E0B0E0280F391F8C
:1012A0004A1F5B1F6F5F7F4F65307105A9F6CA014A
:1012B000B90125E030E040E050E00E941531F7012F
:1012C00031832083DF91CF911F910F91FF90EF9099
:1012D000089520E030E0439A8CB58C7F81608CBD0E
:1012E0008DB581608DBD40981EBC0DB407FEFDCF4D
:1012F000409A8EB52F5F3F4F82E0203A380759F76A
:101300000895E9EBF0E080818E7F808380818D7F7E
:1013100080838CE08093B800ECEBF0E08081846007
:101320008083089580917C00807E80937C008091F2
:101330007C0080937C0080917A0086FDFCCF8091B8
:101340007C008F7D80937C0080917A008064809304
:101350007A0080917A0086FDFCCF609178007091D0
:10136000790080E090E028E833E140E050E00E941E
:10137000E2302FEF33E040E050E00E941531B90138
:10138000660F771FC901880F991F880F991F880F53
:10139000991F680F791F620F731FCB010895982F53
:1013A000439A8CB58C7F81608CBD8DB581608DBD7D
:1013B00040981EBC0DB407FEFDCF409A8EB5892F14
:1013C00090E08097FC01EE0FFF1FEE0FFF1FE80F6C
:1013D000F91FEE53FE4F20E030E08081439A9CB528
:1013E0009C7F91609CBD9DB591609DBD40988EBDD8
:1013F0000DB407FEFDCF409A8EB52F5F3F4F31965B
:101400002530310551F7439A8CB58C7F81608CBDB6
:101410008DB581608DBD40981EBC0DB407FEFDCF1B
:10142000409A8EB5089587B18B6087B988B1836083
:1014300088B94198419A229A2398219A8CB58F7D38
:1014400080618CBD8CB580648CBD43988CB58C7FDD
:1014500081608CBD8DB581608DBD409881E28EBD6F
:101460000DB407FEFDCF409A8EB543988CB58C7FA6
:1014700081608CBD8DB581608DBD40988FEC8EBD37
:101480000DB407FEFDCF409A8EB543988CB58C7F86
:1014900081608CBD8DB581608DBD409880E28EBD30
:1014A0000DB407FEFDCF409A8EB543988CB58C7F66
:1014B00081608CBD8DB581608DBD40988CE08EBD06
:1014C0000DB407FEFDCF409A8EB543988CB58C7F46
:1014D00081608CBD8DB581608DBD409880E88EBDEA
:1014E0000DB407FEFDCF409A8EB543988CB58C7F26
:1014F00081608CBD8DB581608DBD409880E48EBDCE
:101500000DB407FEFDCF409A8EB50895982F84350F
:1015100010F5683000F5906843988CB58C7F816039
:101520008CBD8DB581608DBD40989EBD0DB407FE0C
:10153000FDCF409A8EB5606443988CB58C7F8160F6
:101540008CBD8DB581608DBD40986EBD0DB407FE1C
:10155000FDCF409A8EB508950F931F93182F3C9A94
:1015600084EA8093BC008091BC0087FD11C020E01C
:1015700030E004C02A35310509F4E0C02F5F3F4F49
:101580008091BC0087FFF6CF293531050CF0D6C01D
:1015900080EA9FE00197F1F73C9A8EEE8093BB00C2
:1015A00084E88093BC008091BC0087FD11C020E0DE
:1015B00030E004C02A35310509F4E3C02F5F3F4F06
:1015C0008091BC0087FFF6CF293531050CF0D9C0DA
:1015D00080EA9FE00197F1F73C9A1093BB0084E802
:1015E0008093BC008091BC0087FD11C020E030E0FA
:1015F00004C02A35310509F4BFC02F5F3F4F8091E9
:10160000BC0087FFF6CF293531050CF0B5C03C9AF8
:1016100084EA8093BC0080EA9FE00197F1F73C9A4E
:101620008FEE8093BB0084E88093BC008091BC0067
:1016300087FD11C020E030E004C02A35310509F4EF
:1016400096C02F5F3F4F8091BC0087FFF6CF2935B2
:1016500031050CF08CC08091BC008F70806C809341
:10166000BC008091BC0087FD11C020E030E004C0C8
:101670002A35310509F476C02F5F3F4F8091BC00B9
:1016800087FFF6CF293531050CF06CC00091BB0007
:101690008091BC0087FD11C020E030E004C02A35F5
:1016A000310509F45AC02F5F3F4F8091BC0087FF7E
:1016B000F6CF293531050CF050C08091BC008F70F9
:1016C00080688093BC008091BC0087FD0FC020E043
:1016D00030E003C02A353105D9F12F5F3F4F8091AB
:1016E000BC0087FFF7CF2935310594F51091BB0079
:1016F0008091BC0087FD0FC020E030E003C02A3598
:10170000310509F12F5F3F4F8091BC0087FFF7CF74
:1017100029353105C4F484E98093BC00202F332798
:1017200027FD3095322F2227812F992787FD90950D
:10173000282B392BC9011F910F91089580E091E06A
:101740000E94963225CF80E091E00E949632E3CF4E
:1017500080E091E00E949632C9CF80E091E00E9443
:101760009632ABCF80E091E00E9496328FCF80E03E
:1017700091E00E9496326FCF80E091E00E94963215
:1017800046CF80E091E00E94963222CF3C9A84EAD4
:101790008093BC008091BC0087FD11C020E030E048
:1017A00004C02A35310509F476C02F5F3F4F809180
:1017B000BC0087FFF6CF293531050CF06CC080EAFC
:1017C0009FE00197F1F73C9A8EEE8093BB0084E88E
:1017D0008093BC008091BC0087FD11C020E030E008
:1017E00004C02A35310509F465C02F5F3F4F809151
:1017F000BC0087FFF6CF293531050CF05BC080EACD
:101800009FE00197F1F73C9A84EF8093BB0084E856
:101810008093BC008091BC0087FD10C020E030E0C8
:1018200004C02A35310509F440C02F5F3F4F809135
:10183000BC0087FFF6CF29353105BCF580EA9FE073
:101840000197F1F73C9A84E38093BB0084E880938E
:10185000BC008091BC0087FD0FC020E030E003C0D9
:101860002A353105E9F02F5F3F4F8091BC0087FF9B
:10187000F7CF29353105A4F484E98093BC0080E4D6
:101880009CE90197F1F786EF0E94AC0A40E050E036
:10189000BC01CA01089580E091E00E9496328FCF8A
:1018A00080E091E00E949632E7CF80E091E00E94D4
:1018B0009632C4CF80E091E00E949632A0CF3C9A4D
:1018C00084EA8093BC008091BC0087FD11C020E0B9
:1018D00030E004C02A35310509F479C02F5F3F4F4D
:1018E0008091BC0087FFF6CF293531050CF06FC021
:1018F00080EA9FE00197F1F73C9A8EEE8093BB005F
:1019000084E88093BC008091BC0087FD11C020E07A
:1019100030E004C02A35310509F468C02F5F3F4F1D
:101920008091BC0087FFF6CF293531050CF05EC0F1
:1019300080EA9FE00197F1F73C9A84EF8093BB0027
:1019400084E88093BC008091BC0087FD10C020E03B
:1019500030E004C02A35310509F443C02F5F3F4F02
:101960008091BC0087FFF6CF29353105D4F580EA98
:101970009FE00197F1F73C9A8EE28093BB0084E8E8
:101980008093BC008091BC0087FD0FC020E030E058
:1019900003C02A35310501F12F5F3F4F8091BC0014
:1019A00087FFF7CF29353105BCF484E98093BC006B
:1019B00080E49CE90197F1F786EF0E94AC0A9C0154
:1019C000442737FD4095542FB901CA01089580E09E
:1019D00091E00E9496328CCF80E091E00E94963296
:1019E000E4CF80E091E00E949632C1CF80E091E0A8
:1019F0000E9496329DCF8AEA0E94AC0A90936704B7
:101A0000809366048CEA0E94AC0A90936F048093E2
:101A10006E048EEA0E94AC0A909377048093760459
:101A200080EB0E94AC0A909373048093720482EB63
:101A30000E94AC0A90936D0480936C0484EB0E9426
:101A4000AC0A90936B0480936A0486EB0E94AC0A04
:101A5000909369048093680488EB0E94AC0A909389
:101A60005F0480935E048AEB0E94AC0A9093650445
:101A7000809364048CEB0E94AC0A9093750480936D
:101A800074048EEB0E94AC0A9093710480937004EE
:101A900008954F925F926F927F928F929F92AF9232
:101AA000BF92CF92DF92EF92FF920F931F93CF934B
:101AB000DF93FF2403E111E081E32FEBC22E23E04B
:101AC000D22E9FEFA92E93E0B92EB0EB8B2EB4E06F
:101AD0009B2E612CABE47A2EF2E0EF2EE0E85E2E36
:101AE00076E0472EC0E9D1E081340CF075C1682F53
:101AF00060536C3008F075C1862F90E00197940117
:101B0000082E02C0220F331F0A94E2F70697F30152
:101B100002C0EE0FFF1F8A95E2F740E050E0673009
:101B200010F041E050E0E49FC001E59F900DF49F6C
:101B3000900D1124281B390B442737FD4095542F55
:101B4000220F331F441F551F220F331F441F551FE1
:101B500060E074E284EF90E00E941531C901DA017F
:101B60000197A109B109B695A795979587959C010D
:101B7000F8941092B8038091B8038093B703109241
:101B8000BC038091BC038093BB03D092BA03C09284
:101B9000B903B092BE03A092BD033093CD00209351
:101BA000CC00E092C8005092C9008091C9008861C1
:101BB0008093C9004092CA00789430E021E480917B
:101BC000B8038F5F8093B8038091B803803410F01E
:101BD0001092B8039091B7038091B8039817D1F38E
:101BE000E091B903F091BA038091B803E80FF11DB9
:101BF00020838091C90080628093C9003F5FE32FFA
:101C0000F0E0E05EFE4F20812223C9F620E030E0C4
:101C1000CE010197F1F72F5F3F4F87E0203D380756
:101C2000B9F7F80180818093B60345E09091BC0339
:101C30008091BB039817D0F09091BC038091BB03B7
:101C4000981BD9F44423B9F120E030E0CE0101978C
:101C5000F1F72F5F3F4FF3E0283E3F07B9F74150C0
:101C60009091BC038091BB03981730F79091BC030F
:101C70008091BB03985D981B29F34423E1F0909178
:101C8000BC038091BB039817D1F38091BB038F5F96
:101C90008093BB038091BB03883210F01092BB038A
:101CA000E091BD03F091BE038091BB03E80FF11DED
:101CB00080818F3451F0F3940F2D10E00D5E1E4F94
:101CC000F8018081882309F00FCF8091B603813419
:101CD0000CF093C0282F20532C3008F085C0822FA1
:101CE00090E0019760EB74E0082E02C0660F771F4A
:101CF0000A94E2F7069740E05BE402C0440F551FE8
:101D00008A95E2F780E090E0273010F081E090E0E3
:101D1000489F9001499F300D589F300D1124CB01F1
:101D2000821B930B7C010027F7FC0095102FA80164
:101D30009701220F331F441F551F220F331F441FCB
:101D4000551F60E074E284EF90E00E941531C901F4
:101D5000DA010197A109B109B695A79597958795DD
:101D60009C01F8941092B8038091B8038093B70354
:101D70001092BC038091BC038093BB03D092BA0342
:101D8000C092B903B092BE03A092BD033093CD00C0
:101D90002093CC0082E08093C80080E88093C90043
:101DA0008091C90088618093C90086E08093CA0051
:101DB0007894B701C801DF91CF911F910F91FF90E7
:101DC000EF90DF90CF90BF90AF909F908F907F90DB
:101DD0006F905F904F900895682F67536C3008F4B0
:101DE0008BCE20E030E0C4CEE12CA8E1FA2EA5E1B4
:101DF0000A2F112D20E030E0B4CF282F27536CCFCD
:101E0000CF93DF93DC01EB0184B1806384B92C9A1A
:101E10002D9A20E030E060E971E0CB010197F1F705
:101E20002F5F3F4F83E0283E3807B9F72C9820E01A
:101E300030E060E971E0CB010197F1F72F5F3F4F90
:101E40008DE12C343807B9F730E021E48091B803F4
:101E50008F5F8093B8038091B803803410F01092A4
:101E6000B8039091B7038091B8039817D1F3E0912C
:101E7000B903F091BA038091B803E80FF11D2083F4
:101E80008091C90080628093C9003F5FE32FF0E03A
:101E9000ED5DFE4F20812223C9F62C91222339F1DA
:101EA00030E08091B8038F5F8093B8038091B803CE
:101EB000803410F01092B8039091B7038091B8036A
:101EC0009817D1F3E091B903F091BA038091B80368
:101ED000E80FF11D20838091C90080628093C900C2
:101EE0003F5FFD01E30FF11D20812223D1F620E0A9
:101EF00030E060E971E0CB010197F1F72F5F3F4FD0
:101F00008DE12C343807B9F730E021E48091B80333
:101F10008F5F8093B8038091B803803410F01092E3
:101F2000B8039091B7038091B8039817D1F3E0916B
:101F3000B903F091BA038091B803E80FF11D208333
:101F40008091C90080628093C9003F5FE32FF0E079
:101F5000E55DFE4F20812223C9F62881222339F135
:101F600030E08091B8038F5F8093B8038091B8030D
:101F7000803410F01092B8039091B7038091B803A9
:101F80009817D1F3E091B903F091BA038091B803A7
:101F9000E80FF11D20838091C90080628093C90001
:101FA0003F5FFE01E30FF11D20812223D1F620E0E7
:101FB00030E060E971E0CB010197F1F72F5F3F4F0F
:101FC0008DE12C343807B9F730E021E48091B80373
:101FD0008F5F8093B8038091B803803410F0109223
:101FE000B8039091B7038091B8039817D1F3E091AB
:101FF000B903F091BA038091B803E80FF11D208373
:102000008091C90080628093C9003F5FE32FF0E0B8
:10201000EE5CFE4F20812223C9F68091B8038F5FCA
:102020008093B8038091B803803410F01092B80305
:102030009091B7038091B8039817D1F3E091B90359
:10204000F091BA038091B803E80FF11D40838091AD
:10205000C90080628093C90020E030E060E971E04F
:10206000CB010197F1F72F5F3F4F8DE12C343807FB
:10207000B9F72D982C9A20E030E060E971E0CB01AF
:102080000197F1F72F5F3F4F83E0283E3807B9F7FC
:102090002C984093B6038091B60381340CF071C044
:1020A000E82FE053EC3008F071C08E2F90E00197DC
:1020B00020EB34E0082E02C0220F331F0A94E2F70F
:1020C000069740E05BE402C0440F551F8A95E2F793
:1020D00060E070E0E73008F05CC0469FC001479FB9
:1020E000900D569F900D1124281B390B442737FD66
:1020F0004095542F220F331F441F551F220F331FAB
:10210000441F551F60E074E284EF90E00E94153197
:10211000C901DA010197A109B109B695A79597956B
:1021200087959C01F8941092B8038091B80380932E
:10213000B7031092BC038091BC038093BB038FEB69
:1021400093E09093BA038093B9038FEF93E0909359
:10215000BE038093BD033093CD002093CC0082E07A
:102160008093C80080E88093C9008091C90088618D
:102170008093C90086E08093CA007894DF91CF9164
:102180000895E82FE753EC3008F48FCF20E030E0DB
:10219000C9CF61E070E0A1CF2F923F924F925F9242
:1021A0006F927F928F929F92AF92BF92CF92DF9267
:1021B000EF92FF920F931F93DF93CF9300D000D045
:1021C00000D0CDB7DEB74C017E836D833C9A84EAA4
:1021D0008093BC008091BC0087FD11C020E030E0FE
:1021E00004C02A35310509F48BC32F5F3F4F80911E
:1021F000BC0087FFF6CF293531050CF081C380EA9A
:102200009FE00197F1F73C9A8EEE8093BB0084E843
:102210008093BC008091BC0087FD11C020E030E0BD
:1022200004C02A35310509F4B6C32F5F3F4F8091B2
:10223000BC0087FFF6CF293531050CF0ACC380EA2E
:102240009FE00197F1F73C9A84EF8093BB0084E80C
:102250008093BC008091BC0087FD11C020E030E07D
:1022600004C02A35310509F491C32F5F3F4F809197
:10227000BC0087FFF6CF293531050CF087C380EA13
:102280009FE00197F1F73C9A8EE28093BB0084E8CF
:102290008093BC008091BC0087FD11C020E030E03D
:1022A00004C02A35310509F46CC32F5F3F4F80917C
:1022B000BC0087FFF6CF293531050CF062C384E9F5
:1022C0008093BC0080E49CE90197F1F786EF0E94BF
:1022D000AC0A3C9A84EA8093BC008091BC0087FDE4
:1022E00011C020E030E004C02A35310509F444C3B0
:1022F0002F5F3F4F8091BC0087FFF6CF2935310516
:102300000CF03AC380EA9FE00197F1F73C9A8EEE19
:102310008093BB0084E88093BC008091BC0087FD63
:1023200011C020E030E004C02A35310509F41FC394
:102330002F5F3F4F8091BC0087FFF6CF29353105D5
:102340000CF015C380EA9FE00197F1F73C9A84EF07
:102350008093BB0084E88093BC008091BC0087FD23
:1023600011C020E030E004C02A35310509F4FAC27A
:102370002F5F3F4F8091BC0087FFF6CF2935310595
:102380000CF0F0C280EA9FE00197F1F73C9A8EE2F0
:102390008093BB0084E88093BC008091BC0087FDE3
:1023A00011C020E030E004C02A35310509F4D5C25F
:1023B0002F5F3F4F8091BC0087FFF6CF2935310555
:1023C0000CF0CBC284E98093BC0080E49CE90197C7
:1023D000F1F786EF0E94AC0A6C013C9A84EA809384
:1023E000BC008091BC0087FD11C020E030E004C03B
:1023F0002A35310509F4ACC22F5F3F4F8091BC00F4
:1024000087FFF6CF293531050CF0A2C280EA9FE0A4
:102410000197F1F73C9A8EEE8093BB0084E880939D
:10242000BC008091BC0087FD11C020E030E004C0FA
:102430002A35310509F487C22F5F3F4F8091BC00D8
:1024400087FFF6CF293531050CF07DC280EA9FE089
:102450000197F1F73C9A84EF8093BB0084E8809366
:10246000BC008091BC0087FD11C020E030E004C0BA
:102470002A35310509F462C22F5F3F4F8091BC00BD
:1024800087FFF6CF293531050CF058C280EA9FE06E
:102490000197F1F73C9A84E38093BB0084E8809332
:1024A000BC008091BC0087FD11C020E030E004C07A
:1024B0002A35310509F43DC22F5F3F4F8091BC00A2
:1024C00087FFF6CF293531050CF033C284E98093BC
:1024D000BC0080E49CE90197F1F786EF0E94AC0A0A
:1024E0003C9A84EA8093BC008091BC0087FD11C0B7
:1024F00020E030E004C02A35310509F415C22F5F11
:102500003F4F8091BC0087FFF6CF293531050CF095
:102510000BC280EA9FE00197F1F73C9A8EEE809320
:10252000BB0084E88093BC008091BC0087FD11C093
:1025300020E030E004C02A35310509F4F0C12F5FF6
:102540003F4F8091BC0087FFF6CF293531050CF055
:10255000E6C180EA9FE00197F1F73C9A84EF80930F
:10256000BB0084E88093BC008091BC0087FD11C053
:1025700020E030E004C02A35310509F4CBC12F5FDB
:102580003F4F8091BC0087FFF6CF293531050CF015
:10259000C1C180EA9FE00197F1F73C9A84E3809300
:1025A000BB0084E88093BC008091BC0087FD11C013
:1025B00020E030E004C02A35310509F4A6C12F5FC0
:1025C0003F4F8091BC0087FFF6CF293531050CF0D5
:1025D0009CC184E98093BC0080E49CE90197F1F7F9
:1025E00086EF0E94AC0A1C01B601882777FD809512
:1025F000982F20916A0430916B0440E050E0621BF8
:10260000730B840B950B20916C0430916D0440E0AA
:1026100050E00E94E2307B018C013FE01595079568
:10262000F794E7943A95D1F760917404709175042A
:10263000882777FD8095982F2BE0660F771F881FDE
:10264000991F2A95D1F72091700430917104442785
:1026500037FD4095542F2E0D3F1D401F511F0E94E6
:10266000373159016A01AE0CBF1CC01ED11E88E073
:1026700090E0A0E0B0E0A80EB91ECA1EDB1ED60195
:10268000C50114E0B595A795979587951A95D1F74B
:10269000F40180839183A283B38388E590EFAFEF49
:1026A000BFEFA80EB91ECA1EDB1EC601B501A601EA
:1026B00095010E94E2303B014C01ACE09594879477
:1026C00077946794AA95D1F7209176043091770496
:1026D000442737FD4095542FC601B5010E94E230D2
:1026E0007B018C01FDE015950795F794E794FA9529
:1026F000D1F782E090E0A0E0B0E0E80EF91E0A1FFA
:102700001B1F2091680430916904442737FD4095D0
:10271000542FC401B3010E94E230BC01992777FD18
:102720009095892FE60EF71E081F191F159507951E
:10273000F794E79415950795F794E79480E090E86F
:10274000A0E0B0E0E80EF91E0A1F1B1F20917204E2
:102750003091730440E050E0C801B7010E94E230BC
:10276000DC01CB015FE0B695A795979587955A95C3
:10277000D1F789839A83AB83BC8344245524E090AA
:102780006604F09067040027F7FC0095102FEE0C0C
:10279000FF1C001F111FEE0CFF1C001F111F82E009
:1027A00090E0A0E0B0E0E80EF91E0A1F1B1F209188
:1027B0006E0430916F04442737FD4095542FC601B5
:1027C000B5010E94E2303BE0959587957795679536
:1027D0003A95D1F7E60EF71E081F191F20915E04E7
:1027E00030915F04442737FD4095542FC401B30155
:1027F0000E94E2302BE095958795779567952A950D
:10280000D1F7E60EF71E081F191FC801B70124E013
:1028100030E040E050E00E943731221A330A440A87
:10282000550AC201B10120E533EC40E050E00E94BE
:10283000E23097FDB5C0660F771F881F991F298169
:102840003A814B815C810E941531C901DA015C013A
:102850006D015527D7FC5A954D2D3C2D2B2DCA01C6
:10286000B9010E94E2302EED3BE040E050E00E94D2
:10287000E2307B018C01C601B50123E433EE4FEF5A
:102880005FEF0E94E230BC01992777FD9095892F78
:102890006153714F8F4F9F4F78011127F7FC1095AF
:1028A000012F6E0D7F1D801F911FE4E09595879588
:1028B00077956795EA95D1F76A0D7B1D8C1D9D1D57
:1028C000AD81BE816D937D938D939C9313972696D6
:1028D0000FB6F894DEBF0FBECDBFCF91DF911F9131
:1028E0000F91FF90EF90DF90CF90BF90AF909F90AF
:1028F0008F907F906F905F904F903F902F900895B2
:1029000080E091E00E9496327ACC80E091E00E94D3
:1029100096325FCE80E091E00E9496323ACE80E01F
:1029200091E00E94963215CE80E091E00E949632AE
:10293000F0CD80E091E00E949632C8CD80E091E039
:102940000E949632A3CD80E091E00E9496327ECD27
:1029500080E091E00E94963259CD80E091E00E94A3
:10296000963230CD80E091E00E9496320BCD80E02F
:1029700091E00E949632E6CC80E091E00E9496328F
:10298000C1CC80E091E00E94963299CC80E091E049
:102990000E94963274CC80E091E00E9496324FCC37
:1029A00029813A814B815C810E94153159016A016C
:1029B000AA0CBB1CCC1CDD1C4CCF9C01CB01B9016B
:1029C0000E94CC1008952F923F924F925F926F9287
:1029D0007F928F929F92AF92BF92CF92DF92EF92AF
:1029E000FF920F931F93CF93DF93EC012B011A01FA
:1029F00040E050E060E070E020E030E080917C005A
:102A0000807E80937C0080917C00816080937C003C
:102A100080917A0086FDFCCF80917C008F7D809331
:102A20007C0080917A00806480937A0080917A00A3
:102A300086FDFCCF8091780090917900A0E0B0E015
:102A4000480F591F6A1F7B1F2F5F3F4F25303105ED
:102A5000A9F6AA24BB24650120E030E080917C0027
:102A6000807E80937C0080917C00826080937C00DB
:102A700080917A0086FDFCCF80917C008F7D8093D1
:102A80007C0080917A00806480937A0080917A0043
:102A900086FDFCCF8091780090917900A0E0B0E0B5
:102AA000A80EB91ECA1EDB1E2F5F3F4F2530310511
:102AB000A9F6EE24FF24870120E030E080917C001D
:102AC000807E80937C0080917C00836080937C007A
:102AD00080917A0086FDFCCF80917C008F7D809371
:102AE0007C0080917A00806480937A0080917A00E3
:102AF00086FDFCCF8091780090917900A0E0B0E055
:102B0000E80EF91E0A1F1B1F2F5F3F4F25303105AE
:102B1000A9F6CB01BA0125E030E040E050E00E9488
:102B20001531442737FD4095542FCA01B9010E9441
:102B3000F32F23E333E343E550E40E947F3020E0AA
:102B400030E040E85AE30E947F3026EF38E24CE95B
:102B50005FE30E94F32E20E030E040E850E40E9462
:102B60007F303B014C01C601B50125E030E040E07B
:102B700050E00E941531442737FD4095542FCA017B
:102B8000B9010E94F32F23E333E343E550E40E94AD
:102B90007F3020E030E040E85AE30E947F3026EFAB
:102BA00038E24CE95FE30E94F32E20E030E040E899
:102BB00050E40E947F305B016C01C801B70125E041
:102BC00030E040E050E00E941531442737FD409549
:102BD000542FCA01B9010E94F32F23E333E343E5E5
:102BE00050E40E947F3020E030E040E85AE30E9449
:102BF0007F3020E030E040EA5FE30E94F32E20E0E7
:102C000030E040E850E40E947F307B018C01C40139
:102C1000B30127E339E849E650E40E94F42E20E0AE
:102C200030E04AE754E40E947F300E94C02F209198
:102C3000AA033091AB03620F731F79836883C601C7
:102C4000B50127E339E849E650E40E94F42E20E07C
:102C500030E04AE754E40E947F300E94C02F209168
:102C6000AC033091AD03620F731FF2017183608377
:102C7000C801B7012CE437E341E750E40E94F42E89
:102C800020E030E04AE754E40E947F300E94C02FE9
:102C90002091AE033091AF03620F731FF101718376
:102CA0006083DF91CF911F910F91FF90EF90DF90A4
:102CB000CF90BF90AF909F908F907F906F905F90DC
:102CC0004F903F902F9008956F927F928F929F9296
:102CD000AF92BF92CF92DF92EF92FF920F931F932A
:102CE000CF93DF93EC014B013A0140E050E060E00C
:102CF00070E020E030E080917C00807E80937C005A
:102D000080917C00816080937C0080917A0086FDB8
:102D1000FCCF80917C008F7D80937C0080917A0035
:102D2000806480937A0080917A0086FDFCCF809148
:102D3000780090917900A0E0B0E0480F591F6A1F19
:102D40007B1F2F5F3F4F25303105A9F6EE24FF246E
:102D5000870120E030E080917C00807E80937C00C1
:102D600080917C00826080937C0080917A0086FD57
:102D7000FCCF80917C008F7D80937C0080917A00D5
:102D8000806480937A0080917A0086FDFCCF8091E8
:102D9000780090917900A0E0B0E0E80EF91E0A1FDB
:102DA0001B1F2F5F3F4F25303105A9F6AA24BB24F6
:102DB000650120E030E080917C00807E80937C0083
:102DC00080917C00836080937C0080917A0086FDF6
:102DD000FCCF80917C008F7D80937C0080917A0075
:102DE000806480937A0080917A0086FDFCCF809188
:102DF000780090917900A0E0B0E0A80EB91ECA1E3C
:102E0000DB1E2F5F3F4F25303105A9F6CB01BA01FC
:102E100025E030E040E050E00E941531442737FDC6
:102E20004095542FCA01B9010E94F32F23E333E3E5
:102E300043E550E40E947F3020E030E040E85AE370
:102E40000E947F3026EF38E24CE95FE30E94F32EC8
:102E500020E030E040E850E40E947F3068837983CE
:102E60008A839B83C801B70125E030E040E050E051
:102E70000E941531442737FD4095542FCA01B901EE
:102E80000E94F32F23E333E343E550E40E947F30B5
:102E900020E030E040E85AE30E947F3026EF38E23D
:102EA0004CE95FE30E94F32E20E030E040E850E47C
:102EB0000E947F30F4016083718382839383C60113
:102EC000B50125E030E040E050E00E941531442794
:102ED00037FD4095542FCA01B9010E94F32F23E317
:102EE00033E343E550E40E947F3020E030E040E8E7
:102EF0005AE30E947F3020E030E040EA5FE30E9426
:102F0000F32E20E030E040E850E40E947F30F301EF
:102F10006083718382839383688179818A819B81B5
:102F200027E339E849E650E40E94F42E6883798368
:102F30008A839B83F401608171818281938127E37D
:102F400039E849E650E40E94F42EF401608371836D
:102F500082839383F30160817181828193812CE468
:102F600037E341E750E40E94F42EF301608371835C
:102F700082839383DF91CF911F910F91FF90EF9008
:102F8000DF90CF90BF90AF909F908F907F906F9089
:102F90000895DC019C91992309F447C01196439A46
:102FA0008CB58C7F81608CBD8DB581608DBD409866
:102FB0001EBC0DB407FEFDCF409A8EB5892F90E060
:102FC0008097FC01EE0FFF1FEE0FFF1FE80FF91FA8
:102FD000EE53FE4F20E030E08081439A9CB59C7F09
:102FE00091609CBD9DB591609DBD40988EBD0DB416
:102FF00007FEFDCF409A8EB52F5F3F4F31962530AB
:10300000310551F7439A8CB58C7F81608CBD8DB5AD
:1030100081608DBD40981EBC0DB407FEFDCF409A67
:103020008EB59C91992309F0B9CF08951F9310E8AC
:103030001093610010926100549A3A9A5C9A8098B9
:1030400080917C00806480937C0080917A008093E2
:103050007A0080917A00806880937A00209A289A7A
:103060000E94130A43988CB58C7F81608CBD8DB50E
:1030700081608DBD40981EBD0DB407FEFDCF409A06
:103080008EB543988CB58C7F81608CBD8DB5816089
:103090008DBD409880E48EBD0DB407FEFDCF409AF3
:1030A0008EB520E030E0439A8CB58C7F81608CBD7A
:1030B0008DB581608DBD40981EBC0DB407FEFDCF5F
:1030C000409A8EB52F5F3F4F82E0203A380759F77C
:1030D00080B3817F80BB8AEC96E2ABE9B2E4809357
:1030E000370490933804A0933904B0933A041092B3
:1030F00080008CE080938100109285001092840003
:1031000082E19AE7909389008093880022E02093DF
:103110006F001092900089E08093910010929500CA
:103120001092940080EC93E0909399008093980023
:103130002093710020E030E040E951E0CA0101979E
:10314000F1F72F5F3F4F83E0283E3807B9F78AEA4F
:103150000E94AC0A90936704809366048CEA0E94F4
:10316000AC0A90936F0480936E048EEA0E94AC0ABE
:10317000909377048093760480EB0E94AC0A90933E
:1031800073048093720482EB0E94AC0A90936D04E6
:1031900080936C0484EB0E94AC0A90936B04809340
:1031A0006A0486EB0E94AC0A9093690480936804D9
:1031B00088EB0E94AC0A90935F0480935E048AEBD4
:1031C0000E94AC0A90936504809364048CEB0E9487
:1031D000AC0A90937504809374048EEB0E94AC0A41
:1031E00090937104809370046E98769880916A0031
:1031F000806180936A00EE9A24982C9A5C981F91C3
:1032000008958AEA0E94AC0A90936704809366044A
:103210008CEA0E94AC0A90936F0480936E048EEA4D
:103220000E94AC0A909377048093760480EB0E940E
:10323000AC0A909373048093720482EB0E94AC0AF0
:1032400090936D0480936C0484EB0E94AC0A90937D
:103250006B0480936A0486EB0E94AC0A9093690425
:103260008093680488EB0E94AC0A90935F0480937B
:103270005E048AEB0E94AC0A909365048093640418
:103280008CEB0E94AC0A90937504809374048EEBCF
:103290000E94AC0A909371048093700408954F9239
:1032A0005F926F927F928F929F92AF92BF92CF92D6
:1032B000DF92EF92FF920F931F9320E030E0439A4A
:1032C0008CB58C7F81608CBD8DB581608DBD409843
:1032D0001EBC0DB407FEFDCF409A8EB52F5F3F4F49
:1032E00082E0203A380759F743988CB58C7F81608B
:1032F0008CBD8DB581608DBD40988FE88EBD0DB4BD
:1033000007FEFDCF409A8EB543988CB58C7F8160C7
:103310008CBD8DB581608DBD409881E48EBD0DB4AE
:1033200007FEFDCF409A8EB5AAE3B1E090913A0135
:10333000992309F447C01196439A8CB58C7F81601C
:103340008CBD8DB581608DBD40981EBC0DB407FE4F
:10335000FDCF409A8EB5892F90E08097FC01EE0F4B
:10336000FF1FEE0FFF1FE80FF91FEE53FE4F20E087
:1033700030E08081439A9CB59C7F91609CBD9DB557
:1033800091609DBD40988EBD0DB407FEFDCF409A63
:103390008EB52F5F3F4F31962530310551F7439A57
:1033A0008CB58C7F81608CBD8DB581608DBD409862
:1033B0001EBC0DB407FEFDCF409A8EB59C9199239B
:1033C00009F0B9CF43988CB58C7F81608CBD8DB5E9
:1033D00081608DBD409885E88EBD0DB407FEFDCFA0
:1033E000409A8EB543988CB58C7F81608CBD8DB52D
:1033F00081608DBD409883E48EBD0DB407FEFDCF86
:10340000409A8EB5A3E4B1E090914301992309F469
:1034100047C01196439A8CB58C7F81608CBD8DB569
:1034200081608DBD40981EBC0DB407FEFDCF409A53
:103430008EB5892F90E08097FC01EE0FFF1FEE0FF5
:10344000FF1FE80FF91FEE53FE4F20E030E08081B0
:10345000439A9CB59C7F91609CBD9DB591609DBD3C
:1034600040988EBD0DB407FEFDCF409A8EB52F5FFC
:103470003F4F31962530310551F7439A8CB58C7FFB
:1034800081608CBD8DB581608DBD40981EBC0DB432
:1034900007FEFDCF409A8EB59C91992309F0B9CFD4
:1034A00043988CB58C7F81608CBD8DB581608DBD5E
:1034B000409880E88EBD0DB407FEFDCF409A8EB5D2
:1034C00043988CB58C7F81608CBD8DB581608DBD3E
:1034D000409884E48EBD0DB407FEFDCF409A8EB5B2
:1034E000AFE4B1E090914F01992309F447C01196E0
:1034F000439A8CB58C7F81608CBD8DB581608DBD0C
:1035000040981EBC0DB407FEFDCF409A8EB5892FA2
:1035100090E08097FC01EE0FFF1FEE0FFF1FE80FFA
:10352000F91FEE53FE4F20E030E08081439A9CB5B6
:103530009C7F91609CBD9DB591609DBD40988EBD66
:103540000DB407FEFDCF409A8EB52F5F3F4F3196E9
:103550002530310551F7439A8CB58C7F81608CBD45
:103560008DB581608DBD40981EBC0DB407FEFDCFAA
:10357000409A8EB59C91992309F0B9CF20E030E0B4
:1035800040E951E0CA010197F1F72F5F3F4F83E116
:1035900028383807B9F740E050E060E070E020E0FC
:1035A00030E080917C00807E80937C0080917C0064
:1035B000816080937C0080917A0086FDFCCF8091B1
:1035C0007C008F7D80937C0080917A008064809362
:1035D0007A0080917A0086FDFCCF809178009091EE
:1035E0007900A0E0B0E0480F591F6A1F7B1F2F5FD2
:1035F0003F4F25303105A9F6AA24BB24650120E000
:1036000030E080917C00807E80937C0080917C0003
:10361000826080937C0080917A0086FDFCCF80914F
:103620007C008F7D80937C0080917A008064809301
:103630007A0080917A0086FDFCCF8091780090918D
:103640007900A0E0B0E0A80EB91ECA1EDB1E2F5FF5
:103650003F4F25303105A9F6EE24FF24870120E0F5
:1036600030E080917C00807E80937C0080917C00A3
:10367000836080937C0080917A0086FDFCCF8091EE
:103680007C008F7D80937C0080917A0080648093A1
:103690007A0080917A0086FDFCCF8091780090912D
:1036A0007900A0E0B0E0E80EF91E0A1F1B1F2F5F93
:1036B0003F4F25303105A9F6CB01BA0125E030E0B6
:1036C00040E050E00E941531442737FD4095542FCB
:1036D000CA01B9010E94F32F23E333E343E550E429
:1036E0000E947F3020E030E040E85AE30E947F30C3
:1036F00026EF38E24CE95FE30E94F32E20E030E051
:1037000040E850E40E947F302B013C01C601B50126
:1037100025E030E040E050E00E941531442737FDBD
:103720004095542FCA01B9010E94F32F23E333E3DC
:1037300043E550E40E947F3020E030E040E85AE367
:103740000E947F3026EF38E24CE95FE30E94F32EBF
:1037500020E030E040E850E40E947F305B016C01E3
:10376000C801B70125E030E040E050E00E9415318B
:10377000442737FD4095542FCA01B9010E94F32F09
:1037800023E333E343E550E40E947F3020E030E060
:1037900040E85AE30E947F3020E030E040EA5FE3F7
:1037A0000E94F32E20E030E040E850E40E947F3099
:1037B0007B018C01C601B50127E339E849E650E4F5
:1037C0000E94F42E20E030E04AE754E40E947F306B
:1037D0000E94C02F5B016C018091AC039091AD03FE
:1037E000A80EB91EC801B7012CE437E341E750E445
:1037F0000E94F42E20E030E04AE754E40E947F303B
:103800000E94C02F7B018C018091AE039091AF0389
:10381000E80EF91E5EE4852E912C8091AA0390910A
:10382000AB03881A990AC301B20127E339E849E6D4
:1038300050E40E94F42E20E030E04AE754E40E9475
:103840007F300E94C02F861A970A9092AB03809215
:10385000AA03B094A194B108B394B092AD03A0921E
:10386000AC03F094E194F108F394F092AF03E0928A
:10387000AE0320E030E0439A8CB58C7F81608CBD34
:103880008DB581608DBD40981EBC0DB407FEFDCF87
:10389000409A8EB52F5F3F4F82E0203A380759F7A4
:1038A0001F910F91FF90EF90DF90CF90BF90AF905E
:1038B0009F908F907F906F905F904F900895CF92E0
:1038C000DF92EF92FF920F931F93DF93CF93CDB7C9
:1038D000DEB72A970FB6F894DEBF0FBECDBF8DB707
:1038E0009EB708970FB6F8949EBF0FBE8DBFEDB779
:1038F000FEB731967E010894E11CF11CADB7BEB74E
:103900001296FC92EE9211970DE511E0138302835B
:103910008091440490914504A0914604B0914704DD
:1039200084839583A683B7830E94CB32EDB7FEB71D
:10393000319676E0C72ED12CCC0EDD1EADB7BEB7CA
:103940001296DC92CE9211971383028380914804E1
:1039500090914904A0914A04B0914B0484839583CB
:10396000A683B7830E94CB3243988CB58C7F81604D
:103970008CBD8DB581608DBD409880E88EBD8DB7C2
:103980009EB708960FB6F8949EBF0FBE8DBF0DB4BC
:1039900007FEFDCF409A8EB543988CB58C7F816031
:1039A0008CBD8DB581608DBD409880E48EBD0DB419
:1039B00007FEFDCF409A8EB5A3E6B1E0909163017A
:1039C000992309F447C01196439A8CB58C7F816086
:1039D0008CBD8DB581608DBD40981EBC0DB407FEB9
:1039E000FDCF409A8EB5892F90E08097FC01EE0FB5
:1039F000FF1FEE0FFF1FE80FF91FEE53FE4F20E0F1
:103A000030E08081439A9CB59C7F91609CBD9DB5C0
:103A100091609DBD40988EBD0DB407FEFDCF409ACC
:103A20008EB52F5F3F4F31962530310551F7439AC0
:103A30008CB58C7F81608CBD8DB581608DBD4098CB
:103A40001EBC0DB407FEFDCF409A8EB59C91992304
:103A500009F0B9CF43988CB58C7F81608CBD8DB552
:103A600081608DBD40988AEA8EBD0DB407FEFDCF02
:103A7000409A8EB543988CB58C7F81608CBD8DB596
:103A800081608DBD409880E48EBD0DB407FEFDCFF2
:103A9000409A8EB59981992309F448C0D7011196AF
:103AA000439A8CB58C7F81608CBD8DB581608DBD56
:103AB00040981EBC0DB407FEFDCF409A8EB5892FED
:103AC00090E08097FC01EE0FFF1FEE0FFF1FE80F45
:103AD000F91FEE53FE4F20E030E08081439A9CB501
:103AE0009C7F91609CBD9DB591609DBD40988EBDB1
:103AF0000DB407FEFDCF409A8EB52F5F3F4F319634
:103B00002530310551F7439A8CB58C7F81608CBD8F
:103B10008DB581608DBD40981EBC0DB407FEFDCFF4
:103B2000409A8EB59C91992309F0B9CFAEE6B1E0E9
:103B300090916E01992309F447C01196439A8CB570
:103B40008C7F81608CBD8DB581608DBD40981EBC21
:103B50000DB407FEFDCF409A8EB5892F90E0809777
:103B6000FC01EE0FFF1FEE0FFF1FE80FF91FEE53D2
:103B7000FE4F20E030E08081439A9CB59C7F9160AD
:103B80009CBD9DB591609DBD40988EBD0DB407FE56
:103B9000FDCF409A8EB52F5F3F4F319625303105CE
:103BA00051F7439A8CB58C7F81608CBD8DB5816057
:103BB0008DBD40981EBC0DB407FEFDCF409A8EB55A
:103BC0009C91992309F0B9CF43988CB58C7F816083
:103BD0008CBD8DB581608DBD409880E88EBD0DB4E3
:103BE00007FEFDCF409A8EB543988CB58C7F8160DF
:103BF0008CBD8DB581608DBD409881E48EBD0DB4C6
:103C000007FEFDCF409A8EB5A0E7B1E0909170011C
:103C1000992309F447C01196439A8CB58C7F816033
:103C20008CBD8DB581608DBD40981EBC0DB407FE66
:103C3000FDCF409A8EB5892F90E08097FC01EE0F62
:103C4000FF1FEE0FFF1FE80FF91FEE53FE4F20E09E
:103C500030E08081439A9CB59C7F91609CBD9DB56E
:103C600091609DBD40988EBD0DB407FEFDCF409A7A
:103C70008EB52F5F3F4F31962530310551F7439A6E
:103C80008CB58C7F81608CBD8DB581608DBD409879
:103C90001EBC0DB407FEFDCF409A8EB59C919923B2
:103CA00009F0B9CF43988CB58C7F81608CBD8DB500
:103CB00081608DBD40988AEA8EBD0DB407FEFDCFB0
:103CC000409A8EB543988CB58C7F81608CBD8DB544
:103CD00081608DBD409881E48EBD0DB407FEFDCF9F
:103CE000409A8EB59E81992309F448C0D601119659
:103CF000439A8CB58C7F81608CBD8DB581608DBD04
:103D000040981EBC0DB407FEFDCF409A8EB5892F9A
:103D100090E08097FC01EE0FFF1FEE0FFF1FE80FF2
:103D2000F91FEE53FE4F20E030E08081439A9CB5AE
:103D30009C7F91609CBD9DB591609DBD40988EBD5E
:103D40000DB407FEFDCF409A8EB52F5F3F4F3196E1
:103D50002530310551F7439A8CB58C7F81608CBD3D
:103D60008DB581608DBD40981EBC0DB407FEFDCFA2
:103D7000409A8EB59C91992309F0B9CFACE7B1E098
:103D800090917C01992309F447C01196439A8CB510
:103D90008C7F81608CBD8DB581608DBD40981EBCCF
:103DA0000DB407FEFDCF409A8EB5892F90E0809725
:103DB000FC01EE0FFF1FEE0FFF1FE80FF91FEE5380
:103DC000FE4F20E030E08081439A9CB59C7F91605B
:103DD0009CBD9DB591609DBD40988EBD0DB407FE04
:103DE000FDCF409A8EB52F5F3F4F3196253031057C
:103DF00051F7439A8CB58C7F81608CBD8DB5816005
:103E00008DBD40981EBC0DB407FEFDCF409A8EB507
:103E10009C91992309F0B9CF2A960FB6F894DEBF8A
:103E20000FBECDBFCF91DF911F910F91FF90EF900B
:103E3000DF90CF9008956F927F928F929F92AF9272
:103E4000BF92CF92DF92EF92FF920F931F93DF9377
:103E5000CF93CDB7DEB76E970FB6F894DEBF0FBE27
:103E6000CDBF40E050E060E070E020E030E08091C5
:103E70007C00807E80937C0080917C0081608093B8
:103E80007C0080917A0086FDFCCF80917C008F7D44
:103E900080937C0080917A00806480937A00809186
:103EA0007A0086FDFCCF8091780090917900A0E0A7
:103EB000B0E0480F591F6A1F7B1F2F5F3F4F25300F
:103EC0003105A9F6AA24BB24650120E030E08091E9
:103ED0007C00807E80937C0080917C008260809357
:103EE0007C0080917A0086FDFCCF80917C008F7DE4
:103EF00080937C0080917A00806480937A00809126
:103F00007A0086FDFCCF8091780090917900A0E046
:103F1000B0E0A80EB91ECA1EDB1E2F5F3F4F253032
:103F20003105A9F6EE24FF24870120E030E08091DE
:103F30007C00807E80937C0080917C0083608093F5
:103F40007C0080917A0086FDFCCF80917C008F7D83
:103F500080937C0080917A00806480937A008091C5
:103F60007A0086FDFCCF8091780090917900A0E0E6
:103F7000B0E0E80EF91E0A1F1B1F2F5F3F4F2530D0
:103F80003105A9F6CB01BA0125E030E040E050E070
:103F90000E941531442737FD4095542FCA01B901BD
:103FA0000E94F32F23E333E343E550E40E947F3084
:103FB00020E030E040E85AE30E947F3026EF38E20C
:103FC0004CE95FE30E94F32E20E030E040E850E44B
:103FD0000E947F303B014C01C601B50125E030E075
:103FE00040E050E00E941531442737FD4095542FA2
:103FF000CA01B9010E94F32F23E333E343E550E400
:104000000E947F3020E030E040E85AE30E947F3099
:1040100026EF38E24CE95FE30E94F32E20E030E027
:1040200040E850E40E947F305B016C01C801B70199
:1040300025E030E040E050E00E941531442737FD94
:104040004095542FCA01B9010E94F32F23E333E3B3
:1040500043E550E40E947F3020E030E040E85AE33E
:104060000E947F3020E030E040EA5FE30E94F32EC0
:1040700020E030E040E850E40E947F307B018C017A
:10408000C601B50127E339E849E650E40E94F42E61
:1040900020E030E04AE754E40E947F300E94C02FC5
:1040A0005B016C018091AC039091AD03A80EB91E29
:1040B000C801B7012CE437E341E750E40E94F42E35
:1040C00020E030E04AE754E40E947F300E94C02F95
:1040D0007B018C018091AE039091AF03E80EF91E35
:1040E000C401B30127E339E849E650E40E94F42E05
:1040F00020E030E04AE754E40E947F300E94C02F65
:10410000DC01CB012091AA033091AB03820F931FF6
:104110008E010F5F1F4FB8014AE050E00E94493204
:104120007BE0C72ED12CCC0EDD1EC501B6014AE0C6
:1041300050E00E94493265E1A62EB12CAC0EBD1EA6
:10414000C701B5014AE050E00E94493243988CB55E
:104150008C7F81608CBD8DB581608DBD409880E87D
:104160008EBD0DB407FEFDCF409A8EB543988CB539
:104170008C7F81608CBD8DB581608DBD409884E45D
:104180008EBD0DB407FEFDCF409A8EB5AEE7B1E00F
:1041900090917E01992309F447C01196439A8CB5FA
:1041A0008C7F81608CBD8DB581608DBD40981EBCBB
:1041B0000DB407FEFDCF409A8EB5892F90E0809711
:1041C000FC01EE0FFF1FEE0FFF1FE80FF91FEE536C
:1041D000FE4F20E030E08081439A9CB59C7F916047
:1041E0009CBD9DB591609DBD40988EBD0DB407FEF0
:1041F000FDCF409A8EB52F5F3F4F31962530310568
:1042000051F7439A8CB58C7F81608CBD8DB58160F0
:104210008DBD40981EBC0DB407FEFDCF409A8EB5F3
:104220009C91992309F0B9CF43988CB58C7F81601C
:104230008CBD8DB581608DBD40988FE88EBD0DB46D
:1042400007FEFDCF409A8EB543988CB58C7F816078
:104250008CBD8DB581608DBD409884E48EBD0DB45C
:1042600007FEFDCF409A8EB5D8019C91992309F4A1
:1042700047C01196439A8CB58C7F81608CBD8DB5FB
:1042800081608DBD40981EBC0DB407FEFDCF409AE5
:104290008EB5892F90E08097FC01EE0FFF1FEE0F87
:1042A000FF1FE80FF91FEE53FE4F20E030E0808142
:1042B000439A9CB59C7F91609CBD9DB591609DBDCE
:1042C00040988EBD0DB407FEFDCF409A8EB52F5F8E
:1042D0003F4F31962530310551F7439A8CB58C7F8D
:1042E00081608CBD8DB581608DBD40981EBC0DB4C4
:1042F00007FEFDCF409A8EB59C91992309F0B9CF66
:1043000043988CB58C7F81608CBD8DB581608DBDEF
:10431000409888EA8EBD0DB407FEFDCF409A8EB559
:1043200043988CB58C7F81608CBD8DB581608DBDCF
:10433000409884E48EBD0DB407FEFDCF409A8EB543
:10434000AAE8B1E090918A01992309F447C0119637
:10435000439A8CB58C7F81608CBD8DB581608DBD9D
:1043600040981EBC0DB407FEFDCF409A8EB5892F34
:1043700090E08097FC01EE0FFF1FEE0FFF1FE80F8C
:10438000F91FEE53FE4F20E030E08081439A9CB548
:104390009C7F91609CBD9DB591609DBD40988EBDF8
:1043A0000DB407FEFDCF409A8EB52F5F3F4F31967B
:1043B0002530310551F7439A8CB58C7F81608CBDD7
:1043C0008DB581608DBD40981EBC0DB407FEFDCF3C
:1043D000409A8EB59C91992309F0B9CF43988CB53A
:1043E0008C7F81608CBD8DB581608DBD409887EBE1
:1043F0008EBD0DB407FEFDCF409A8EB543988CB5A7
:104400008C7F81608CBD8DB581608DBD409884E4CA
:104410008EBD0DB407FEFDCF409A8EB5D6019C919E
:10442000992309F447C01196439A8CB58C7F81601B
:104430008CBD8DB581608DBD40981EBC0DB407FE4E
:10444000FDCF409A8EB5892F90E08097FC01EE0F4A
:10445000FF1FEE0FFF1FE80FF91FEE53FE4F20E086
:1044600030E08081439A9CB59C7F91609CBD9DB556
:1044700091609DBD40988EBD0DB407FEFDCF409A62
:104480008EB52F5F3F4F31962530310551F7439A56
:104490008CB58C7F81608CBD8DB581608DBD409861
:1044A0001EBC0DB407FEFDCF409A8EB59C9199239A
:1044B00009F0B9CF43988CB58C7F81608CBD8DB5E8
:1044C00081608DBD409880E88EBD0DB407FEFDCFA4
:1044D000409A8EB543988CB58C7F81608CBD8DB52C
:1044E00081608DBD409885E48EBD0DB407FEFDCF83
:1044F000409A8EB5A6E9B1E090919601992309F40E
:1045000047C01196439A8CB58C7F81608CBD8DB568
:1045100081608DBD40981EBC0DB407FEFDCF409A52
:104520008EB5892F90E08097FC01EE0FFF1FEE0FF4
:10453000FF1FE80FF91FEE53FE4F20E030E08081AF
:10454000439A9CB59C7F91609CBD9DB591609DBD3B
:1045500040988EBD0DB407FEFDCF409A8EB52F5FFB
:104560003F4F31962530310551F7439A8CB58C7FFA
:1045700081608CBD8DB581608DBD40981EBC0DB431
:1045800007FEFDCF409A8EB59C91992309F0B9CFD3
:1045900043988CB58C7F81608CBD8DB581608DBD5D
:1045A00040988FE88EBD0DB407FEFDCF409A8EB5C2
:1045B00043988CB58C7F81608CBD8DB581608DBD3D
:1045C000409885E48EBD0DB407FEFDCF409A8EB5B0
:1045D000D5019C91992309F447C01196439A8CB553
:1045E0008C7F81608CBD8DB581608DBD40981EBC77
:1045F0000DB407FEFDCF409A8EB5892F90E08097CD
:10460000FC01EE0FFF1FEE0FFF1FE80FF91FEE5327
:10461000FE4F20E030E08081439A9CB59C7F916002
:104620009CBD9DB591609DBD40988EBD0DB407FEAB
:10463000FDCF409A8EB52F5F3F4F31962530310523
:1046400051F7439A8CB58C7F81608CBD8DB58160AC
:104650008DBD40981EBC0DB407FEFDCF409A8EB5AF
:104660009C91992309F0B9CF6E960FB6F894DEBFEE
:104670000FBECDBFCF91DF911F910F91FF90EF90B3
:10468000DF90CF90BF90AF909F908F907F906F9072
:104690000895EF92FF920F931F93DF93CF93CDB7BF
:1046A000DEB762970FB6F894DEBF0FBECDBFCE0166
:1046B0000596BE016F5F7F4F0E94CC106EE0E62E24
:1046C000F12CEC0EFD1E89819A81B7014AE050E081
:1046D0000E9449328E01075F1F4F8D819E81B80174
:1046E0004AE050E00E94493243988CB58C7F81604B
:1046F0008CBD8DB581608DBD409880E88EBD0DB4B8
:1047000007FEFDCF409A8EB543988CB58C7F8160B3
:104710008CBD8DB581608DBD409882E48EBD0DB499
:1047200007FEFDCF409A8EB5A3E6B1E090916301FC
:10473000992309F447C01196439A8CB58C7F816008
:104740008CBD8DB581608DBD40981EBC0DB407FE3B
:10475000FDCF409A8EB5892F90E08097FC01EE0F37
:10476000FF1FEE0FFF1FE80FF91FEE53FE4F20E073
:1047700030E08081439A9CB59C7F91609CBD9DB543
:1047800091609DBD40988EBD0DB407FEFDCF409A4F
:104790008EB52F5F3F4F31962530310551F7439A43
:1047A0008CB58C7F81608CBD8DB581608DBD40984E
:1047B0001EBC0DB407FEFDCF409A8EB59C91992387
:1047C00009F0B9CF43988CB58C7F81608CBD8DB5D5
:1047D00081608DBD40988AEA8EBD0DB407FEFDCF85
:1047E000409A8EB543988CB58C7F81608CBD8DB519
:1047F00081608DBD409882E48EBD0DB407FEFDCF73
:10480000409A8EB59985992309F448C0D80111962C
:10481000439A8CB58C7F81608CBD8DB581608DBDD8
:1048200040981EBC0DB407FEFDCF409A8EB5892F6F
:1048300090E08097FC01EE0FFF1FEE0FFF1FE80FC7
:10484000F91FEE53FE4F20E030E08081439A9CB583
:104850009C7F91609CBD9DB591609DBD40988EBD33
:104860000DB407FEFDCF409A8EB52F5F3F4F3196B6
:104870002530310551F7439A8CB58C7F81608CBD12
:104880008DB581608DBD40981EBC0DB407FEFDCF77
:10489000409A8EB59C91992309F0B9CFAEE6B1E06C
:1048A00090916E01992309F447C01196439A8CB5F3
:1048B0008C7F81608CBD8DB581608DBD40981EBCA4
:1048C0000DB407FEFDCF409A8EB5892F90E08097FA
:1048D000FC01EE0FFF1FEE0FFF1FE80FF91FEE5355
:1048E000FE4F20E030E08081439A9CB59C7F916030
:1048F0009CBD9DB591609DBD40988EBD0DB407FED9
:10490000FDCF409A8EB52F5F3F4F31962530310550
:1049100051F7439A8CB58C7F81608CBD8DB58160D9
:104920008DBD40981EBC0DB407FEFDCF409A8EB5DC
:104930009C91992309F0B9CF43988CB58C7F816005
:104940008CBD8DB581608DBD409880E88EBD0DB465
:1049500007FEFDCF409A8EB543988CB58C7F816061
:104960008CBD8DB581608DBD409883E48EBD0DB446
:1049700007FEFDCF409A8EB5A2EAB1E09091A20168
:10498000992309F447C01196439A8CB58C7F8160B6
:104990008CBD8DB581608DBD40981EBC0DB407FEE9
:1049A000FDCF409A8EB5892F90E08097FC01EE0FE5
:1049B000FF1FEE0FFF1FE80FF91FEE53FE4F20E021
:1049C00030E08081439A9CB59C7F91609CBD9DB5F1
:1049D00091609DBD40988EBD0DB407FEFDCF409AFD
:1049E0008EB52F5F3F4F31962530310551F7439AF1
:1049F0008CB58C7F81608CBD8DB581608DBD4098FC
:104A00001EBC0DB407FEFDCF409A8EB59C91992334
:104A100009F0B9CF43988CB58C7F81608CBD8DB582
:104A200081608DBD40988AEA8EBD0DB407FEFDCF32
:104A3000409A8EB543988CB58C7F81608CBD8DB5C6
:104A400081608DBD409883E48EBD0DB407FEFDCF1F
:104A5000409A8EB59E85992309F448C0D7011196D6
:104A6000439A8CB58C7F81608CBD8DB581608DBD86
:104A700040981EBC0DB407FEFDCF409A8EB5892F1D
:104A800090E08097FC01EE0FFF1FEE0FFF1FE80F75
:104A9000F91FEE53FE4F20E030E08081439A9CB531
:104AA0009C7F91609CBD9DB591609DBD40988EBDE1
:104AB0000DB407FEFDCF409A8EB52F5F3F4F319664
:104AC0002530310551F7439A8CB58C7F81608CBDC0
:104AD0008DB581608DBD40981EBC0DB407FEFDCF25
:104AE000409A8EB59C91992309F0B9CFACE7B1E01B
:104AF00090917C01992309F447C01196439A8CB593
:104B00008C7F81608CBD8DB581608DBD40981EBC51
:104B10000DB407FEFDCF409A8EB5892F90E08097A7
:104B2000FC01EE0FFF1FEE0FFF1FE80FF91FEE5302
:104B3000FE4F20E030E08081439A9CB59C7F9160DD
:104B40009CBD9DB591609DBD40988EBD0DB407FE86
:104B5000FDCF409A8EB52F5F3F4F319625303105FE
:104B600051F7439A8CB58C7F81608CBD8DB5816087
:104B70008DBD40981EBC0DB407FEFDCF409A8EB58A
:104B80009C91992309F0B9CF62960FB6F894DEBFD5
:104B90000FBECDBFCF91DF911F910F91FF90EF908E
:104BA00008955F926F927F928F929F92AF92BF9281
:104BB000CF92DF92EF92FF920F931F93CF93DF93E9
:104BC000F894A89588E18093600088E6809360005F
:104BD00078948DEA91E00E9416180E944F1980E0A7
:104BE00090E020E931E0F9013197F1F7019647E2D1
:104BF00080319407C1F70E94150490E0F8E17F2E00
:104C0000E8E66E2E72E0572EF894A8957092600038
:104C10006092600078941C9902C01C9BFECF80912A
:104C2000A603882389F01092A60397E0F894A8952C
:104C300084B7877F84BF8091600088618093600023
:104C4000109260007894E0CF933009F47AC19430E8
:104C500008F01DC1913009F45BC1923019F080E079
:104C6000982FE4CF0E941B1F40E050E060E070E00E
:104C700020E030E080917C00807E80937C008091F9
:104C80007C00816080937C0080917A0086FDFCCF5F
:104C900080917C008F7D80937C0080917A0080647D
:104CA00080937A0080917A0086FDFCCF8091780015
:104CB00090917900A0E0B0E0480F591F6A1F7B1F58
:104CC0002F5F3F4F25303105A9F620E030E080917D
:104CD0007C00807E80937C0080917C008260809349
:104CE0007C0080917A0086FDFCCF80917C008F7DD6
:104CF00080937C0080917A00806480937A00809118
:104D00007A0086FDFCCF80917800909179002F5F2A
:104D10003F4F25303105D9F6EE24FF24870120E0EE
:104D200030E080917C00807E80937C0080917C00CC
:104D3000836080937C0080917A0086FDFCCF809117
:104D40007C008F7D80937C0080917A0080648093CA
:104D50007A0080917A0086FDFCCF80917800909156
:104D60007900A0E0B0E0E80EF91E0A1F1B1F2F5FBC
:104D70003F4F25303105A9F6CB01BA0125E030E0DF
:104D800040E050E00E941531442737FD4095542FF4
:104D9000CA01B9010E94F32F23E333E343E550E452
:104DA0000E947F3020E030E040E85AE30E947F30EC
:104DB00026EF38E24CE95FE30E94F32E20E030E07A
:104DC00040E850E40E947F305B016C01C801B701EC
:104DD00025E030E040E050E00E941531442737FDE7
:104DE0004095542FCA01B9010E94F32F23E333E306
:104DF00043E550E40E947F3020E030E040E85AE391
:104E00000E947F3020E030E040EA5FE30E94F32E12
:104E100020E030E040E850E40E947F307B018C01CC
:104E2000C601B50127E339E849E650E40E94F42EB3
:104E300020E030E04AE754E40E947F300E94C02F17
:104E40002091AA033091AB03620F731F7093550436
:104E500060935404C801B7012CE437E341E750E400
:104E60000E94F42E20E030E04AE754E40E947F30B4
:104E70000E94C02F2091AE033091AF03620F731FC9
:104E8000709357046093560483E0982FCFCE9630EA
:104E900021F1973041F0943009F0E1CE0E9449238E
:104EA00081E0982FC3CE20E030E0439A8CB58C7F10
:104EB00081608CBD8DB581608DBD40981EBC0DB4E8
:104EC00007FEFDCF409A8EB52F5F3F4F82E0203A1C
:104ED000380759F782E0982FA9CE8091A803813036
:104EE00009F4DEC0813080F5809191008E7F80933F
:104EF00091001092A2031092A3031092A4031092A7
:104F0000A503109295001092940086E0982F8ECE03
:104F1000809171008260809371009093A8036E9AD3
:104F200076981092A2031092A3031092A4031092F9
:104F3000A5038091910081608093910086E0982F75
:104F400075CE84E0982F72CE8730F9F610913C042C
:104F500080913D0480913E0480913F048091400403
:104F600080914104809142048091430480913C04EB
:104F700030913D0480913E0480913F048091400433
:104F800080914104809142048091430420E040E0FC
:104F900050E060E070E080E090E008E00E94452A88
:104FA000F22E80913C0480913D0440913E0480911A
:104FB0003F0480914004809141048091420480919B
:104FC000430420E030E050E060E070E080E090E0FA
:104FD00000E10E94452AE22E80913C0480913D042C
:104FE00080913E0450913F0480914004809141049F
:104FF000809142048091430420E030E040E060E092
:1050000070E080E090E008E10E94452AA22E8091A5
:105010003C0480913D0480913E0480913F04609166
:10502000400480914104809142048091430420E037
:1050300030E040E050E070E080E090E000E20E946C
:10504000452A022F1092A8038E2D8F0D8A0D800FF6
:10505000811709F44AC08091440490914504A091BD
:105060004604B091470480934C0490934D04A09360
:105070004E04B0934F048091480490914904A0914C
:105080004A04B0914B048093500490935104A09330
:105090005204B09353040E945F1C85E0982FC6CD44
:1050A0008091A2039091A303A091A403B091A503C2
:1050B0004197A105B10508F428CF10923C04109245
:1050C0003D0410923E0410923F041092400410924E
:1050D000410410924204109243041092A9036E9866
:1050E00076985092A80386E011CFDE2DC0E06F2D98
:1050F00070E06C2B7D2B882777FD8095982F0E9480
:10510000F32F20E030E040E251E40E94582F6093FA
:105110004404709345048093460490934704902E72
:1051200088246A2D70E068297929882777FD809581
:10513000982F0E94F32F20E030E040E251E40E94DB
:10514000582F609348047093490480934A049093C5
:105150004B0481CFDF92EF92FF920F931F93982F12
:10516000833009F483C0843070F0863009F447C07E
:105170008730F1F08430D1F180E01F910F91FF90E2
:10518000EF90DF900895813009F453C08230A1F789
:105190000E941B1F84E594E066E574E0AB010E9469
:1051A000E31483E01F910F91FF90EF90DF9008953B
:1051B00020E030E0439A8CB58C7F81608CBD8DB54A
:1051C00081608DBD40981EBC0DB407FEFDCF409A96
:1051D0008EB52F5F3F4F82E0203A380759F782E0C3
:1051E0001F910F91FF90EF90DF9008950E94492347
:1051F00081E01F910F91FF90EF90DF9008958091D3
:10520000A803813009F4E6C08130B8F5809191009F
:105210008E7F809391001092A2031092A3031092AC
:10522000A4031092A503109295001092940086E0BA
:10523000A4CF809171008260809371009093A80345
:105240006E9A76981092A2031092A3031092A40370
:105250001092A5038091910081608093910086E077
:105260001F910F91FF90EF90DF90089584E01F91C0
:105270000F91FF90EF90DF900895873011F086E056
:105280007CCF10913C0480913D0480913E0480913C
:105290003F048091400480914104809142048091B8
:1052A000430480913C0430913D0480913E04809100
:1052B0003F04809140048091410480914204809198
:1052C000430420E040E050E060E070E080E090E0E7
:1052D00008E00E94452AF22E80913C0480913D0412
:1052E00040913E0480913F048091400480914104AC
:1052F000809142048091430420E030E050E060E07F
:1053000070E080E090E000E10E94452AE22E80916A
:105310003C0480913D0480913E0450913F04809173
:10532000400480914104809142048091430420E034
:1053300030E040E060E070E080E090E008E10E9452
:10534000452AD22E80913C0480913D0480913E04F8
:1053500080913F0460914004809141048091420417
:105360008091430420E030E040E050E070E080E0D5
:1053700090E000E20E94452A022F1092A8038E2D91
:105380008F0D8D0D800F811709F44AC08091440460
:1053900090914504A0914604B091470480934C0439
:1053A00090934D04A0934E04B0934F048091480411
:1053B00090914904A0914A04B0914B048093500409
:1053C00090935104A0935204B09353040E945F1C25
:1053D00085E0D3CE8091A2039091A303A091A40372
:1053E000B091A5034197A105B10508F448CF1092EB
:1053F0003C0410923D0410923E0410923F0410921F
:1054000040041092410410924204109243041092FE
:10541000A9036E98769882E08093A80386E0ADCECB
:105420007E2D60E02F2D30E0622B732B882777FDD7
:105430008095982F0E94F32F20E030E040E251E465
:105440000E94582F6093440470934504809346044F
:1054500090934704702F60E02D2D30E0622B732B6A
:10546000882777FD8095982F0E94F32F20E030E069
:1054700040E251E40E94582F60934804709349041D
:1054800080934A0490934B0481CFEF92FF920F9345
:10549000DF93CF93CDB7DEB760970FB6F894DEBF3A
:1054A0000FBECDBFA82F002309F461C07E01089470
:1054B000E11CF11C88E0F70111928A95E9F7298334
:1054C0003A834B835C836D837E83AF83988780E2CE
:1054D000801BE82FFF27E7FDF0954D815E816F81EE
:1054E0007885181684F01D861E861F86188A8827E0
:1054F00099278E1B9F0B04C0769567955795479506
:105500008A95D2F728C0202F332727FD3095DB015D
:10551000CA01022E04C0B695A795979587950A945F
:10552000D2F78D879E87AF87B88B04C0440F551F75
:10553000661F771FEA95D2F789819A81AB81BC817A
:1055400004C0B695A795979587952A95D2F7482BCD
:10555000592B6A2B7B2B49875A876B877C87298538
:105560003A854B855C856D857E85AF8598898A2FC8
:1055700060960FB6F894DEBF0FBECDBFCF91DF911E
:105580000F91FF90EF900895EF92FF920F93DF93AA
:10559000CF93CDB7DEB760970FB6F894DEBF0FBEDE
:1055A000CDBFA82F002309F461C07E010894E11C3F
:1055B000F11C88E0F70111928A95E9F729833A8373
:1055C0004B835C836D837E83AF83988780E2801BEF
:1055D000E82FFF27E7FDF09549815A816B817C8197
:1055E000181684F019861A861B861C868827992728
:1055F0008E1B9F0B04C0440F551F661F771F8A9593
:10560000D2F728C0202F332727FD3095DB01CA01B0
:10561000022E04C0880F991FAA1FBB1F0A94D2F73D
:1056200089879A87AB87BC8704C07695679557951D
:105630004795EA95D2F78D819E81AF81B88504C0E8
:10564000880F991FAA1FBB1F2A95D2F7482B592BE9
:105650006A2B7B2B4D875E876F87788B29853A85F0
:105660004B855C856D857E85AF8598898A2F609690
:105670000FB6F894DEBF0FBECDBFCF91DF910F9173
:10568000FF90EF9008952F923F924F925F926F920A
:105690007F928F929F92AF92BF92CF92DF92EF92C2
:1056A000FF920F931F93DF93CF93CDB7DEB7619730
:1056B0000FB6F894DEBF0FBECDBF3C017F876E876B
:1056C0006A01FC0117821682838181FD03C06FEF9E
:1056D0007FEF6FC39E012F5F3F4F398B288BF30104
:1056E0002381EE85FF8523FD859123FF8191FF872F
:1056F000EE87882309F45AC3853251F4EE85FF857D
:1057000023FD859123FF8191FF87EE87853229F460
:1057100090E0B3010E946A32E2CF982F10E0882413
:1057200099241032B0F49B3269F09C3228F4903204
:1057300051F0933271F40BC09D3239F0903349F43B
:10574000116028C01260146025C0186023C0106169
:1057500021C017FD2AC0892F80538A3078F416FFA4
:1057600006C0FAE09F9E902C1124980E13C03AE0D8
:10577000839E802C1124880E10620CC09E3221F46E
:1057800016FD14C3106406C09C3611F4106802C0E4
:10579000983659F4EE85FF8523FD959123FF91916D
:1057A000FF87EE87992309F0BCCF892F855483307A
:1057B00020F4812F8061905E07C0892F8556833049
:1057C00008F09FC1812F8F7E86FD02C076E0972E64
:1057D0006FE3F62EF822953619F4F0E4FF2A07C09D
:1057E000963619F420E8F22A02C091109A94F7FE36
:1057F0000AC03BE3391518F45CE3B52E02C0B92C9E
:10580000B39427E009C047E0491520F4BB2447E0E2
:10581000942EF7CF292DBB24C60104969D878C8733
:10582000F6016081718182819381AE014F5F5F4F8C
:105830000B2D0E9452316C010981202E332400FF70
:1058400004C003FD02C01DE209C0F1FE02C01BE25C
:1058500005C0F2FC02C010E001C010E2C1018C7072
:105860009070892BB9F1112311F483E001C084E019
:10587000881510F088240AC0881AF3FC07C080E25B
:1058800090E0B3010E946A328A94C9F7112329F08B
:10589000812F90E0B3010E946A3223FE03C008E921
:1058A00010E00EC00CE910E00BC0E114F10409F0A7
:1058B000805290E0B3010E946A320F5F1F4F05C013
:1058C000EF2CFF24F0E1EF22FF24F80184918823DC
:1058D00061F714C1F7FE12C0BC0C24FE04C08A811B
:1058E000813309F4BA941B141CF0BB24B3942DC06B
:1058F000F8E0FB1550F538E0B32E27C0F6FC25C0C4
:10590000892D90E08C159D054CF02CEFC2162FEFE1
:10591000D20624F030E8F32A01C09A94992049F085
:10592000E2E0F0E0EC0FFD1FE90DF11D8081803316
:10593000A1F3F7FE0AC0B92CB394892D90E0C816E4
:10594000D90614F0992401C09C18F7FC03C025E087
:1059500030E009C01C141D041CF021E030E003C03D
:1059600096012F5F3F4F112311F02F5F3F4F99207A
:1059700029F0892D90E00196280F391F882D90E09D
:105980002817390714F0882401C0821A4F2C552497
:10599000C20189709070892B39F008C080E290E0D4
:1059A000B3010E946A328A948820C1F7112329F03A
:1059B000812F90E0B3010E946A3243FE07C008C005
:1059C00080E390E0B3010E946A328A948820C1F794
:1059D000F7FE46C08601D7FE02C000E010E0760167
:1059E0000894E11CF11CE01AF10A41E050E04C0F70
:1059F0005D1FE40EF51E26014B185108892D90E01D
:105A0000AA24BB24A81AB90A5FEF0F3F150729F48F
:105A10008EE290E0B3010E946A32C016D10634F0E3
:105A2000401651061CF4F701808101C080E301504B
:105A300010400894E11CF11C0A151B052CF090E0A5
:105A4000B3010E946A32E0CF0C151D0539F49A812A
:105A5000963318F4953311F424FE81E390E04BC0A3
:105A60008A81813309F00F7E90E0B3010E946A328F
:105A70009920A1F08EE290E0B3010E946A3212E018
:105A8000E1E0F0E0EC0FFD1FE10FF11D1F5F8081F1
:105A900090E0B3010E946A329A9491F744FC03C0EB
:105AA00085E690E002C085E490E0B3010E946A328E
:105AB000D7FC05C0C114D10441F404FF06C0D09442
:105AC000C194D108D3948DE201C08BE290E0B30180
:105AD0000E946A3280E305C08F5F26EF3FEFC20E5F
