:100000000C94BD010C94DC010C94DC010C94DC011B
:100010000C94DC010C94BB0D0C94DC010C94BA0C18
:100020000C94DC010C94DC010C94DC010C94DC01DC
:100030000C94640B0C94DC010C94DC010C94DC013A
:100040000C94DC010C94E0080C94DC010C94DC01B1
:100050000C94DC010C94DC010C94DC010C94DC01AC
:100060000C94DC010C9482030C944A030C94DC0184
:100070000C94DC010C94DC010C94DC010C94DC018C
:100080000C94FA080C94DC010C94DC010C94DC0157
:100090000C940C060C94DC01000000000000005FD2
:1000A00000000007000700147F147F14242A7F2A11
:1000B00012231308646236495522500005030000DC
:1000C000001C2241000041221C0014083E081408B4
:1000D000083E0808005030000008080808080060C2
:1000E00060000020100804023E5149453E00427F56
:1000F000400042615149462141454B311814127F5D
:100100001027454545393C4A4949300171090503E5
:100110003649494936064949291E0036360000004D
:10012000563600000814224100141414141400411F
:100130002214080201510906324979413E7E11110B
:10014000117E7F494949363E414141227F4141224A
:100150001C7F494949417F090909013E4149497AC2
:100160007F0808087F00417F41002040413F017F18
:10017000081422417F404040407F020C027F7F04F0
:1001800008107F3E4141413E7F090909063E415129
:10019000215E7F09192946464949493101017F01FC
:1001A000013F4040403F1F2040201F3F4038403F1C
:1001B0006314081463070870080761514945430038
:1001C0007F41410002040810200041417F000402E9
:1001D0000102044040404040000102040020545409
:1001E00054787F4844443838444444203844444890
:1001F0007F3854545418087E0901020C5252523E62
:100200007F0804047800447D40002040443D007F86
:100210001028440000417F40007C041804787C08CA
:1002200004047838444444387C1414140808141422
:10023000187C7C080404084854545420043F44406B
:10024000203C4040207C1C2040201C3C4030403C56
:1002500044281028440C5050503C4464544C4400F2
:100260000836410000007F000000413608001008F9
:1002700008100878464146786E616E00696E660027
:1002800000407A10F35A00A0724E18090010A5D44D
:10029000E80000E87648170000E40B54020000CAAA
:1002A0009A3B000000E1F5050000809698000000F0
:1002B00040420F000000A08601000000102700004F
:1002C0000000E803000000006400000000000A00D5
:1002D000000000000100000000002C76D888DC67D8
:1002E0004F0823DFC1DFAE59E1B1B796E5E3E45330
:1002F000C63AE651997696E8E6C28426EB898C9B4D
:1003000062ED407C6FFCEFBC9C9F40F2BAA56FA5EC
:10031000F490055A2AF75C936B6CF9676DC11BFC6E
:10032000E0E40D47FEF520E6B500D0ED902E030089
:10033000943577050080841E080000204E0A0000D6
:1003400000C80C333333330F986E12831141EF8D95
:100350002114893BE65516CFFEE6DB18D1844B38D5
:100360001BF77C1D901DA4BBE424203284725E2206
:100370008100C9F124ECA1E53D2711241FBECFEF78
:10038000D0E2DEBFCDBF12E0A0E0B1E0EAE7F5E4E5
:1003900000E00BBF02C007900D92A831B107D9F75A
:1003A00015E0A8E1B2E001C01D92AA30B107E1F763
:1003B0000E944D190C94BB220C940000ECE7F0E075
:1003C000908190649083EAE7F0E09081982B90838D
:1003D000808180688083089590917C00907E9093C6
:1003E0007C0090917C00982B90937C0080917A0007
:1003F00086FDFCCF662321F480917C00806203C0DF
:1004000080917C008F7D80937C0080917A00806455
:1004100080937A0080917A0086FDFCCF662329F4D0
:1004200080917900282F30E004C02091780030912D
:100430007900C9010895DF92EF92FF920F931F9305
:10044000D62E79018A010E94EC019C0140E050E027
:10045000C801B7010E942520DD2029F42FEF30E0EC
:1004600040E050E004C02FEF33E040E050E00E9455
:100470005820C9011F910F91FF90EF90DF900895D0
:1004800080E061E028E833E140E050E00E941B0298
:100490002BE030E0A901849F9001859F300D949F4F
:1004A000300D1124C901089590917C00982B9093F0
:1004B0007C0080917A00806280937A00662321F02C
:1004C00080917A00806403C080917A008F7D809350
:1004D0007A000895AF92BF92CF92DF92EF92FF928F
:1004E0000F931F93CF93DF93A82EB62E6A01EE24AD
:1004F000FF248701C0E0D0E00BC08A2D6B2D0E9445
:10050000EC01A0E0B0E0E80EF91E0A1F1B1F2196C7
:10051000CC15DD0590F3960140E050E0C801B7012D
:100520000E945820C901DF91CF911F910F91FF9038
:10053000EF90DF90CF90BF90AF9008959B01AC01FA
:10054000F894109233028091330280933202109219
:10055000370280913702809336028AE392E09093CB
:100560003502809334028AE792E0909339028093B7
:10057000380292E0220F331F441F551F9A95D1F77E
:1005800060E074E284EF90E00E94582021503040F7
:100590004040504056954795379527953093CD006C
:1005A0002093CC0082E08093C800E9ECF0E080E882
:1005B000808380818861808386E08093CA007894FC
:1005C0000895282F809133028F5F809333028091AA
:1005D0003302803410F010923302909132028091F5
:1005E00033029817D1F3E0913402F09135028091F3
:1005F0003302E80FF11D20838091C900806280934F
:10060000C900089590913702809136029817D1F36E
:10061000809136028F5F8093360280913602883255
:1006200010F010923602E0913802F0913902809178
:100630003602E80FF11D80810895CF93DF93EC011E
:1006400088810E94E10289918823D1F7DF91CF91BF
:1006500008951F93CF93DF93EC01162F88810E949A
:10066000E1021150D8F7DF91CF911F910895909139
:10067000370280913602981728F0909137028091C6
:10068000360205C09091370280913602985D981B22
:10069000892F08951F920F920FB60F920BB60F92EB
:1006A00011248F939F93EF93FF9390913302809146
:1006B0003202981731F48091C9008F7D8093C90070
:1006C00016C0809132028F5F809332028091320295
:1006D000803410F010923202E0913402F091350231
:1006E00080913202E80FF11D80818093CE00FF914E
:1006F000EF919F918F910F900BBE0F900FBE0F90B7
:100700001F9018951F920F920FB60F920BB60F9273
:1007100011248F939F93EF93FF93909137029F5FE4
:10072000983208F090E080913602981759F0E091E5
:100730003802F0913902E90FF11D8091CE008083DB
:1007400090933702FF91EF919F918F910F900BBE85
:100750000F900FBE0F901F9018950E94E102089510
:10076000EF92FF920F931F93CF93DF937C018B0146
:10077000C0E0D0E007C0F701EC0FFD1F80810E94B0
:10078000E1022196C017D107B0F3DF91CF911F91FD
:100790000F91FF90EF9008950E9402030895813415
:1007A0001CF4282F205302C0282F27532C3028F068
:1007B00020E038E145E150E028C0822F90E0019729
:1007C00060EB74E0082E02C0660F771F0A94E2F710
:1007D000069740E05BE402C0440F551F8A95E2F79C
:1007E00080E090E0273010F081E090E0489F900199
:1007F000499F300D589F300D1124CB01821B930B64
:100800009C01442737FD4095542FB901CA01089532
:10081000EF92FF920F931F93CF93DF9300E020E9B5
:10082000E22E21E0F22E40C00E94CF030E949E02E1
:1008300010E003C00E94E1021F5FE12FF0E0E050F2
:10084000FF4F80818823B1F780ED97E0F701319762
:10085000F1F70197D9F788818093310225E008C02C
:1008600088EE93E0F7013197F1F70197D9F721501E
:100870009091370280913602981728F090913702B4
:100880008091360205C09091370280913602985DC2
:10089000981B19F4222321F706C0222321F00E947D
:1008A00002038F3449F00F5FC02FD0E0CD5FDE4FE1
:1008B0008881882309F0B8CF809131020E94CF034C
:1008C000162F072FF82EE92E0E949E02612F702FFF
:1008D0008F2D9E2DDF91CF911F910F91FF90EF9063
:1008E0000895EF92FF920F931F93CF93DF93EC0144
:1008F0007B01042F84B1806384B92C9A2D9A88EEF1
:1009000093E020E931E0F9013197F1F70197D9F748
:100910002C988CE49DE120E931E0F9013197F1F761
:100920000197D9F710E003C00E94E1021F5FE12F99
:10093000F0E0E05FFE4F80818823B1F710E003C054
:100940000E94E1021F5FFE01E10FF11D80818823FB
:10095000B9F78CE49DE120E931E0F9013197F1F735
:100960000197D9F710E003C00E94E1021F5FE12F59
:10097000F0E0E85EFE4F80818823B1F710E003C00D
:100980000E94E1021F5FF701E10FF11D80818823C2
:10099000B9F78CE49DE120E931E0F9013197F1F7F5
:1009A0000197D9F710E003C00E94E1021F5FE12F19
:1009B000F0E0E15EFE4F80818823B1F7802F0E9436
:1009C000E1028CE49DE120E931E0F9013197F1F792
:1009D0000197D9F72D982C9A88EE93E020E931E021
:1009E000F9013197F1F70197D9F72C98009331026B
:1009F000809131020E94CF030E949E02DF91CF912D
:100A00001F910F91FF90EF900895229A2398219AB9
:100A10009CB59F7D90618295880F807E982B660F94
:100A2000660F962B9CBD8CB580648CBD08959CB5DB
:100A3000262F23709C7F292B2CBD9DB5669566952E
:100A40009E7F962B9DBD8EBD0DB407FEFDCF8EB54E
:100A5000089598B1660F660F660F977F962B98B929
:100A600067E00E94170508951F93162F409884355C
:100A700058F4683048F4806860E00E942905812FAE
:100A8000806460E00E942905409A1F910895CF93E9
:100A9000DF934098C0E0D0E080E061E00E9429054B
:100AA000219682E0C03AD807B9F7409ADF91CF91FA
:100AB0000895409880E260E00E94290588E060E0A7
:100AC0000E942905409A0895409880E260E00E94C3
:100AD000290589E060E00E942905409A0895409820
:100AE00080E260E00E9429058DE060E00E94290517
:100AF000409A0895409880E260E00E9429058CE0C9
:100B000060E00E942905409A08951F93182F40988D
:100B100081E260E00E942905812F806860E00E94E8
:100B20002905409A1F9108950F931F93CF93DF9348
:100B3000082F409880E061E00E94290585E0089F29
:100B400080011124E801C850D0400B5910400856CC
:100B50001F4FFE01849161E00E9429052196C01774
:100B6000D107B9F780E061E00E942905409ADF9142
:100B7000CF911F910F910895CF93DF93EC0103C0A4
:100B800021960E94940588818823D1F7DF91CF9127
:100B9000089587B18B6087B988B1836088B9409820
:100BA0004198419A80E060E00E9405058FE40E9430
:100BB00085050E947A0580E060E00E943405409A35
:100BC00008951092B9008093B800ECEBF0E08081BA
:100BD0008560808378940895282F80912D029091CC
:100BE0002E02892BB9F4220F216020932B02109240
:100BF0002C02423018F081E080932C0240933002A6
:100C000070932E0260932D0285EA8093BC00672BBF
:100C100011F0FFCFFFCF08951F920F920FB60F92E2
:100C20000BB60F9211248F939F93EF93FF938091B4
:100C3000B90090E0887F90708832910509F44AC02D
:100C40008932910594F48031910509F476C081319F
:100C5000910524F4089709F08EC01DC088319105D4
:100C6000F9F0809709F087C02AC08834910539F1DE
:100C70008934910544F480339105F1F18034910574
:100C800009F079C01EC080359105F1F188359105D4
:100C900009F071C049C080912B028093BB006BC0EA
:100CA00090912F02E0912D02F0912E02E90FF11D9B
:100CB00080818093BB009F5F90932F025CC085EA88
:100CC0005BC080912F029091BB00E0912D02F091CA
:100CD0002E023FC080912C02882331F090912F0288
:100CE000809130029817D0F010922E0210922D02AF
:100CF00010922F0285E915C010922E0210922D023B
:100D000010922F0285E938C080912C02882341F08F
:100D100090912F0280913002981710F485EA01C05B
:100D200085E88093BC0027C010922E0210922D02FD
:100D300010922F0285E98093BC0080912B02E091F4
:100D40002D02F0912E0280FF0CC080912F02909115
:100D5000BB00E80FF11D90838F5F80932F0285EC1D
:100D60000BC080912F02E80FF11D90819093BB0082
:100D70008F5F80932F0285E88093BC00FF91EF91F5
:100D80009F918F910F900BBE0F900FBE0F901F90F1
:100D900018958FEF62E00E94170508951F9310E0E9
:100DA0000E94C9061F5F113211F08F3FC9F31F91D6
:100DB0000895EF92FF920F931F93DF93CF9300D08C
:100DC00000D000D0CDB7DEB780648983872F992704
:100DD000AA27BB278A83CB01AA27BB278B83BB27E4
:100DE000A72F962F852F8C834D831E82FE0131966F
:100DF00090E069E0AE014A5F5F4F308120E0990FDB
:100E0000892F832787FD96272F5F283011F0330F16
:100E1000F6CF3196E417F50781F7990F91609E831D
:100E20008E010F5F1F4F37E0E32EF12CEC0EFD1EFD
:100E3000F80181918F0162E00E9417050E151F05D0
:100E4000B9F726960FB6F894DEBF0FBECDBFCF918F
:100E5000DF911F910F91FF90EF9008956F927F9215
:100E60008F929F92AF92BF92CF92DF92EF92FF92BA
:100E70000F931F93CF93DF935B016C014A013901FC
:100E80004098C0E0D4E00E94C906209709F44EC003
:100E90000E94CE06882311F42197F5CF8091180285
:100EA00080FD07C0B9E0AA0CBB1CCC1CDD1CBA95A8
:100EB000D1F781E1B601A5010E94D9060E94CE06B4
:100EC0008823A1F50E94CE068E3F81F5C0E0D0E0D8
:100ED00003C00E94C9062196C815D905D0F3C0E009
:100EE000D0E007C00E94C906F301EC0FFD1F80830C
:100EF0002196CE01A0E0B0E08E159F05A007B107B6
:100F000088F38E01080D191D04C00E94C9060F5FE9
:100F10001F4F82E000301807C0F30E94C9060E94EC
:100F2000C9060E94C906409A80E002C0409A8FEF2D
:100F3000DF91CF911F910F91FF90EF90DF90CF90B5
:100F4000BF90AF909F908F907F906F9008950F9378
:100F50001F93CF93DF938B019C01EA01409880910E
:100F6000180280FD07C089E0000F111F221F331FE8
:100F70008A95D1F788E1B901A8010E94D9060E949B
:100F8000CE068823F9F48EEF62E00E94170500E098
:100F900010E0FE01E00FF11F808162E00E94170562
:100FA0000F5F1F4F82E00030180799F70E94C906B3
:100FB0000E94CE068F71853029F40E94C906409A9E
:100FC00080E004C00E94C906409A8FEFDF91CF9164
:100FD0001F910F9108950F931F93DF93CF9300D02C
:100FE00000D00F92CDB7DEB7389A409880E060E02D
:100FF0000E94050500E010E00E94C9060F5F1F4F28
:101000000A301105C9F780E040E050E060E070E090
:101010000E94D9060E94CE06813009F09FC00E942E
:10102000C90688E045E551E060E070E00E94D9061D
:1010300018E00E94CE068983112309F48FC08F3FE8
:1010400011F41150F6CF0E94CE068A830E94CE067C
:101050008B830E94CE068C830E94CE068D830E94D5
:10106000C9068981813069F48C81813009F076C0AC
:101070008D81853509F072C080911802897F846066
:1010800007C0853009F06AC080911802897F8260AC
:101090008093180200E014E00E94C90687E340E054
:1010A00050E060E070E00E94D9060E94CE060E94E7
:1010B000C90689E240E050E060E070E40E94D90691
:1010C0000115110509F44AC00E94CE0680FF03C035
:1010D00001501040E1CF0E94C9068091180286702D
:1010E000823061F18AE340E050E060E070E00E940D
:1010F000D90610E20E94CE068983112379F08F3F32
:1011000011F41150F7CF0E94CE068A830E94CE06BA
:101110008B830E94CE068C830E94C9068981882316
:1011200069F49A8197FF0AC0929596959695917069
:10113000809118028E7F982B9093180280E140E0F6
:1011400052E060E070E00E94D9060E94CE0688233B
:1011500029F40E94C906409A80E004C00E94C90692
:10116000409A8FEF0F900F900F900F900F90CF91AC
:10117000DF911F910F910895109280008CE0809371
:101180008100109285001092840082E19AE790938A
:1011900089008093880022E020936F0010929000D5
:1011A00089E080939100109295001092940080EC59
:1011B00093E0909399008093980020937100089594
:1011C0001F920F920FB60F9211248F9380911E02DF
:1011D0008F5F80931E0280911E02823029F481E08D
:1011E00080931D0210921E028F910F900FBE0F90E0
:1011F0001F9018951F920F920FB60F9211248F9384
:101200009F93AF93BF938091190290911A02A0917E
:101210001B02B0911C020196A11DB11D8093190201
:1012200090931A02A0931B02B0931C02BF91AF913E
:101230009F918F910F900FBE0F901F90189580B3C4
:101240008F7180BB8DEC9CECACE4B2E48093B20275
:101250009093B302A093B402B093B5020895CF92D5
:10126000DF92EF92FF920F931F938C017B016A0133
:1012700087E061E045E050E00E946A02F801918356
:10128000808386E061E045E050E00E946A02F70159
:101290009183808385E061E045E050E00E946A022E
:1012A000F601918380831F910F91FF90EF90DF9063
:1012B000CF9008954F925F926F927F928F929F92FC
:1012C000AF92BF92CF92DF92EF92FF920F931F9354
:1012D000DF93CF9300D000D000D0CDB7DEB74C0164
:1012E0003B012A01CE010196BE016D5F7F4FAE0129
:1012F0004B5F5F4F0E942F096B817C81882777FDB0
:101300008095982F0E94361F20E030E040EA50E49C
:101310000E94C21F20E030E040E85AE30E94C21F52
:101320005B016C016D817E81882777FD8095982F08
:101330000E94361F20E030E040EA50E40E94C21FC5
:1013400020E030E040E85AE30E94C21F7B018C019C
:1013500069817A81882777FD8095982F0E94361FB2
:1013600020E030E040EA50E40E94C21F20E030E07C
:1013700040E85AE30E94C21F26EF38E24CE95FE3DF
:101380000E94361E20E030E040E850E40E94C21F78
:10139000F4016083718382839383C601B50126EFD4
:1013A00038E24CE95FE30E94361E20E030E040E87E
:1013B00050E40E94C21FF301608371838283938390
:1013C000C801B70126EF38E24CE95FE30E94361E00
:1013D00020E030E040E850E40E94C21FF201608348
:1013E000718382839383F40160817181828193810F
:1013F00027E339E849E650E40E94371EF401608390
:10140000718382839383F3016081718182819381EF
:1014100027E339E849E650E40E94371EF301608370
:10142000718382839383F2016081718182819381D0
:1014300027E339E849E650E40E94371EF201608351
:1014400071838283938326960FB6F894DEBF0FBE16
:10145000CDBFCF91DF911F910F91FF90EF90DF9063
:10146000CF90BF90AF909F908F907F906F905F9044
:101470004F900895CF92DF92EF92FF920F931F93B8
:10148000DF93CF93CDB7DEB72C970FB6F894DEBFBE
:101490000FBECDBF8C017B016A01CE010196BE015A
:1014A0006B5F7F4FAE01475F5F4F0E945A096981B2
:1014B0007A818B819C8120E030E04AE754E40E94ED
:1014C000C21F0E94031F2091250230912602620F45
:1014D000731FF801718360836D817E818F81988590
:1014E00020E030E04AE754E40E94C21F0E94031F3C
:1014F0002091270230912802620F731FF701718338
:10150000608369857A858B859C8520E030E04AE799
:1015100054E40E94C21F0E94031F209129023091AF
:101520002A02620F731FF601718360832C960FB637
:10153000F894DEBF0FBECDBFCF91DF911F910F9109
:10154000FF90EF90DF90CF900895DF93CF9300D07E
:1015500000D000D0CDB7DEB70E9447058FE061E034
:101560000E94340587E291E00E94BC0585E063E0BB
:101570000E94340580E391E00E94BC0580E064E0B5
:101580000E9434058CE391E00E94BC0588E893E159
:1015900020E931E0F9013197F1F70197D9F7CE0150
:1015A0000196BE016D5F7F4FAE014B5F5F4F0E94A2
:1015B0003A0A8EE490E029813A81821B930B909342
:1015C0002602809325028B819C81909581959F4F67
:1015D00090932802809327028D819E81909581951A
:1015E0009F4F90932A02809329020E9447052696D6
:1015F0000FB6F894DEBF0FBECDBFCF91DF91089537
:10160000BC018091B9008E7F8093B9008091B900B0
:101610008D7F8093B90080EA9FE00E944420603172
:1016200030F0862F90E0409795958795682F6093CE
:10163000B800089584E690E00E94000BECEBF0E027
:1016400080818460808308953C9A84EA8093BC0002
:10165000089584E98093BC000895E0EAFFE03197A3
:10166000F1F73C9A8093BB0084E88093BC00089516
:10167000882329F08091BC008F70806C04C0809119
:10168000BC008F7080688093BC0008958091BB007F
:1016900008958091B90008950895F894A895E0E61A
:1016A000F0E088E1808388E6808378940895F89458
:1016B000A89584B7877F84BFE0E6F0E080818861E9
:1016C00080831082789408951F920F920FB60F9224
:1016D0000BB60F9211242F934F935F938F939F9389
:1016E000EF93FF9320E040E951E05C9A88EC90E0B2
:1016F000FA013197F1F70197D9F75C9880E293E00E
:10170000FA013197F1F70197D9F72F5F243069F784
:10171000FF91EF919F918F915F914F912F910F903A
:101720000BBE0F900FBE0F901F9018956E98769875
:10173000EAE6F0E0808180618083EE9A0895E1E737
:10174000F0E080818260808381E0809323026E9A42
:1017500076981092190210921A0210921B0210929F
:101760001C02E1E9F0E08081816080830895CF92DE
:10177000DF92EF92FF920F931F93809123028130AB
:10178000C9F0813020F0873009F0D9C038C080918D
:1017900091008E7F809391001092190210921A028C
:1017A00010921B0210921C0210929500109294004D
:1017B0008EEFC6C08091190290911A02A0911B026F
:1017C000B0911C024197A105B10508F4B8C0109270
:1017D000B7021092B8021092B9021092BA02109297
:1017E000BB021092BC021092BD021092BE02109277
:1017F00024026E98769882E080932302A0C0D09055
:10180000B7028091B8028091B9028091BA028091AA
:10181000BB028091BC028091BD028091BE0280918A
:10182000B702E090B8028091B9028091BA0280912B
:10183000BB028091BC028091BD028091BE0280916A
:10184000B7028091B8024091B9028091BA028091AA
:10185000BB028091BC028091BD028091BE0220E05B
:1018600030E050E060E070E080E090E000E10E9455
:101870008819C22E8091B7028091B8028091B90276
:101880001091BA028091BB028091BC028091BD028E
:101890008091BE028091B7028091B8028091B90216
:1018A0008091BA02F090BB028091BC028091BD028F
:1018B0008091BE0220E03E2D40E050E060E070E00C
:1018C00080E090E008E00E948819E22E20E030E0FD
:1018D00040E0512F60E070E080E090E008E10E947D
:1018E0008819122F20E030E040E050E06F2D70E0CA
:1018F00080E090E000E20E948819109223028C2D73
:101900008E0D810F820F8D15C1F4922F80E0212F53
:1019100030E0822B932B9093C2028093C1022E2D34
:1019200030E08C2D992787FD9095982F8827282BBC
:10193000392B3093C0022093BF0281E001C080E0C8
:101940001F910F91FF90EF90DF90CF900895FC01D1
:10195000DB018091BF029091C002918380838091CE
:10196000C1029091C2028D939C930895EE9A0895BE
:10197000EE9808951F920F920FB60F920BB60F922A
:1019800011240F932F933F934F935F936F937F9304
:101990008F939F93AF93BF93EF93FF938091230215
:1019A000843061F1853030F4823051F0833009F0B9
:1019B000BDC014C0853081F1863009F0B7C047C082
:1019C0008CB182958695869581708093B6028091C0
:1019D000B602882309F0AAC083E00DC08CB18295BD
:1019E0008695869581708093B6028091B602882391
:1019F00009F49CC084E08093230298C08CB1829546
:101A00008695869581708093B6028091B602882370
:101A100009F08CC085E0EFCF8CB1829586958695D4
:101A200081708093B6028091B602882309F47EC04B
:101A30008091910081608093910010921902109220
:101A40001A0210921B0210921C0286E0D4CF8CB1B5
:101A500082958695869581708093B6028091B602B4
:101A6000882309F063C08091190290911A02A09115
:101A70001B02B0911C020097A105B105A9F02091AD
:101A8000B7023091B8024091B9025091BA02609108
:101A9000BB027091BC028091BD029091BE0201E038
:101AA0000E94071A216013C02091B7023091B8023A
:101AB0004091B9025091BA026091BB027091BC0290
:101AC0008091BD029091BE0201E00E94071A20930E
:101AD000B7023093B8024093B9025093BA026093B0
:101AE000BB027093BC028093BD029093BE028091B2
:101AF00024028F5F8093240280912402883210F0A8
:101B000087E001C085E080932302809191008E7F61
:101B1000809391001092190210921A0210921B02E7
:101B200010921C021092950010929400FF91EF9178
:101B3000BF91AF919F918F917F916F915F914F91E5
:101B40003F912F910F910F900BBE0F900FBE0F90F2
:101B50001F901895EAE6F0E0808182608083EC9A1D
:101B60007894089580911F02909120021092200293
:101B700010921F0208951F920F920FB60F92112418
:101B80008F939F9380911F029091200201969093D2
:101B9000200280931F029F918F910F900FBE0F9094
:101BA0001F9018950F931F93DF93CF93CDB7DEB798
:101BB000C754D0400FB6F894DEBF0FBECDBF60E86B
:101BC00075E280E090E00E949E02DE011196EAE458
:101BD000F1E083E101900D928150E1F78E010F5FFA
:101BE0001F4F02C00E94E102F80181918F018823FA
:101BF000C9F7DE015496EDE5F1E084E301900D9222
:101C00008150E1F78E010C5E1F4F02C00E94E1027D
:101C1000F80181918F018823C9F7C95BDF4F0FB6A7
:101C2000F894DEBF0FBECDBFCF91DF911F910F9112
:101C300008952F923F924F925F926F927F928F9270
:101C40009F92AF92BF92CF92DF92EF92FF920F934B
:101C50001F93DF93CF93CDB7DEB7C855D0400FB6F3
:101C6000F894DEBF0FBECDBF69969FAF8EAF699768
:101C70005B012A018FEF04C0882311F48FEF1AC48F
:101C800081504499F9CFFE01319680E5DF011D9224
:101C90008A95E9F762E0662E712C6C0E7D1E51E587
:101CA000852E912C8C0E9D1E6F014499FECF0E94B3
:101CB000020389838432C9F783010E940203F80179
:101CC00080838A3029F00F5F1F4F08151905A9F787
:101CD00090E020E030E0F601E90FF11D80818C32C8
:101CE00009F431E0230F9F5F2630A0F3F601E90FDE
:101CF000F11D80818033C9F24499D7CFA0E09E01C5
:101D00002F5F3F4FF901EA0FF11D8081AF5F8C32E9
:101D1000C9F7B0E02A0F3B1FF901808154E6850224
:101D2000C0011124FE01EA0FFB1F2381280FFE01D1
:101D3000EA0FFB1F82814AE08402C0011124280FB0
:101D4000F5012083FE01EA0FFB1F2481250290018B
:101D50001124FE01EA0FFB1F85818402C0011124BA
:101D6000280F391F8681992787FD9095280F391FE5
:101D7000D2012D933C9390E020E0AE014F5F5F4F86
:101D800030E0FA01E90FF11D80818C3209F431E075
:101D9000230F9F5F2230A0F3C92EDD24FE01EC0D3E
:101DA000FD1D6181772767FD70956053704088271E
:101DB00077FD8095982F0E94361F20E030E040E2AA
:101DC00051E40E94C21F7B018C01FE01EC0DFD1D40
:101DD0006281772767FD709560537040882777FD93
:101DE0008095982F0E94361F9B01AC01C801B70156
:101DF0000E94371E4B015C016996EEADFFAD6997FD
:101E00006083718382839383FE01EC0DFD1D6381EA
:101E1000772767FD709560537040882777FD809520
:101E2000982F0E94361F20E030E040E251E40E94EB
:101E3000C21F7B018C01FE01EC0DFD1D6481772723
:101E400067FD709560537040882777FD8095982FC7
:101E50000E94361F9B01AC01C801B7010E94371ECA
:101E60007B018C01FE01EC0DFD1D6681772767FD6E
:101E7000709560537040882777FD8095982F0E9459
:101E8000361F2DEC3CEC4CEC5DE30E94C21F9B0125
:101E9000AC01C801B7010E94371E7B018C01FE0115
:101EA000EC0DFD1D6781772767FD709560537040CD
:101EB000882777FD8095982F0E94361F2AE037EDFE
:101EC00043E25CE30E94C21F9B01AC01C801B70161
:101ED0000E94371E7B018C01FE01EC0DFD1D60850B
:101EE000772767FD709560537040882777FD809550
:101EF000982F0E94361F2FE632E143E85AE30E94F2
:101F0000C21F9B01AC01C801B7010E94371E7B01B3
:101F10008C01FE01EC0DFD1D6185772767FD709535
:101F200060537040882777FD8095982F0E94361F58
:101F300027E137EB41ED58E30E94C21F9B01AC0142
:101F4000C801B7010E94371E20E030E040E752E4AC
:101F50000E949B1E9B01AC01C501B4010E94371E6B
:101F60009B01AC016996AEADBFAD69976D937D9352
:101F70008D939C931397CC0EDD1EF60183858335DC
:101F800059F4DA01C901B0586996EEADFFAD699711
:101F900080839183A283B38390E020E0AE014F5F02
:101FA0005F4F30E0FA01E90FF11D80818C3209F4B6
:101FB00031E0230F9F5F2430A0F3C92EDD24FE0102
:101FC000EC0DFD1D6181772767FD709560537040B2
:101FD000882777FD8095982F0E94361F20E030E0FB
:101FE00048EC52E40E94C21F7B018C01FE01EC0D03
:101FF000FD1D6281772767FD7095605370408827CB
:1020000077FD8095982F0E94361F20E030E040E257
:1020100051E40E94C21F9B01AC01C801B7010E949C
:10202000371E7B018C01FE01EC0DFD1D63817727BE
:1020300067FD709560537040882777FD8095982FD5
:102040000E94361F9B01AC01C801B7010E94371ED8
:102050004B015C016996AEADBFAD699714966D9367
:102060007D938D939C931797FE01EC0DFD1D65816B
:10207000772767FD709560537040882777FD8095BE
:10208000982F0E94361F20E030E040E251E40E9489
:10209000C21F7B018C01FE01EC0DFD1D66817727BF
:1020A00067FD709560537040882777FD8095982F65
:1020B0000E94361F9B01AC01C801B7010E94371E68
:1020C0007B018C01FE01EC0DFD1D6085772767FD0E
:1020D000709560537040882777FD8095982F0E94F7
:1020E000361F2DEC3CEC4CEC5DE30E94C21F9B01C3
:1020F000AC01C801B7010E94371E7B018C01FE01B3
:10210000EC0DFD1D6185772767FD7095605370406C
:10211000882777FD8095982F0E94361F2AE037ED9B
:1021200043E25CE30E94C21F9B01AC01C801B701FE
:102130000E94371E7B018C01FE01EC0DFD1D6285A6
:10214000772767FD709560537040882777FD8095ED
:10215000982F0E94361F2FE632E143E85AE30E948F
:10216000C21F9B01AC01C801B7010E94371E7B0151
:102170008C01FE01EC0DFD1D6385772767FD7095D1
:1021800060537040882777FD8095982F0E94361FF6
:1021900027E137EB41ED58E30E94C21F9B01AC01E0
:1021A000C801B7010E94371E20E030E040E752E44A
:1021B0000E949B1E9B01AC01C501B4010E94371E09
:1021C0009B01AC016996EEADFFAD699764837583A1
:1021D00086839783CC0EDD1ED6011C968C918735A5
:1021E00071F460E070E084EB93E40E94361E69961F
:1021F000EEADFFAD6997648375838683978390E026
:1022000020E0AE014F5F5F4F30E0FA01E90FF11DB2
:1022100080818C3209F431E0230F9F5F2A30A0F3D4
:102220009250892F90E0FE01E80FF91F6181FE01B5
:102230003197E80FF91F208162962FAF6297FE0158
:102240003297E80FF91FA0816396AFAF6397FE0145
:102250003397E80FF91FB0816496BFAF6497FE0112
:102260003497E80FF91F208165962FAF65972C32C0
:1022700059F00F2EF0E0AF2EF0E0BF2EF0E8CF2E99
:10228000FFE3DF2EF02D0AC00F2EF0E0AF2EF0E0BE
:10229000BF2EF0E0CF2EF0E0DF2EF02DFE013597BF
:1022A000E80FF91FA0816696AFAF6697AC3259F080
:1022B0000F2EF0E06F2EF0E07F2EF0E88F2EFFE380
:1022C0009F2EF02D0AC00F2EF0E06F2EF0E07F2E33
:1022D000F0E08F2EF0E09F2EF02DFE013697E80FF4
:1022E000F91FB0816796BFAF6797BC3259F00F2EC8
:1022F000F0E02F2EF0E03F2EF0E84F2EFFE35F2EB0
:10230000F02D0AC00F2EF0E02F2EF0E03F2EF0E06F
:102310004F2EF0E05F2EF02D772767FD709560530C
:102320007040882777FD8095982F0E94361F2DECEE
:102330003CEC4CEC5DE30E94C21F7B018C01629679
:10234000EFAD62976E2F772767FD709560537040F1
:10235000882777FD8095982F0E94361F9B01AC013E
:10236000C801B7010E94371E7B018C016396FFAD47
:1023700063976F2F772767FD7095605370408827AC
:1023800077FD8095982F0E94361F20E030E040E2D4
:1023900051E40E94C21F9B01AC01C801B7010E9419
:1023A000371E7B018C0164962FAD6497622F7727CF
:1023B00067FD709560537040882777FD8095982F52
:1023C0000E94361F20E030E048EC52E40E94C21F19
:1023D0009B01AC01C801B7010E94371E7B018C0133
:1023E00065968FAD6597682F772767FD7095605369
:1023F0007040882777FD8095982F0E94361F20E037
:1024000030E04AE754E40E94C21FA60195010E94F1
:10241000C21F9B01AC01C801B7010E94371E7B019E
:102420008C016696AFAD66976A2F772767FD70952A
:1024300060537040882777FD8095982F0E94361F43
:1024400020E030E44CE156E40E94C21FA401930155
:102450000E94C21F9B01AC01C801B7010E94371E38
:102460007B018C016796BFAD67976B2F772767FD60
:10247000709560537040882777FD8095982F0E9453
:10248000361F20E030E543EC57E40E94C21FA20152
:1024900091010E94C21F9B01AC01C801B7010E94BB
:1024A000371E6996EEADFFAD6997608771878287A9
:1024B000938780E0C85ADF4F0FB6F894DEBF0FBE97
:1024C000CDBFCF91DF911F910F91FF90EF90DF90E3
:1024D000CF90BF90AF909F908F907F906F905F90C4
:1024E0004F903F902F900895209121023091220229
:1024F000F901ED53FD4F8091EC049091ED0491832F
:1025000080832E5F3F4F3093220220932102F901F6
:10251000ED53FD4F8091EA049091EB049183808309
:102520002E5F3F4F3093220220932102F901ED5399
:10253000FD4F8091CB049091CC04918380832E5FDA
:102540003F4F3093220220932102F901ED53FD4FBA
:102550008091CD049091CE04918380832E5F3F4F74
:102560003093220220932102F901ED53FD4F809117
:10257000CF049091D00491838083F9013296F09337
:102580002202E0932102DF01AD53BD4F8091D104BF
:102590009091D2048D939C933296F0932202E09313
:1025A0002102DF01AD53BD4F8091D3049091D4043B
:1025B0008D939C933296F0932202E0932102ED5387
:1025C000FD4F8091D5049091D604A091D704B0918D
:1025D000D80480839183A283B383F9013A96F09360
:1025E0002202E0932102ED53FD4F8091D904909196
:1025F000DA0491838083F9013C96F0932202E09300
:102600002102ED53FD4F8091DB049091DC04A091F9
:10261000DD04B091DE0480839183A283B383F9014A
:102620007096F0932202E0932102ED53FD4F8091CA
:10263000DF049091E004A091E104B091E204808372
:102640009183A283B383F9017496F0932202E093FD
:102650002102ED53FD4F8091E3049091E404A09199
:10266000E504B091E60480839183A283B383F901EA
:102670007896F0932202E0932102ED53FD4F809172
:10268000E7048083F9017996F0932202E093210216
:10269000ED53FD4F8091E8049091E904918380838C
:1026A000F901E252FD4F8AE08083245E3F4F309370
:1026B0002202209321028091EC049091ED04019676
:1026C0009093ED048093EC04265C314018F1609106
:1026D000EE047091EF048091F0049091F10443ECCA
:1026E00052E00E94A70710922202109221028091CC
:1026F000EE049091EF04A091F004B091F1040196E2
:10270000A11DB11D8093EE049093EF04A093F004FB
:10271000B093F10408950F931F93082F142F809105
:102720002D0290912E02892B11F5413110F08FEF7F
:102730001BC022EA32E030932E0220932D0280E16A
:1027400080933002C90150E00E947821000F00936D
:102750002B0210922C02123018F081E080932C0290
:1027600085EA8093BC0080E01F910F910895FFCF10
:102770000F931F93DF93CF9300D000D00F92CDB76C
:10278000DEB780911F0290912002109220021092D9
:102790001F028E010F5F1F4FB8014AE050E00E94F8
:1027A0008C2180E062E00E94340581E991E00E9482
:1027B000BC0583E262E00E943405C8010E94BC05AA
:1027C0008BE991E00E94BC050F900F900F900F9045
:1027D0000F90CF91DF911F910F910895EF92FF928B
:1027E0000F931F93DF93CF93CDB7DEB769970FB6E3
:1027F000F894DEBF0FBECDBF8E010A5F1F4F8091E0
:10280000BF029091C002B8014AE050E00E948C21C2
:102810008091C1029091C2027E010894E11CF11CDA
:10282000B7014AE050E00E948C2180E060E00E9405
:1028300034058FE991E00E94BC058AE260E00E94C5
:102840003405C8010E94BC058AEA91E00E94BC05DB
:1028500080E061E00E9434058DEA91E00E94BC05B1
:102860008AE261E00E943405C7010E94BC0589EB41
:1028700091E00E94BC0569960FB6F894DEBF0FBECA
:10288000CDBFCF91DF911F910F91FF90EF900895F1
:10289000CF92DF92EF92FF920F931F93DF93CF932C
:1028A000CDB7DEB7A4970FB6F894DEBF0FBECDBF8D
:1028B000CE010196BE016D5F7F4FAE014B5F5F4F52
:1028C0000E943A0A8E01095F1F4F89819A81B801DF
:1028D0004AE050E00E948C21E1E1EE2EF12CEC0E5A
:1028E000FD1E8B819C81B7014AE050E00E948C2143
:1028F0007BE1C72ED12CCC0EDD1E8D819E81B601D1
:102900004AE050E00E948C2180E064E00E9434059F
:102910008CEB91E00E94BC058FE064E00E943405DE
:10292000C8010E94BC0588E264E00E94340588EC7E
:1029300091E00E94BC0587E364E00E943405C70172
:102940000E94BC0580E065E00E94340584ED91E0C2
:102950000E94BC058FE065E00E943405C6010E941C
:10296000BC05A4960FB6F894DEBF0FBECDBFCF91C5
:10297000DF911F910F91FF90EF90DF90CF9008951E
:10298000BC0189E090E00E949622089585E090E0E5
:102990000E947A22089585E090E00E947A22BC018C
:1029A0006F5F7F4F85E090E00E949622089580E05F
:1029B00090E00E946C220895682F80E090E00E94D1
:1029C0008022089581E090E00E9474220895AB0176
:1029D000BC0181E090E00E948E22089520E030E06A
:1029E00002C02F5F3F4F8091BC0087FF04C0293594
:1029F000310544F003C02A35310599F780EE91E0A6
:102A00000E94D92108959F92AF92BF92CF92DF92F8
:102A1000EF92FF920F931F93982E3C9A0CEBC02ECF
:102A2000D12C14EAA12EF601A0820E94EE1400EA35
:102A30001FE0C8010197F1F73C9ABBEBEB2EF12C9C
:102A40008EEEF7018083A4E8BA2EF601B0820E94D0
:102A5000EE14C8010197F1F73C9AF7019082F60154
:102A6000B0820E94EE143C9AF601A082C801019740
:102A7000F1F73C9A8FEEF7018083F601B0820E9455
:102A8000EE148FEF0E94380B0E94EE14F7010081C4
:102A90000E94EE1480E00E94380B0E94EE14F701B1
:102AA000E0800E94EE1484E9F6018083112707FD7F
:102AB0001095102F0027FF24E7FCF0940E291F2902
:102AC000C8011F910F91FF90EF90DF90CF90BF90C2
:102AD000AF909F9008958AEA0E9403159093F304A3
:102AE0008093F2048CEA0E9403159093FB04809378
:102AF000FA048EEA0E940315909303058093020561
:102B000080EB0E9403159093FF048093FE0482EBF8
:102B10000E9403159093F9048093F80484EB0E94BB
:102B200003159093F7048093F60486EB0E94031537
:102B30009093F5048093F40488EB0E94031590931E
:102B4000C4048093C3048AEB0E9403159093CA04C3
:102B50008093C9048CEB0E94031590930105809328
:102B600000058EEB0E9403159093FD048093FC04F6
:102B700008950E946B15089580E88093610010927B
:102B80006100549A3A9A5C9A0E94C90580E060E01C
:102B90000E9434050E944705809880917C008064E3
:102BA00080937C0080917A0080937A0080917A00F3
:102BB000806880937A0080B38F7180BB8DEC9CEC31
:102BC000ACE4B2E48093B2029093B302A093B40257
:102BD000B093B5020E94BC081092B9001092B800E0
:102BE0008091BC0085608093BC00789488EE93E06F
:102BF00020E931E0F9013197F1F70197D9F70E9407
:102C00006B1580916A00826080936A00EC9A7894D8
:102C10000E94960B0E94EB0724982C9A5C980895CA
:102C2000BF92CF92DF92EF92FF920F931F933C9A45
:102C30002CEBC22ED12C84EAF60180830E94EE1484
:102C400000EA1FE0C8010197F1F73C9A9BEBE92EDF
:102C5000F12C8EEEF701808384E8B82EF601B08265
:102C60000E94EE14C8010197F1F73C9A84EFF70136
:102C70008083F601B0820E94EE14C8010197F1F73B
:102C80003C9A84E3F7018083F601B0820E94EE143F
:102C900084E9F601808380E49CE90197F1F786EFEF
:102CA0000E94031540E050E0BC01CA011F910F9142
:102CB000FF90EF90DF90CF90BF900895BF92CF929A
:102CC000DF92EF92FF920F931F933C9A5CEBC52E1D
:102CD000D12C84EAF60180830E94EE1400EA1FE002
:102CE000C8010197F1F73C9A4BEBE42EF12C8EEEE4
:102CF000F701808334E8B32EF601B0820E94EE140F
:102D0000C8010197F1F73C9A84EFF7018083F6013F
:102D1000B0820E94EE14C8010197F1F73C9A8EE24E
:102D2000F7018083F601B0820E94EE1484E9F60177
:102D3000808380E49CE90197F1F786EF0E940315F8
:102D40009C01442737FD4095542FB901CA011F91BA
:102D50000F91FF90EF90DF90CF90BF9008952F924A
:102D60003F924F925F926F927F928F929F92AF921B
:102D7000BF92CF92DF92EF92FF920F931F93DF9358
:102D8000CF9300D000D000D0CDB7DEB74C017E830A
:102D90006D830E945E160E945E167B018C010E946C
:102DA00010160E9410161B012C018091F6049091C0
:102DB000F704A0E0B0E0E81AF90A0A0B1B0B209117
:102DC000F8043091F90440E050E0C801B7010E94D6
:102DD00025207B018C013FE015950795F794E7943A
:102DE0003A95D1F76091000570910105882777FD2C
:102DF0008095982F2BE0660F771F881F991F2A95C3
:102E0000D1F72091FC043091FD04442737FD409513
:102E1000542F2E0D3F1D401F511F0E947A20590133
:102E20006A01AE0CBF1CC01ED11E88E090E0A0E07D
:102E3000B0E0A80EB91ECA1EDB1ED601C50114E003
:102E4000B595A795979587951A95D1F7F401808345
:102E50009183A283B38388E590EFAFEFBFEFA80E15
:102E6000B91ECA1EDB1EC601B501A60195010E944E
:102E700025203B014C01ACE09594879477946794AE
:102E8000AA95D1F72091020530910305442737FD1B
:102E90004095542FC601B5010E9425207B018C016D
:102EA000FDE015950795F794E794FA95D1F782E040
:102EB00090E0A0E0B0E0E80EF91E0A1F1B1F209171
:102EC000F4043091F504442737FD4095542FC40194
:102ED000B3010E942520BC01992777FD9095892F89
:102EE000E60EF71E081F191F62E015950795F79467
:102EF000E7946A95D1F780E090E8A0E0B0E0E80EB2
:102F0000F91E0A1F1B1F2091FE043091FF0440E0B0
:102F100050E0C801B7010E942520DC01CB015FE031
:102F2000B695A795979587955A95D1F789839A83F2
:102F3000AB83BC83E090F204F090F3040027F7FC2D
:102F40000095102F42E0EE0CFF1C001F111F4A9548
:102F5000D1F782E090E0A0E0B0E0E80EF91E0A1F91
:102F60001B1F2091FA043091FB04442737FD409544
:102F7000542FC601B5010E9425203BE09595879509
:102F8000779567953A95D1F7E60EF71E081F191F3A
:102F90002091C3043091C404442737FD4095542F39
:102FA000C401B3010E9425202BE095958795779564
:102FB00067952A95D1F7E60EF71E081F191FC8015D
:102FC000B70124E030E040E050E00E947A20221A6D
:102FD000330A440A550AC201B10120E533EC40E04E
:102FE00050E00E94252097FD0FC0660F771F881FB5
:102FF000991F29813A814B815C810E945820C90127
:10300000DA015C016D010CC029813A814B815C8140
:103010000E94582059016A01AA0CBB1CCC1CDD1C63
:103020005527D7FC5A954D2D3C2D2B2DCA01B901A2
:103030000E9425202EED3BE040E050E00E9425203C
:103040007B018C01C601B50123E433EE4FEF5FEF46
:103050000E942520BC01992777FD9095892F615307
:10306000714F8F4F9F4F78011127F7FC1095012F5B
:103070006E0D7F1D801F911FE4E0959587957795D4
:103080006795EA95D1F76A0D7B1D8C1D9D1DAD815D
:10309000BE816D937D938D939C93139726960FB667
:1030A000F894DEBF0FBECDBFCF91DF911F910F917E
:1030B000FF90EF90DF90CF90BF90AF909F908F9058
:1030C0007F906F905F904F903F902F9008959C015C
:1030D000CB01B9010E94AF160895EF92FF920F93B2
:1030E0001F93DF93CF93CDB7DEB762970FB6F894F7
:1030F000DEBF0FBECDBFCE010596BE016F5F7F4F15
:103100000E94AF164EE0E42EF12CEC0EFD1E8981DC
:103110009A81B7014AE050E00E948C218E01075F3E
:103120001F4F8D819E81B8014AE050E00E948C21A2
:1031300080E063E00E9434058FE991E00E94BC05C5
:103140008AE263E00E943405C8010E94BC0583EF57
:1031500091E00E94BC0580E064E00E94340585EFA8
:1031600091E00E94BC058AE264E00E943405C70138
:103170000E94BC0580E092E00E94BC0562960FB6FA
:10318000F894DEBF0FBECDBFCF91DF911F910F919D
:10319000FF90EF900895DF93CF9300D000D000D040
:1031A000CDB7DEB78430A9F0853038F48230F9F03D
:1031B000833098F4813041F44AC0873039F0883048
:1031C000B1F1863009F446C080E05EC00E94470538
:1031D0000CC00E946D1883E057C08BED94E067EE41
:1031E00074E048EE54E00E94190E82E04DC00E9447
:1031F0004814CE010196BE016D5F7F4FAE014B5F5B
:103200005F4F0E943A0A89819A819093D0048093FB
:10321000CF048B819C819093D2048093D1048D81C3
:103220009E819093D4048093D30488E02DC00E94A3
:10323000B81380911F0290912002109220021092E8
:103240001F029093DA048093D90481E01DC00E948C
:103250009F0B04C00E94B70B813011F086E014C0B0
:103260008091BF029091C0022091C1023091C202B0
:103270009093CC048093CB043093CE042093CD0460
:10328000429A0E94EE1385E026960FB6F894DEBFB0
:103290000FBECDBFCF91DF910895FF920F931F9383
:1032A000F894A89588E18093600088E68093600098
:1032B000789482E092E00E94BC150E94A50A80E109
:1032C00097E220E931E0F9013197F1F70197D9F759
:1032D0000E94570B10E058E1F52E08E6F894A895E7
:1032E000F092600000936000789483B182958170C1
:1032F000E1F380911D02882321F010921D0217E056
:1033000004C0812F0E94CB18182F0E94570BE6CFC4
:10331000EF92FF920F93DF93CF93CDB7DEB7609715
:103320000FB6F894DEBF0FBECDBFA82F002309F45F
:1033300061C07E010894E11CF11C88E0F701119244
:103340008A95E9F729833A834B835C836D837E8377
:10335000AF83988780E2801BE82FFF27E7FDF09579
:103360004D815E816F817885181684F01D861E86DA
:103370001F86188A882799278E1B9F0B04C0769575
:103380006795579547958A95D2F728C0202F332700
:1033900027FD3095DB01CA01022E04C0B695A79522
:1033A000979587950A94D2F78D879E87AF87B88BBC
:1033B00004C0440F551F661F771FEA95D2F7898115
:1033C0009A81AB81BC8104C0B695A79597958795E6
:1033D0002A95D2F7482B592B6A2B7B2B49875A8782
:1033E0006B877C8729853A854B855C856D857E85D5
:1033F000AF8598898A2F60960FB6F894DEBF0FBE0E
:10340000CDBFCF91DF910F91FF90EF900895EF9294
:10341000FF920F93DF93CF93CDB7DEB760970FB6D0
:10342000F894DEBF0FBECDBFA82F002309F461C002
:103430007E010894E11CF11C88E0F70111928A9545
:10344000E9F729833A834B835C836D837E83AF8363
:10345000988780E2801BE82FFF27E7FDF0954981E0
:103460005A816B817C81181684F019861A861B8616
:103470001C86882799278E1B9F0B04C0440F551F5D
:10348000661F771F8A95D2F728C0202F332727FD84
:103490003095DB01CA01022E04C0880F991FAA1FB4
:1034A000BB1F0A94D2F789879A87AB87BC8704C071
:1034B0007695679557954795EA95D2F78D819E81C8
:1034C000AF81B88504C0880F991FAA1FBB1F2A951A
:1034D000D2F7482B592B6A2B7B2B4D875E876F8742
:1034E000788B29853A854B855C856D857E85AF8592
:1034F00098898A2F60960FB6F894DEBF0FBECDBFB5
:10350000CF91DF910F91FF90EF9008952F923F920E
:103510004F925F926F927F928F929F92AF92BF92E3
:10352000CF92DF92EF92FF920F931F93DF93CF938F
:10353000CDB7DEB761970FB6F894DEBF0FBECDBF33
:103540003C017F876E876A01FC01178216828381A6
:1035500081FD03C06FEF7FEF6FC39E012F5F3F4F71
:10356000398B288BF3012381EE85FF8523FD85911F
:1035700023FF8191FF87EE87882309F45AC38532A0
:1035800051F4EE85FF8523FD859123FF8191FF870F
:10359000EE87853229F490E0B3010E94AD21E2CF9D
:1035A000982F10E0882499241032B0F49B3269F0EF
:1035B0009C3228F4903251F0933271F40BC09D325A
:1035C00039F0903349F4116028C01260146025C0AE
:1035D000186023C0106121C017FD2AC0892F8053B5
:1035E0008A3078F416FF06C0FAE09F9E902C1124D2
:1035F000980E13C03AE0839E802C1124880E10622E
:103600000CC09E3221F416FD14C3106406C09C3613
:1036100011F4106802C0983659F4EE85FF8523FD39
:10362000959123FF9191FF87EE87992309F0BCCFF5
:10363000892F8554833020F4812F8061905E07C0EC
:10364000892F8556833008F09FC1812F8F7E86FD9C
:1036500002C076E0972E6FE3F62EF822953619F425
:10366000F0E4FF2A07C0963619F420E8F22A02C0D7
:1036700091109A94F7FE0AC03BE3391518F45CE305
:10368000B52E02C0B92CB39427E009C047E0491514
:1036900020F4BB2447E0942EF7CF292DBB24C6018C
:1036A00004969D878C87F601608171818281938168
:1036B000AE014F5F5F4F0B2D0E9495206C01098179
:1036C000202E332400FF04C003FD02C01DE209C008
:1036D000F1FE02C01BE205C0F2FC02C010E001C016
:1036E00010E2C1018C709070892BB9F1112311F493
:1036F00083E001C084E0881510F088240AC0881A8D
:10370000F3FC07C080E290E0B3010E94AD218A94EF
:10371000C9F7112329F0812F90E0B3010E94AD2158
:1037200023FE03C008E712E00EC00CE712E00BC056
:10373000E114F10409F0805290E0B3010E94AD2140
:103740000F5F1F4F05C0EF2CFF24F0E1EF22FF2495
:10375000F8018491882361F714C1F7FE12C0BC0CF4
:1037600024FE04C08A81813309F4BA941B141CF02E
:10377000BB24B3942DC0F8E0FB1550F538E0B32E10
:1037800027C0F6FC25C0892D90E08C159D054CF0D6
:103790002CEFC2162FEFD20624F030E8F32A01C036
:1037A0009A94992049F0E2E0F0E0EC0FFD1FE90D5A
:1037B000F11D80818033A1F3F7FE0AC0B92CB394C8
:1037C000892D90E0C816D90614F0992401C09C18E0
:1037D000F7FC03C025E030E009C01C141D041CF0F8
:1037E00021E030E003C096012F5F3F4F112311F01D
:1037F0002F5F3F4F992029F0892D90E00196280FE7
:10380000391F882D90E02817390714F0882401C04B
:10381000821A4F2C5524C20189709070892B39F07F
:1038200008C080E290E0B3010E94AD218A94882014
:10383000C1F7112329F0812F90E0B3010E94AD213F
:1038400043FE07C008C080E390E0B3010E94AD21B1
:103850008A948820C1F7F7FE46C08601D7FE02C0D1
:1038600000E010E076010894E11CF11CE01AF10A76
:1038700041E050E04C0F5D1FE40EF51E26014B1891
:103880005108892D90E0AA24BB24A81AB90A5FEF39
:103890000F3F150729F48EE290E0B3010E94AD219D
:1038A000C016D10634F0401651061CF4F701808191
:1038B00001C080E3015010400894E11CF11C0A157E
:1038C0001B052CF090E0B3010E94AD21E0CF0C1558
:1038D0001D0539F49A81963318F4953311F424FEBA
:1038E00081E390E04BC08A81813309F00F7E90E044
:1038F000B3010E94AD219920A1F08EE290E0B301C6
:103900000E94AD2112E0E1E0F0E0EC0FFD1FE10FBD
:10391000F11D1F5F808190E0B3010E94AD219A9458
:1039200091F744FC03C085E690E002C085E490E096
:10393000B3010E94AD21D7FC05C0C114D10441F4EC
:1039400004FF06C0D094C194D108D3948DE201C085
:103950008BE290E0B3010E94AD2180E305C08F5F50
:1039600026EF3FEFC20ED31E3AE0C316D104BCF7D8
:1039700090E0B3010E94AD21C601C096B3010E9440
:10398000AD21CC84DD8452C1933631F0933799F068
:10399000933509F059C023C0F601808189835E0107
:1039A0000894A11CB11C22E030E0C20ED31E21E01D
:1039B000E22EF12C12C0F601A080B18016FD03C0EA
:1039C0006FEF7FEF02C0692D70E022E030E0C20EA1
:1039D000D31EC5010E9481217C011F7713C0F6010F
:1039E000A080B18016FD03C06FEF7FEF02C0692D8C
:1039F00070E022E030E0C20ED31EC5010E946D21AE
:103A00007C01106813FF07C01BC080E290E0B30187
:103A10000E94AD218A94882D90E0E816F906A8F35B
:103A20000FC0F50117FD859117FF81915F0190E0AF
:103A3000B3010E94AD2181108A940894E108F10835
:103A4000E114F10471F7F2C0943611F0993689F55A
:103A500017FF08C0F601208131814281538184E043
:103A600090E00AC0F601808191819C01442737FDD6
:103A70004095542F82E090E0C80ED91E9FE6F92EA3
:103A8000F12257FF09C050954095309521953F4F41
:103A90004F4F5F4F90E8F92ACA01B901AE014F5F5D
:103AA0005F4F2AE030E00E940E22E82EE889EE1AED
:103AB00041C0953721F41F7E2AE030E01CC0197FF9
:103AC0009F3661F0903720F4983509F0B2C00FC0EE
:103AD000903739F0983709F0ACC004C028E030E0E6
:103AE0000AC0106114FD146020E130E004C014FD30
:103AF000166020E132E017FF08C0F6016081718195
:103B00008281938144E050E008C0F6018081918178
:103B1000BC0180E090E042E050E0C40ED51EAE0152
:103B20004F5F5F4F0E940E22E82E5889E51A8FE7FB
:103B3000F82EF122F6FE0BC08EEFF822E91438F4CD
:103B4000F4FE07C0F2FC05C09FEEF92202C01E2D54
:103B500001C0192DF4FE0DC0FE01EE0DF11D808196
:103B6000803319F4E9EEFE2208C01F5FF2FE05C0A3
:103B700003C08F2D867809F01F5F0F2DF3FC14C052
:103B8000F0FE0FC0181510F09E2C0BC09E2C980C48
:103B9000911A182D06C080E290E0B3010E94AD2179
:103BA0001F5F1815C0F304C0181510F4811A01C066
:103BB000882404FF0FC080E390E0B3010E94AD2190
:103BC00002FF1DC001FD03C088E790E00EC088E53C
:103BD00090E00BC0802F867891F001FF02C08BE24D
:103BE00001C080E2F7FC8DE290E0B3010E94AD21BC
:103BF00006C080E390E0B3010E94AD219A94E914DD
:103C0000C0F3EA94E1E0F0E0EC0FFD1FEE0DF11DD2
:103C1000808190E0B3010E94AD21EE2091F706C0B3
:103C200080E290E0B3010E94AD218A948820C1F720
:103C300099CCF30166817781CB0161960FB6F89438
:103C4000DEBF0FBECDBFCF91DF911F910F91FF90CF
:103C5000EF90DF90CF90BF90AF909F908F907F902C
:103C60006F905F904F903F902F9008955058BB27D2
:103C7000AA270ED04DC13ED130F043D120F031F40F
:103C80009F3F11F41EF433C10EF4E095E7FB29C108
:103C9000E92F4FD180F3BA1762077307840795079E
:103CA00018F071F49EF567C10EF4E0950B2EBA2F53
:103CB000A02D0B01B90190010C01CA01A001112432
:103CC000FF27591B99F0593F50F4503E68F11A16DE
:103CD000F040A22F232F342F4427585FF3CF46956F
:103CE00037952795A795F0405395C9F77EF41F1691
:103CF000BA0B620B730B840BBAF09150A1F0FF0F5B
:103D0000BB1F661F771F881FC2F70EC0BA0F621F46
:103D1000731F841F48F4879577956795B795F79536
:103D20009E3F08F0B3CF9395880F08F09927EE0FC8
:103D30009795879508950CD0EBC0E3D040F0DAD08A
:103D400030F021F45F3F19F0CCC0511115C1CFC044
:103D5000F0D098F39923C9F35523B1F3951B550B74
:103D6000BB27AA2762177307840738F09F5F5F4F4E
:103D7000220F331F441FAA1FA9F333D00E2E3AF08F
:103D8000E0E830D091505040E695001CCAF729D0A9
:103D9000FE2F27D0660F771F881FBB1F26173707F8
:103DA0004807AB07B0E809F0BB0B802DBF01FF2728
:103DB00093585F4F2AF09E3F510568F092C0DCC0D7
:103DC0005F3FECF3983EDCF3869577956795B79562
:103DD000F7959F5FC9F7880F911D9695879597F97D
:103DE0000895E1E0660F771F881FBB1F62177307F6
:103DF0008407BA0720F0621B730B840BBA0BEE1F0B
:103E000088F7E095089504D06894B111B5C008957D
:103E100098D088F09F5790F0B92F9927B751A0F00C
:103E2000D1F0660F771F881F991F1AF0BA95C9F74E
:103E300012C0B13081F09FD0B1E008959CC0672FCF
:103E4000782F8827B85F39F0B93FCCF386957795FE
:103E50006795B395D9F73EF49095809570956195E7
:103E60007F4F8F4F9F4F0895E89409C097FB3EF412
:103E700090958095709561957F4F8F4F9F4F9923B7
:103E8000A9F0F92F96E9BB279395F6958795779535
:103E90006795B795F111F8CFFAF4BB0F11F460FFF5
:103EA0001BC06F5F7F4F8F4F9F4F16C0882311F04D
:103EB00096E911C0772321F09EE8872F762F05C061
:103EC000662371F096E8862F70E060E02AF09A95FC
:103ED000660F771F881FDAF7880F9695879597F9F1
:103EE000089597F99F6780E870E060E008959FEF7C
:103EF00080EC089500240A94161617061806090681
:103F0000089500240A94121613061406050608954F
:103F1000092E0394000C11F4882352F0BB0F40F4D7
:103F2000BF2B11F460FF04C06F5F7F4F8F4F9F4F17
:103F3000089557FD9058440F551F59F05F3F71F099
:103F40004795880F97FB991F61F09F3F79F0879500
:103F50000895121613061406551FF2CF4695F1DF89
:103F600008C0161617061806991FF1CF8695710519
:103F7000610508940895E894BB2766277727CB014D
:103F800097F908950BD0C4CFB5DF28F0BADF18F049
:103F9000952309F0A6CFABCF1124EECFCADFA0F353
:103FA000959FD1F3950F50E0551F629FF001729FCE
:103FB000BB27F00DB11D639FAA27F00DB11DAA1FED
:103FC000649F6627B00DA11D661F829F2227B00D3A
:103FD000A11D621F739FB00DA11D621F839FA00DC5
:103FE000611D221F749F3327A00D611D231F849F15
:103FF000600D211D822F762F6A2F11249F5750406C
:104000008AF0E1F088234AF0EE0FFF1FBB1F661F06
:10401000771F881F91505040A9F79E3F510570F0BF
:1040200060CFAACF5F3FECF3983EDCF3869577959F
:104030006795B795F795E7959F5FC1F7FE2B880FBA
:10404000911D9695879597F90895629FD001739F6A
:10405000F001829FE00DF11D649FE00DF11D929F24
:10406000F00D839FF00D749FF00D659FF00D992763
:10407000729FB00DE11DF91F639FB00DE11DF91F87
:10408000BD01CF0111240895AA1BBB1B51E107C03C
:10409000AA1FBB1FA617B70710F0A61BB70B881FD8
:1040A000991F5A95A9F780959095BC01CD01089567
:1040B000A1E21A2EAA1BBB1BFD010DC0AA1FBB1F2C
:1040C000EE1FFF1FA217B307E407F50720F0A21B9E
:1040D000B30BE40BF50B661F771F881F991F1A940B
:1040E00069F760957095809590959B01AC01BD0135
:1040F000CF01089597FB092E05260ED057FD04D059
:10410000D7DF0AD0001C38F45095409530952195A2
:104110003F4F4F4F5F4F0895F6F7909580957095FC
:1041200061957F4F8F4F9F4F0895283008F027E00B
:104130003327DA01990F311D87FD916000966105E3
:10414000710539F432602E5F3D9330E32A95E1F733
:1041500008959F3F30F080387105610509F03C5F9C
:104160003C5F3D93913008F08068911DDF93CF93C1
:104170001F930F93FF92EF92192F987F9695E92F37
:1041800096959695E90FFF27E652FD4F992733271D
:10419000EE24FF24A701E70105900894079428F472
:1041A000360FE71EF81E491F511D660F771F881F27
:1041B000991F0694A1F70590079428F4E70EF81EBE
:1041C000491F561FC11D770F881F991F661F069430
:1041D000A1F70590079428F4F80E491F561FC71F32
:1041E000D11D880F991F661F771F0694A1F70590B0
:1041F000079420F4490F561FC71FD81F990F661F39
:10420000771F881F0694A9F784911095177041F0C5
:10421000D695C79557954795F794E7941A95C1F7A2
:10422000E0E8F2E0689415901591359165919591CB
:1042300005907FE27395E118F10A430B560BC90B09
:10424000D009C0F7E10CF11E431F561FC91FD01D36
:104250007EF4703311F48A95E6CFE894015030F083
:10426000080F0AF40027021708F4202F2395022FC5
:104270007A3328F079E37D932A95E9F710C07D938E
:104280002A9589F60694979567953795179517940B
:10429000E118F10A430B560BC90BD00998F023958E
:1042A0007E9173957A3308F070E37C932013B8F70E
:1042B0007E9170617D9330F0839571E37D9370E31F
:1042C0002A95E1F71124EF90FF900F911F91CF9164
:1042D000DF91992787FD90950895FC010590615025
:1042E00070400110D8F7809590958E0F9F1F08950C
:1042F000FB01DC0102C001900D9241505040D8F703
:104300000895FC016150704001900110D8F780952C
:1043100090958E0F9F1F0895FB019F01E8944230F6
:10432000C4F04532B4F44A3029F497FB1EF490955A
:1043300081959F4F642F77270E944420805D8A33A8
:104340000CF0895D8193CB010097A1F716F45DE233
:1043500051931082C9010C949B220F931F93CF930A
:10436000DF938C01EB018B8181FF1BC082FF0DC0AD
:104370002E813F818C819D812817390764F4E88163
:10438000F9810193F983E88306C0E885F985802FD8
:104390000995892B31F48E819F8101969F838E83AD
:1043A00002C00FEF1FEFC801DF91CF911F910F9156
:1043B00008950F931F93CF93DF938C01E09106052F
:1043C000F0910705838181FF21C0C0E0D0E00DC0DE
:1043D000E0910605F091070520853185BF01F901BF
:1043E0000995892B11F0CFEFDFEFF80181918F0153
:1043F000882371F7E0910605F09107052085318546
:104400008AE0BF01F9010995892B11F0CFEFDFEFA9
:10441000CE01DF91CF911F910F910895FA01AA2744
:10442000283051F1203181F1E8946F936E7F6E5FF7
:104430007F4F8F4F9F4FAF4FB1E03ED0B4E03CD0A5
:10444000670F781F891F9A1FA11D680F791F8A1F88
:10445000911DA11D6A0F711D811D911DA11D20D0EF
:1044600009F468943F912AE0269F11243019305DA9
:104470003193DEF6CF010895462F4770405D41939A
:10448000B3E00FD0C9F7F6CF462F4F70405D4A33E7
:1044900018F0495D31FD4052419302D0A9F7EACFAF
:1044A000B4E0A6959795879577956795BA95C9F7DE
:1044B00000976105710508959B01AC010A2E0694D1
:1044C0005795479537952795BA95C9F7620F731F8A
:1044D000841F951FA01D0895F999FECF92BD81BD3F
:1044E000F89A992780B50895A6E1B0E044E050E03D
:1044F0000C94AD22A8E1B0E042E050E00C94AD2273
:10450000262FF999FECF1FBA92BD81BD20BD0FB6EF
:10451000F894FA9AF99A0FBE01960895242F0E94F2
:104520008122252F0E9481220C9496220E948022B3
:10453000272F0C948122DC01FC01672F71917723D6
:10454000E1F7329704C07C916D9370836291AE174E
:10455000BF07C8F30895DC01CB01FC01F999FECF38
:1045600006C0F2BDE1BDF89A319600B40D924150FB
:0A4570005040B8F70895F894FFCF0B
:10457A0041540031323334353637383941424300F9
:10458A0041542B4E414D450041542B50494E004158
:10459A00542B42415544005741524E494E473A0026
:1045AA0043616C6962726174696E67004163636535
:1045BA006C65726F6D657465720024504D544B3290
:1045CA0032302C313030302A31460D0A0024504D19
:1045DA00544B3331342C302C302C302C312C302CA1
:1045EA00302C302C302C302C302C302C302C302CE1
:1045FA00302C302C302C302C302C302A32390D0A09
:10460A00005261643A20202020200063706D00541B
:10461A00656D703A20202020200064430048756DA3
:10462A0069643A202020202000642500583A20207E
:10463A002020202020202000593A2020202020203D
:10464A00202020005A3A202020202020202020004C
:10465A00636F6D706C6574652074696D6564206F35
:10466A007574004300507265733A202020202000A0
:10467A00250053747261746F7370686572652042A5
:08468A00616C6C6F6F6E0000A3
:00000001FF
